S31508000000381C00205103000819900008297E0008B2
S3150800001015900008451D0008D5CA00080000000014
S3150800002000000000000000000000000005BA0008FB
S315080000306D1D00080000000079B7000835BD0008EE
S315080000406B0300086B0300086B0300086B030008CA
S315080000506B0300086B030008711D00086B0300089A
S315080000606B0300086B0300086B030008491D0008B2
S31508000070551D0008611D00086B0300086B03000886
S315080000806B0300086B0300086B0300086B0300088A
S315080000906B0300086B0300086B0300086B0300087A
S315080000A06B0300086B0300086B0300086B0300086A
S315080000B04DBD000859BD000865BD00086B03000862
S315080000C06B0300086B0300086B0300086B0300084A
S315080000D06B030008ADC900086B0300086B03000832
S315080000E06B0300086B0300086B0300086B0300082A
S315080000F06B0300086B0300086B0300086B0300081A
S315080001006B0300086B0300086B0300086B03000809
S315080001106B0300086B0300086B0300086B030008F9
S315080001206B0300086B0300086B0300086B030008E9
S315080001306B0300086B0300086B0300086B030008D9
S315080001406B0300086B0300086B0300086B030008C9
S315080001506B0300086B0300086B030008197D000891
S315080001606B0300086B0300086B0300086B030008A9
S315080001706B0300086B0300086B0300086B03000899
S315080001806B0300086B0300086B0300086B03000889
S315080001906B030008000000006B0300086B030008EF
S315080001A06B0300086B0300086B0300086B03000869
S315080001B06B0300086B0300086B0300086B03000859
S315080001C06B0300086B0300086B0300086B03000849
S315080001D06B0300086B03000800F002F800F0A8F8AB
S315080001E014A696E8000CB244B344DA4501D100F0EF
S315080001F09FF8BAE80F000FA696E83000A5EB0405AD
S3150800020004EB0607AAEB0704A7F101074FEA151541
S315080002104FEA3414A4F10104AC4201D300F088F883
S3150800022013F0010F18BFFB1A43F0010300F001F8A1
S31508000230DBE718472CFE00004CFE0000103A24BFEE
S3150800024078C878C1FAD8520724BF30C830C144BF2D
S3150800025004680C6070470000704700000023002403
S3150800026000250026103A28BF78C1FBD8520728BFB8
S3150800027030C148BF0B6070476E2900F0878270292D
S3150800028000F0D18366290EF0D48765290EF0D18750
S3150800029067290EF0CE8761290EF0CD8703681B0A01
S315080002A028BF41F08001692900F03482642900F0F2
S315080002B03182752900F02E826F2900F05F83782934
S315080002C000F09D83E92900F0F982E42900F0F6821E
S315080002D0F52900F0F382EF2900F05C83F82900F095
S315080002E09C830368DB0928BF41F08001632901F07C
S315080002F0D380732901F0D880E32901F0E380F3293C
S3150800030001F0E880002070471FB50EF080FF01F06D
S315080003103BF90400002000210EF0B8F9401C60608B
S31508000320002000210EF09CF9E0601FBD10B510BD3D
S3150800033001F0FCF81146FFF7E7FF0CF009FE01F0A3
S31508000340D9F903B4FFF7F2FF03BC01F0DDF90000A9
S315080003500948804709480047FEE7FEE7FEE7FEE74B
S31508000360FEE7FEE7FEE7FEE7FEE7FEE70448054987
S31508000370054A064B7047000039BD0008D901000838
S31508000380380C0020381C00203814002038140020AF
S3150800039053EA020C00F069802DE9F04B4FF0000695
S315080003A0002B1FBFB3FA83F503FA05F424FA05F602
S315080003B05E4012BF1643B2FA82F502FA05F4C5F199
S315080003C020051EBF22FA05FC44EA0C04203556EA2D
S315080003D0044C4FEA144418BF641C4FF000084FF051
S315080003E00009904271EB030C39D3002919BFB1FA01
S315080003F081F701FA07F6B0FA80F700FA07F6C7F1AF
S3150800040020071EBF20FA07FC46EA0C062037B6FB73
S31508000410F4FCA7EB0507103F07F01F0BCBF12006EE
S315080004202CFA06F60CFA0BFB44BFB3460026202F1F
S31508000430A4BF5E464FF0000B5BEA060C08BF4FF000
S31508000440010B19EB0B0948EB0608ABFB027C06FB14
S3150800045002CC0BFB03CCC01B71EB0C01C1E70B46AE
S31508000460024641464846BDE8F08B13B5084318BF17
S315080004704FF0FF300146AFF30080BDE81C407047DF
S315080004801CB50C46064B7B4469460090204600F096
S3150800049096F904460020694600F0A4F920461CBDDA
S315080004A05B0300007CB51D4616460C00009007D07D
S315080004B04142A14202D32044401E01E04FF0FF30E2
S315080004C0064B7B442A4669460190304600F077F988
S315080004D0002C02D0009A002111707CBD290300006F
S315080004E0032A40F2308010F0030C00F0158011F852
S315080004F0013BBCF1020F624498BF11F801CB00F82A
S31508000500013B38BF11F8013BA2F1040298BF00F87D
S3150800051001CB38BF00F8013B11F0030300F052830A
S31508000520083AC0F0088051F8043B083A51F804CB61
S31508000530A0E80810F5E7121D5CBF51F8043B40F827
S31508000540043BAFF30080D20724BF11F8013B11F832
S3150800055001CB48BF11F8012B24BF00F8013B00F876
S3150800056001CB48BF00F8012B70474FF0000200B5D9
S31508000570134694469646203922BFA0E80C50A0E8B8
S315080005800C50B1F12001BFF4F7AF090728BFA0E866
S315080005900C5048BF0CC05DF804EB890028BF40F832
S315080005A0042B08BF704748BF20F8022B11F0804F74
S315080005B018BF00F8012B704730B44FF0013C50F8D3
S315080005C0042B51F8043BCCFA52F4D51A20D1FCB9C5
S315080005D050F8042B51F8043BCCFA52F4D51A17D12B
S315080005E0B4B950F8042B51F8043BCCFA52F4D51A96
S315080005F00ED16CB950F8042B51F8043BCCFA52F4DE
S31508000600D51A05D1002CDAD030BC4FF0000070475F
S3150800061029BAB1FA81F111F01801D1F1200084400C
S31508000620F2D1CA40CB4012F0FF0213F0FF0330BCF0
S31508000630D01A704770477047704710B500F0F4FA43
S31508000640006810BD10B5044600F0EEFA046010BD4F
S3150800065070B5044685690068C10601D5302600E0F4
S315080006602026C00707D070BDD4E90121304690473F
S31508000670206A401C20626D1EF6D570BD70B5044612
S3150800068085690078C00707D170BDD4E9012120200B
S315080006909047206A401C20626D1EF6D570BD096819
S315080006A04A0501D540B27047C905FCD500B2704766
S315080006B009684A0501D5C0B27047C905FCD580B29C
S315080006C0704770B50C460546012A05D0287880067D
S315080006D000D5EA69002302E0012305E05B1C93428A
S315080006E002D2E05C0028F9D1A869E618C01AA86108
S315080006F0286A184428622846FFF7AAFF04E0D5E9C5
S31508000700012114F8010B9047B442F8D32846FFF7A5
S31508000710B5FF70BD2DE9F04106460024106875291D
S31508000720314616A510D0FFF7BAFF002802DA404274
S3150800073013A507E031688A0701D512A502E0490723
S3150800074004D511A5012401E0FFF7B2FF00210A2212
S3150800075006F1240709E0B0FBF2FCB0FBF2F302FB5A
S315080007601C00303078541846491C0028F3D123461B
S315080007702A463046BDE8F04100F09FBA0000000066
S315080007802D0000002B000000200000001168026800
S31508000790006A530501D508700AE0D30501D508801B
S315080007A006E0130603D5C217C1E9000200E0086097
S315080007B00120704701694A1C02610878704700B534
S315080007C08FB0CDE901310021059105497944CDE97C
S315080007D003101146684600F031F90FB000BD00005D
S315080007E0E5FFFFFF0A6802F8010B0A607047D1E9C6
S315080007F000239A4202D2531C0B6010707047000007
S315080008002DE9FF5F15468A460446DFF8AC80F844B2
S315080008100027D8E900103E46CDE9001010E03AF866
S3150800082016106A4602A800F059FE411C07D0217826
S31508000830890603D5E269391891420DD80744761C12
S315080008402078800602D5E069B84205DDAE42E6DBCF
S315080008503AF816000028E2D1A069C01BA06120461C
S31508000860FFF7F6FED8E90010CDE90010002017E0E2
S315080008703AF818106A4602A800F030FEB0F1FF3FB9
S3150800088081460BD000250DF1080B05E0D4E90121BE
S315080008901BF8050090476D1C4D45F7D308F101007C
S315080008A0B0428046E4DB206A384420622046FFF7DF
S315080008B0E5FEBDE8FF9F000066EA00002DE9F0416D
S315080008C08046D21D22F007020025D2E90002F5294A
S315080008D015A614D0011E72F1000106DA0023D0EB2A
S315080008E0030063EB020211A608E0D8F800108B0794
S315080008F001D50FA602E0490701D50EA60125114626
S31508000900002408F1240704E000F092F930323A5541
S31508000910641C50EA0102F7D12B463246214640466E
S31508000920BDE8F04100F0C9B9000000002D00000044
S315080009302B0000002000000030B4002100F1240440
S3150800094008E002F00705D208303542EA4372DB08B0
S315080009506554491C52EA0305F3D10468002310A222
S31508000960250708D504F020040C4304D0C4690123E4
S315080009700CA2641EC46130BC00F09FB910B50446D1
S3150800098021461068FFF794FE02462046BDE810404F
S315080009900023D1E7D21D22F00701D1E90023CBE7D6
S315080009A00000000030000000F0B40D46018809057B
S315080009B002D5214C7C4402E01F4C7C440E340021B5
S315080009C000F1240608E002F00F071209E75D42EA83
S315080009D003721B097754491C52EA0307F3D10278BC
S315080009E00023120704D5702D06D009B1022311344D
S315080009F02246F0BC00F061B901231034F8E770B55F
S31508000A0004460D4621461068FFF752FE024629465F
S31508000A102046BDE870400023C6E7D21D22F0070332
S31508000A20D3E90023C0E70368126843F02003036094
S31508000A300823C3610023B7E7C8E800002DE9F05F83
S31508000A40894604464FF0000ADFF874B1FB44C0F843
S31508000A5020A02046E1688847002874D0252806D0BB
S31508000A60D4E901219047206A401C2062F1E700265C
S31508000A705F462046E16888472028054607DB312D72
S31508000A8005D2781910F8200C08B10643F1E7B0072B
S31508000A9001D526F00406C4F81CA00027C4F818A03F
S31508000AA02A2D09D028460DF0D3FD38B304EB870864
S31508000AB0303DC8F8185019E059F8041B204604EBD5
S31508000AC087029161E1688847012F054618D1E069D8
S31508000AD0002820DA26F020061DE0D8F8180000EBDA
S31508000AE0800005EB40003038C8F818002046E16859
S31508000AF0884705460DF0ACFD0028EED1012F0AD037
S31508000B002E2D08D12046E16888477F1C0546022F0E
S31508000B1046F02006C4DBA069002803DA404246F006
S31508000B200106A061F00701D026F010066C2D0BD047
S31508000B30682D09D04C2D39D06A2D35D0742D35D075
S31508000B407A2D33D016E038E0E1682F4620468847EC
S31508000B50B842054609D16C2F26D04FF48060E1686B
S31508000B60064320468847054604E06C2F1AD04FF402
S31508000B70807006430DB3A5F14100192802D8203527
S31508000B8046F400664A462946204626604E46FFF742
S31508000B9073FB80B101280BD0F61D26F0070000F183
S31508000BA0080956E74020E4E78020D8E70020D6E782
S31508000BB006F104094DE7284652E7206ABDE8F09F8A
S31508000BC058E8000010B5203AC0F00B80B1E818507C
S31508000BD0A0E81850B1E81850A0E81850203ABFF419
S31508000BE0F5AF5FEA027C24BFB1E81850A0E81850B8
S31508000BF044BF18C918C0BDE810405FEA827C24BF0C
S31508000C0051F8043B40F8043B08BF7047D20728BF99
S31508000C1031F8023B48BF11F8012B28BF20F8023BE8
S31508000C2048BF00F8012B704700487047380000207D
S31508000C3030B5B0F10A0271F100034FEA900E4EEAA0
S31508000C40817EB0EB0E0061EB91014FEA101E4EEA71
S31508000C50017E10EB0E0041EB11114FEA102E4EEA01
S31508000C60016E10EB0E0041EB11214FEA104E4EEAD1
S31508000C70014E10EB0E0041EB1141401841F1000105
S31508000C804FEAD00040EA41704FEAD1014FEA8104A9
S31508000C9044EA907410EB800544EB01046D1944EBAB
S31508000CA00404521BA3414FF0000348BF0A3200D583
S31508000CB030BD401C41F1000130BD2DE9F0470D461D
S31508000CC099469246044600F124080168880604D528
S31508000CD0E06921F01001216000E00120A84201DD51
S31508000CE0471B00E00027A1697A1902EB0900081AD8
S31508000CF0A0612078C00602D42046FFF7A9FC00268A
S31508000D0008E0D4E901211AF806009047206A401C39
S31508000D10761C20624E45F4DB2078C0060AD52046AC
S31508000D20FFF796FC06E0D4E9012130209047206AB7
S31508000D30401C2062381EA7F10107F4DC07E0D4E95D
S31508000D40012118F805009047206A401C2062281ED9
S31508000D50A5F10105F3DC2046FFF790FC2078000694
S31508000D6002D50220BDE8F0870120FBE72DE9FF4FF9
S31508000D700C461E464FF0FF378BB0D2E90001DDF86E
S31508000D8060800A908A46C1F30A5505B93D46002196
S31508000D9008464FF00000BAF1000F00F4400005DAEB
S31508000DA000EB80004FF4400101EA50004FEA9059E9
S31508000DB0B9F1010F00DDB9460A9850EA4A000ED08B
S31508000DC044F61050A5F2FF3545432F14B8F1000F2D
S31508000DD01ED07542291E1EDDC9F100021CE0B8F1BD
S31508000DE0010F4FF0000001D0302103E0F24305E087
S31508000DF02154401CB042FBDB30460022002121541E
S31508000E000B99C1F80880C1E900200FB0BDE8F08F42
S31508000E10BD1B6D1CDEE74A4600DA694206A800F0EB
S31508000E20F7FB06AB93E8070003AB83E807005046D9
S31508000E300A990CF06FFA8DE80700A0F500501F38E4
S31508000E4000900398002D0ADD42F21F014A46084425
S31508000E50002303A9039068460CF0D8FC09E0A0F526
S31508000E6000504A461F38002303A9039068460CF031
S31508000E70E2FC8DE807000004000C03D04FF0FF30B9
S31508000E80410800E01046B8F1000F03D00022009296
S31508000E9015461EE0751E05D4FFF7CAFE30326255A8
S31508000EA06D1EF9D5B3460122084302D000227F1CE5
S31508000EB004E02078302801D100227F1E002A0997F5
S31508000EC084D01DE0112D07DAFFF7B2FE30326255E5
S31508000ED06D1C50EA0102F5D1084302D00098C8B14A
S31508000EE00EE00021681E05E0235C625C6354225410
S31508000EF0401E491C8142F7DBAB46A81B401E0990E1
S31508000F00002004F80B000B98099AC0F80880C0E97D
S31508000F10002B7AE711264FF0000857E72DE9F04F26
S31508000F2088460446D21D22F0070191B0D1E9000196
S31508000F30CDE90A010DF0E0F802460B98C00F01D082
S31508000F402D2007E02068810701D52B2002E020210B
S31508000F5001EAC000032A099001D0072A05DB0346E7
S31508000F604146204600F014FB0BE12078800601D5A7
S31508000F70E06900E00620B8F1650F814606D0B8F1B1
S31508000F80660F18D0B8F1670F70D131E00020B9F1BB
S31508000F90110F009001DB112301E009F101030AAAF0
S31508000FA001A90CA8FFF7E2FEDDE90C70002609F19D
S31508000FB00105834647E001204B4600904FF0004765
S31508000FC00AAA01A90CA8FFF7D1FEDDE90DB00C9914
S31508000FD05D46002610B909F101000D18B9EB0500A8
S31508000FE003D4C0F1FF3609F10105A5EB09002BE092
S31508000FF0B9F1010F01DA4FF001090020B9F1110F1B
S315080010000090484601DD112300E003460AAA01A91B
S315080010100CA8FFF7ABFEDDE90C704D4600268346AB
S31508001020207800070AD4AB4500DA5D4601A8012DF1
S3150800103004DD411911F8011C302907D04F4502DAA1
S3150800104017F1040F04DA012082460FE06D1EEEE761
S31508001050002F02DCED1B3E4403E0781CA84200DDAD
S315080010607D1CB81B00F1010A4FF0004720780007E5
S3150800107003D4AA4501DB4FF0FF3A0021B7F1004F30
S315080010800DF143088DF8431024D002202B23002F9E
S3150800109001DA7F422D230A21021EA0F1010000DC9D
S315080010A05FB197FBF1FC97FBF1F201FB1C7C17463D
S315080010B00CF1300C08F801CDEEE7A8F10100037039
S315080010C02188090501D5452100E06521A0F101081F
S315080010D000F8011C09980FA9A1EB0807FF1D00B12C
S315080010E00120411901EBEA70A1693844081A401E2B
S315080010F0A0612078C00602D42046FFF7A9FA09980D
S3150800110028B1D4E901219047206A401C2062207842
S31508001110C00622D52046FFF79BFA1EE0002E04DB08
S31508001120B34502DD01A8805D00E03020D4E9012145
S315080011309047206A401C2062761CAAF101005FEAEB
S31508001140000A0AD100F020FAC0680168405CD4E9B8
S3150800115001219047206A401C2062281EA5F101053E
S31508001160DCDC07E0D4E9012118F8010B9047206A76
S31508001170401C2062381EA7F10107F3DC2046FFF762
S315080011807DFA032011B041E62DE9F04F04460D46DD
S31508001190D21D22F0070089B0D0E9009748463946A3
S315080011A00CF0AAFF0246F80F01D02D2307E02068AD
S315080011B0810701D52B2302E0202101EAC0038DF81F
S315080011C020300BB1012000E00020032A824601D01E
S315080011D0072A04DB2946204600F0DAF93FE12078A1
S315080011E0800601D40D2500E0E569C7F30A560D2DE2
S315080011F049DA00214FEA175B08464FF00000002F36
S3150800120000F4400007DA00EB80004FF4400100EBE1
S31508001210D07001EA60008115012901DD4FF0FF3128
S3150800122000224FEA850CBCF1180F06D31346ACF121
S3150800123018004FF08052C24003E04FF4801323FA9F
S315080012400CF30CF10C0CBCF1200F04D3ACF1200C00
S3150800125009FA0CF001E007FA0CF000294FF00048F3
S3150800126001DD18B90FE00ED140450CD319EB020980
S315080012705F4121B9404502D19F4329EA0209BBEBE8
S31508001280175F00D0761C2088000502D57B48784475
S3150800129002E07A487844193808AA302302F80A3056
S315080012A0037C0AF10101002E0AF1020A53546A4628
S315080012B002DC4FF0300101E04FF031014FF0010838
S315080012C08DF8001002D0A6F2FF3603E059EA47016E
S315080012D000D06B4E002D02DC2178090704D54FF0AB
S315080012E002082E218DF80110C44600210BE0C7F331
S315080012F003433F01C35C491C6D1E02F808300529EB
S3150800130008F1010801DA002DF1DC00210CE000EB00
S315080013101973491C1B786D1E082902F808304FEA14
S31508001320091908F1010801DA002DF0DC21688B069D
S3150800133002D516E0A8F10108E04505DD02EB080331
S3150800134013F8013C302BF5D0B8F1000F09DD02EB9C
S31508001350080313F8013C2E2B03D1090701D4A8F181
S315080013600108002D05DD3E2102F808106D1E08F162
S315080013700108407C002E02F8080008F1010804DA8A
S315080013802D20764202F8080002E02B2002F8080019
S315080013900A214FF47A70864208F101080BDB96FBA6
S315080013A0F0F3303302F8083096FBF0F308F1010841
S315080013B000FB136601E0642E0CDB642096FBF0F359
S315080013C0303302F8083096FBF0F308F1010800FB09
S315080013D0136601E00A2E06DB96FBF1F0303002F8C0
S315080013E0080008F1010896FBF1F001FB10603030A7
S315080013F002F80800A16908F1010808EB050202EBEA
S315080014000A00081AA0612078C00602D42046FFF711
S315080014101FF9216A08AE01EB0A00206204E0D4E94C
S31508001420012116F8010B9047BAF1010AF7D2207884
S31508001430C00602D52046FFF70BF96E4609E016F8F6
S31508001440010B3E280FD0D4E901219047206A401CA1
S315080014502062B8F10108F2D22046FFF70FF909B069
S315080014600320BDE8F08F206A2844206203E0D4E90F
S315080014700121302090476D1EEBD3F8E749E00000C4
S3150800148002FCFFFF10B5436913B1AFF3008001E01A
S31508001490FFF717F9012010BD127800F124010A7030
S315080014A000224A700122EDE711684FF0FF32E9E7A2
S315080014B010B5436913B1AFF3008001E0FFF7A0F957
S315080014C0012010BD128800F1240182840022C28402
S315080014D00122EDE711684FF0FF32E9E72DE9F04107
S315080014E016460C46054600F047F8036893F80101CE
S315080014F0012807D0FF2C12D8185D80B101202C7066
S31508001500BDE8F081D3F807013246214603F20713F6
S31508001510C7182846BC46BDE8F041002360474FF08F
S31508001520FF30EDE700487047380000207546FFF7A2
S31508001530F9FFAE4605006946534620F00700854682
S3150800154018B020B5FEF712FFBDE820404FF00006A0
S315080015504FF000074FF000084FF0000BAC46ACE820
S31508001560C009ACE8C009ACE8C009ACE8C00921F07C
S3150800157007018D467047000010B500F005F8001DFC
S3150800158010BD00BF09D10000004870475800002070
S315080015902DE9F0411F46044603260168072A01F48F
S315080015A0006004DB08B116A505E016A503E008B13E
S315080015B015A500E015A521F010002060A069C01E41
S315080015C0A0610FB1401EA0612046FFF741F84FB158
S315080015D0D4E9012138469047206A401C2062C01C85
S315080015E0206206E0206AFAE7D4E9012115F8010B22
S315080015F09047761EF8D22046FFF740F8BDE8F081FE
S315080016004E414E006E616E00494E4600696E660098
S315080016102DE9F047814616468AB0354878440DC804
S315080016208DE80D0032487844801C03AC0DC884E868
S315080016300D0041F69B300844372190FBF1F290FBF0
S31508001640F1F5A5F1800501FB12041B3C02D56442A5
S31508001650012000E00020DFF898A080460027FA4421
S31508001660AAF1BE0A0EE0E0070AD03246684607EB42
S31508001670470101230AEB81010CF0DDF88DE807002C
S3150800168064107F1C002CEED1194F7F44AE3F19E041
S31508001690E80715D007EB04100DF1180A90E80E00BC
S315080016A08AE80E00C068F04201D1981908903246BF
S315080016B0012306A903A80CF0BEF803AB83E80700CC
S315080016C06D10641C002DE3D14FF0010332466946C4
S315080016D0B8F1000F03A802D00CF098F801E00CF05E
S315080016E0AAF8C9E90001C9F808200AB0BDE8F087D8
S315080016F04CDD000010B50446AFF300802046BDE877
S315080017001040FEF71EBE000001491820ABBEFEE7DA
S3150800171026000200704700000146806AC36DC26D4C
S3150800172013F0500F08D0D20648BF01F083BC406DB5
S31508001730426B0846104700BF42F40071C165016854
S315080017400B68CA681B0703D4910707D501F06EBC5E
S3150800175012F4406FFAD1C9688904F7D4C16D21F42F
S315080017608071C165C16DC90448BF01F05FBCC16D18
S3150800177041F00101C16501F059BC0000806AC16DE4
S3150800178041F04001C165016E41F00401016601F0B6
S3150800179051BC0000806A01F04BBC0000B0B501687E
S315080017A004468A688868C0074FF0000031D012F0F6
S315080017B0020218BFB0BD886800F00D0001281FD1CD
S315080017C088684FF6C072C7F6FF721040023088600C
S315080017D00320086002F048FA21688968C90704BF2F
S315080017E00020B0BD054602E08068C00712D002F0AE
S315080017F03BFA411B20680329F6D38168C907F3D051
S31508001800E06D40F01000E065206E40F001002066B3
S315080018100120B0BD0020B0BD70B582B004460020DE
S31508001820019021688A68D20711D14FF6C076C7F6AB
S31508001830FF76886806F17F0210420BD0E06D40F013
S315080018401000E065206E40F001002066012002B01D
S3150800185070BD00BF88684FF4C162304040F0010097
S31508001860886040F20010C5F20000814208BF4FF4BC
S315080018700272B1F1A04F08BF4FF40272105800026D
S3150800188022D402F0F1F921680A68D20718D1054670
S3150800189003E000BF0868C00712D18868C00704D1F2
S315080018A08868304040F00100886002F0DDF9401B8E
S315080018B021680328EED30868C007EBD1BEE700BF4E
S315080018C0002002B070BD00BF40F22C00C2F200003A
S315080018D0006842F663518009C0F23E51A0FB01013F
S315080018E0880900EB40000C2101EB8000019001986B
S315080018F00028C6D001980138019001980028C0D068
S3150800190001980138019001980028BAD00198013849
S31508001910019001980028B4D00198013801900198E7
S315080019200028E7D1ADE7000070B52DED028B40F237
S31508001930B010C2F2000090ED0B0A9FED6D8AB8EE6A
S31508001940400A9FED6C1A20EE080A80EE010A9FED08
S315080019506A2A40F24015C2F200059FED683A9FEDEB
S31508001960684A40F21474C2F2000480EE020A85ED59
S315080019700C0A90ED090AB8EE400A20EE080A80EE35
S31508001980010A80EE030A80EE040A85ED0D0A90ED41
S31508001990070AB8EE400A20EE080A80EE010A80EE31
S315080019A0020A85ED0A0A90ED050A2046B8EE400AB5
S315080019B020EE080A80EE010A80EE030A80EE040A89
S315080019C085ED0B0A01F046FD204601F035FB00EED9
S315080019D0100AB8EE400A9FED4B1A20EE080A80EE70
S315080019E0010A9FED491A38EE402A22EE012A82EEB4
S315080019F0000A80EE010A10EE100A0DF06DFB41ECAC
S31508001A00100B0CF091FB51EC100B9FED310B53ECC6
S31508001A10102B0CF043FF9FED300B53EC102B0CF002
S31508001A2089FE9FED2F0B02460B4651EC100B0CF06E
S31508001A3035FF9FED2D0B53EC102B0CF07BFE0CF0B5
S31508001A4047FE40F28074C2F20004E863204601F0C3
S31508001A5001FD47F2A856C1F6FF76708C31889FEDD6
S31508001A602B1A401A00EE100AB8EEC00A204681EE7C
S31508001A70008A01F0E1FA00EE100A3088B8EE400A52
S31508001A80BCEE001A9FED222A20EE010A01EE100A8A
S31508001A90B8EE411A20EE020A31EE000A28EE000AD4
S31508001AA0B3EE0E1A30EE010A95ED161A9FED192AB5
S31508001AB09FED193A21EE021A20EE030A31EE000ACA
S31508001AC085ED160A85ED0E0ABDEC028B70BD00BFCA
S31508001AD00000000000DCAE40000000E0E1796B3F4A
S31508001AE0000000000000F03F00000060661271C0B0
S31508001AF0083D534000F0FF456157803D000078429D
S31508001B000AD7A33B00F07F4700401C460000C8C226
S31508001B105BD38C3F6666663FCDCCCC3D00000000AB
S31508001B2010B540F21474C2F20004204601F092FC8B
S31508001B30204601F081FA00EE100A9FED531AB8EE1E
S31508001B40400A9FED522A20EE010A80EE020A9FED16
S31508001B50502A31EE401A21EE021A81EE000A80EE72
S31508001B60020A10EE100A0DF0B7FA41EC100B0CF051
S31508001B70DBFA51EC100B9FED3C0B53EC102B0CF0E1
S31508001B808DFE9FED3B0B53EC102B0CF0D3FD9FED18
S31508001B903A0B02460B4651EC100B0CF07FFE9FEDFC
S31508001BA0380B53EC102B0CF0C5FD0CF091FD9FED96
S31508001BB0391A00EE100AB4EE410AF1EE10FA01DA0B
S31508001BC0002049E0B4EE410AF1EE10FA2EDA9FED54
S31508001BD0321AB4EE410AF1EE10FA2BDA9FED2F1AFB
S31508001BE0B4EE410AF1EE10FA28DA9FED2D1AB4EE9A
S31508001BF0410AF1EE10FA25DA9FED2A1AB4EE410AE7
S31508001C00F1EE10FA22DA9FED281AB4EE410AF1EE47
S31508001C1010FA1FDA9FED251AB4EE410AF1EE10FA12
S31508001C20B8BF10BD4FF47A7016E000BF4FF4AF701E
S31508001C3012E000BF4FF4E1700EE000BF4FF41670DB
S31508001C400AE000BF4FF42F7006E000BF4FF448705B
S31508001C5002E000BF4FF4617040F65431C2F2000151
S31508001C600968C86310BD00BF0000000000DCAE4074
S31508001C70000000E0E1796B3F000000000000F03F43
S31508001C8000000060661271C0083D534000F07F47AF
S31508001C9000401C4600000C4200002042000034426E
S31508001CA00000484200005C42000070420000824288
S31508001CB0B0B540F24014C2F20004E07801280BD116
S31508001CC040F20040C4F6000020210022002501F061
S31508001CD0C5FFE570A570B0BDA078012818BFB0BDD6
S31508001CE040F20040C4F6000020210122012501F03F
S31508001CF0B5FFE570B0BD0000B0B540F24014C2F2C1
S31508001D000004E078012801D1A07878B1607801282C
S31508001D1018BFB0BD40F20040C4F6000020210122E1
S31508001D20012501F09BFFE570B0BD00BF40F2004001
S31508001D30C4F6000020210022002501F08FFFE5707F
S31508001D406570B0BDFEE7000040F2D800C2F20000A0
S31508001D5001F01CBD40F64C00C2F2000001F016BDB1
S31508001D6040F2EC70C2F2000001F010BD70470000AE
S31508001D70012001F089BE00002DE9F04140F240162D
S31508001D80C2F200063078012840F00F8640F60004BB
S31508001D900120C4F60004012501F058FE2046012161
S31508001DA001F04EFF002818BFBDE8F0812046022149
S31508001DB0757001F045FF012836D10FF66C400AF020
S31508001DC0FBFD40F2B017C2F2000740F20004397B6F
S31508001DD0C2F200042078002966D004286CD00128B5
S31508001DE040F0E185387B012840F0AC80787B0128FB
S31508001DF040F0388197ED010ABAEE041A30EE010A6E
S31508001E0087ED010A97ED010AB6EE001AB4EE410A0B
S31508001E10F1EE10FA80F2618397ED010AB2EE041A28
S31508001E2030EE010A57E300BF2046022101F008FF01
S31508001E30002840F0B8850FF6B0300AF0BDFD40F234
S31508001E40B014C2F2000440F20005217BC2F200057C
S31508001E50287829B90130C1B2042988BF0120287021
S31508001E60C0B2042848D0012840F09D85207B01286F
S31508001E7040F0B480607B012840F0488194ED010A67
S31508001E80B2EE041A30EE010A84ED010A94ED010A55
S31508001E909FEDD91AB4EE410AF1EE10FA40F3B58473
S31508001EA0BAEE040AAEE300BF0138010608BF0420F3
S31508001EB0207000F078BD00BF387B012868D1787B98
S31508001EC0012840F0E78096ED070ABAEE041A30EECC
S31508001ED0010A86ED070A96ED070A9FEDC81AB4EEC1
S31508001EE0410AF1EE10FA80F2508396ED070AB2EE37
S31508001EF0041A30EE010A46E3207B012840F08E8062
S31508001F00607B012840F01A8196ED070AB2EE041AA2
S31508001F1030EE010A86ED070AF0690DF0DDF89FED4F
S31508001F20B80B53EC102B0DF01EF9002840F0358540
S31508001F3096ED070ABAEE041A30EE010A86ED070A8C
S31508001F4000F02BBD387B022840F02D85787B0128D0
S31508001F5040F0348197ED020ABAEE041A30EE010A0F
S31508001F6087ED020AB8680DF0B7F89FEDA70B53EC9A
S31508001F70102B0DF0F1F8002840F0AF8297ED020A19
S31508001F80B2EE041A30EE010A87ED020AA5E200BF96
S31508001F90387B022840F09680787B012840F04881FB
S31508001FA096ED080ABAEE041A30EE010A86ED080A1A
S31508001FB0306A0DF091F89FED940B53EC102B0DF051
S31508001FC0CBF8002840F0E18296ED080AB2EE041A32
S31508001FD030EE010A86ED080AD7E200BF207B022808
S31508001FE040F0E184607B012840F0808194ED020A8C
S31508001FF0B2EE041A30EE010A84ED020AA0680DF06A
S315080020006BF89FED830B53EC102B0DF09EF8002810
S3150800201000F0FB83BAEE040A00F0F1BB207B02282D
S3150800202040F0AA80607B012840F0968196ED080A68
S31508002030B2EE041A30EE010A86ED080A96ED080A91
S31508002040B2EE051AB4EE410AF1EE10FA40F3A58491
S3150800205096ED080ABAEE041A30EE010A86ED080A69
S3150800206000F09BBC787B022840F0008197ED010ABE
S31508002070BFEE001A30EE010A87ED010A97ED011A44
S31508002080B6EE000AB4EE401AF1EE10FAB8BF87EDC4
S31508002090010A22E2787B022840F0088196ED070AB9
S315080020A0BFEE001A30EE010A86ED070A96ED071A0A
S315080020B09FED520AB4EE401AF1EE10FAB8BF86ED5B
S315080020C0070A62E2387B032840F06D84787B012892
S315080020D040F07C8196ED090ABAEE041A30EE010A40
S315080020E086ED090A96ED090AB6EE001AB4EE410A1B
S315080020F0F1EE10FA80F2498296ED090AB2EE041A58
S3150800210030EE010A86ED090A3FE200BF607B02282D
S3150800211040F0088194ED010AB7EE001A30EE010A84
S3150800212084ED010A94ED011A9FED330AB4EE401AC4
S31508002130F1EE10FAC8BF84ED010A66E3607B022857
S3150800214040F0228196ED070AB7EE001A30EE010A32
S3150800215086ED070AF0690CF0BFFF9FED290B53ECDB
S31508002160102B0CF0F2FF002800F017849FEDF10AFF
S3150800217086ED070A00F011BC207B032840F0138483
S31508002180607B012840F0468296ED090AB2EE041AF1
S3150800219030EE010A86ED090A96ED090A9FEDE61A60
S315080021A0B4EE410AF1EE10FA40F3F78396ED090A08
S315080021B0BAEE041A30EE010AEDE300BF787B022876
S315080021C040F01C8197ED020ABFEE001A30EE010AB4
S315080021D087ED020AB8680CF07FFF9FED0B0B53ECF6
S315080021E0102B0CF0C7FF002800F077819FEDEA0A54
S315080021F087ED020A71E100BF00004242000020425A
S315080022008FC2F5285CFF58407B14AE47E17A843FBD
S3150800221033333333333324409A9999999999B9BF0B
S315080022209A9999999999B93F7B14AE47E17A84BFEF
S31508002230787B022840F0068196ED080ABFEE001A60
S3150800224030EE010A86ED080A306A0CF045FF1FEDEC
S31508002250120B53EC102B0CF08DFF002800F0958123
S315080022609FEDCD0A86ED080A8FE100BF787B03282B
S3150800227040F00C8178680CF02FFF1FED190B53EC1A
S31508002280102B0CF057FA0CF023FA786097ED010A38
S31508002290B6EE001AB4EE410AF1EE10FA80F21D818C
S315080022A078680CF019FF1FED220B0CE1787B0328E8
S315080022B040F04481F0690CF00FFF1FED290B53EC39
S315080022C0102B0CF037FA0CF003FAF06196ED070ABA
S315080022D01FED361AB4EE410AF1EE10FA80F2558176
S315080022E0F0690CF0F9FE1FED320B44E1607B022821
S315080022F040F0548194ED020AB7EE001A30EE010A56
S3150800230084ED020AA0680CF0E7FE1FED3F0B53ECC4
S31508002310102B0CF01AFF002800F077829FEDED0ACB
S3150800232071E200BF607B032840F0548194ED010AF6
S315080023309FEDE91A30EE010A84ED010A94ED010ACF
S315080023401FED531AB4EE410AF1EE10FA40F35D821E
S315080023509FEDE20A56E100BF607B022840F07281D9
S3150800236096ED080AB7EE001A30EE010A86ED080A5D
S3150800237096ED081AB2EE050AB4EE401AF1EE10FA16
S31508002380C8BF86ED080A08E3607B032840F076811B
S31508002390F0690CF0A1FE1FED5E0B53EC102B0CF050
S315080023A0C9F90CF095F9F061F0690CF095FE1FED8E
S315080023B06C0B53EC102B0CF0D6FE002840F0ED8287
S315080023C0F0690CF089FE1FED6C0B78E1787B02282A
S315080023D040F0868196ED090ABFEE001A30EE010A32
S315080023E086ED090A96ED091AB6EE000AB4EE401A09
S315080023F0F1EE10FAB8BF86ED090AC6E0787B032825
S3150800240040F08E81B8680CF067FE1FED7D0B53EC2B
S31508002410102B0CF08FF90CF05BF9B860B8680CF06B
S315080024205BFE1FED870B53EC102B0CF095FE002876
S3150800243053D1B8680CF050FE1FED870B53EC102BE8
S3150800244091E100BF787B032840F09681306A0CF052
S3150800245043FE1FED8F0B53EC102B0CF06BF90CF0B1
S3150800246037F93062306A0CF037FE1FED990B53ECE2
S31508002470102B0CF071FE002840F08780306A0CF0B3
S315080024802BFE1FED990B53EC102B98E1787B042853
S3150800249023D178680CF020FE1FED9D0B53EC102B12
S315080024A00CF048F90CF014F9786097ED010AB6EECD
S315080024B0001AB4EE410AF1EE10FA0EDA78680CF05A
S315080024C00BFE1FEDAF0B53EC102B0CF033F90CF091
S315080024D0FFF800EE100A87ED010A787B002800F065
S315080024E062824FF07E50386097ED010A9FEDEB1A35
S315080024F09FEDEB2A20EE010A80EE020A9FEDE91A0B
S315080025009FEDE93A9FEDE94A20EE010ABDEEC00AC1
S3150800251084ED030A97ED020A20EE030A20EE040A68
S3150800252080EE020A20EE010ABDEEC00A84ED040A16
S3150800253039E200BFE1FAC74200004842787B042826
S3150800254023D1F0690CF0C8FD1FEDC90B53EC102B15
S315080025500CF0F0F80CF0BCF8F06196ED070A1FEDE8
S31508002560D91AB4EE410AF1EE10FA0EDAF0690CF057
S31508002570B3FD1FEDDB0B53EC102B0CF0DBF80CF066
S31508002580A7F800EE100A86ED070A787B00281CBF1C
S315080025904FF07E50386006E20AD7233C607B03285A
S315080025A040F0168194ED020A9FED4B1A30EE010AAF
S315080025B084ED020AA0680CF08FFD1FEDEB0B53ECBF
S315080025C0102B0CF0C2FD002800F01F819FED430A76
S315080025D015E100BF607B042840F0178194ED010ADD
S315080025E01FED131A30EE010A84ED010A94ED010A73
S315080025F09FEDEF1AB4EE410AF1EE10FA40F30581A9
S315080026009FEDEC0A94ED011A31EE000A84ED010AF9
S31508002610FBE000BF607B022840F0248196ED090AA2
S31508002620B7EE001A30EE010A86ED090A96ED091A88
S315080026301FED3F0AB4EE401AF1EE10FAC8BF86ED58
S31508002640090AAAE1607B032840F0328196ED080A60
S315080026509FEDED1A30EE010A86ED080A96ED080A96
S31508002660B2EE051AB4EE410AF1EE10FA40F395817E
S31508002670306A0CF031FD9FEDD40B32E1607B042803
S3150800268040F08B81F0690CF027FD9FEDCB0B53ECE6
S31508002690102B0CF04FF80CF01BF8F061F0690CF0F9
S315080026A01BFD9FEDCB0B53EC102B0CF05CFD0028AB
S315080026B040F07381F0690CF00FFD9FEDC10B53ECF0
S315080026C0102B0CF037F80CF003F800EE100A86ED24
S315080026D0070A62E19A992141CDCCCC3DCDCCCCBD3F
S315080026E0787B032840F00881706A0CF0F5FC9FEDB2
S315080026F0B60B53EC102B0CF01DF80BF0E9FF7062CB
S3150800270096ED090AB6EE001AB4EE410AF1EE10FA91
S31508002710BFF63BAF706A0CF0DFFC9FEDAF0B0AE12A
S31508002720787B04287FF4D9AEB8680CF0D5FC9FED09
S31508002730A40B53EC102B0BF0FDFF0BF0C9FFB86090
S31508002740B8680CF0C9FC9FED9C0B58EC105B2A4648
S3150800275043460CF001FD00287FF4BFAEB8680CF0C4
S31508002760BBFC2A4643460BF0E5FF0BF0B1FF00EE33
S31508002770100A87ED020AB0E6787B04287FF405AFD5
S31508002780306A0CF0A9FC9FED8E0B53EC102B0BF066
S31508002790D1FF0BF09DFF3062306A0CF09DFC9FED77
S315080027A0860B54EC105B2A4623460CF0D5FC002811
S315080027B07FF4EBAE306A0CF08FFC2A4623460BF00A
S315080027C0B9FF0BF085FF00EE100A86ED080ADCE675
S315080027D0607B042819D194ED020A9FED8C1A30EE1D
S315080027E0010A84ED020AA0680CF076FC9FED7C0BCA
S315080027F053EC102B0CF0B7FC38B99FED850A94ED15
S31508002800021A31EE000A84ED020A607B002800F005
S31508002810CA804FF07E50206094ED010A9FED7D1A24
S315080028209FED7D2A20EE010A80EE020A9FED7B1AB3
S315080028309FED7B3A9FED7B4A20EE010ABDEEC00A6A
S3150800284085ED030A94ED020A20EE030A20EE040A37
S3150800285080EE020A20EE010ABDEEC00A85ED040AE2
S31508002860A1E000BF607B032870D196ED090A9FEDB1
S31508002870661A30EE010A86ED090A96ED090A9FEDF9
S31508002880611AB4EE410AF1EE10FA40F38680706AD6
S315080028900CF022FC9FED4C0B75E000BF6157803DA4
S315080028A0083D534000F0FF450AD7A33B0000784295
S315080028B0607B042871D196ED080A9FED541A30EE14
S315080028C0010A86ED080A96ED080AB2EE051AB4EE74
S315080028D0410AF1EE10FA60DD306A0CF0FDFB9FED5F
S315080028E0380B53EC102B0BF025FF0BF0F1FE00EE26
S315080028F0100A86ED080A50E0787B04287FF445AE76
S31508002900706A0CF0E9FB9FED2E0B53EC102B0BF0C5
S3150800291011FF0BF0DDFE706296ED090AB6EE001A9D
S31508002920B4EE410AF1EE10FABFF62FAE706A0CF05B
S31508002930D3FB9FED210B53EC102B0BF0FBFE0BF09A
S31508002940C7FE00EE100A86ED090A1EE6607B04281B
S3150800295023D1706A0CF0C0FB9FED170B53EC102BBC
S315080029600BF0E8FE0BF0B4FE706296ED090A9FEDD7
S31508002970251AB4EE410AF1EE10FA0EDD706A0CF073
S31508002980ABFB9FED0F0B53EC102B0BF0D3FE0BF0AC
S315080029909FFE00EE100A86ED090A607B00281CBF20
S315080029A04FF07E50206000203070BDE8F08100BFF7
S315080029B0000042420AD723BC7B14AE47E17A843F23
S315080029C07B14AE47E17A84BF9A9999999999B9BFC8
S315080029D08FC2F5285CFF58409A9999999999B93FF9
S315080029E03333333333332440E7BC96E7A081E59984
S315080029F0A8E9A1BAE697B6E99288E6978BE8BDAC4E
S31508002A000D0A000000004842CDCCCC3D0AD7233C35
S31508002A100AD723BC6157803D083D534000F0FF4567
S31508002A200AD7A33B00007842E7BC96E7A081E59960
S31508002A30A8E98086E697B6E99288E6978BE8BDAC62
S31508002A400D0A0000EFF3108072B600BFFEE7000023
S31508002A5040F65431642828BF6420C2F2000100EB16
S31508002A60800009684000C86370470000B0B582B0AE
S31508002A7004460020019094F85800012802D102204B
S31508002A8002B0B0BD012084F8580020460D46FEF776
S31508002A9085FEE16D10B141F010014BE041F20212E2
S31508002AA091430231E16521684FF6C073D1F808C039
S31508002AB0C3F6FF7303EA0C0305F080454DF6016281
S31508002AC02B44C0F2040203F100438B608B68B3F118
S31508002AD0FF3F2BDC019B01330193019B93421DD8D9
S31508002AE08B68B3F1FF3F21DC019B01330193019B06
S31508002AF0934213D88B68B3F1FF3F17DC019B013370
S31508002B000193019B934209D88B68B3F1FF3F0DDC13
S31508002B10019B01330193019B9342D7D9E06D40F0A5
S31508002B20100020F00201012004E000BFE16D01223F
S31508002B3062F30101E165002184F8581002B0B0BDC6
S31508002B4090F85820012A04BF0220704770B582B059
S31508002B50002201920092026840F2080CC5F2000CAD
S31508002B60B2F1A04F0CF1F80508D040F20043C5F2C7
S31508002B7000039A4234D10CF59F6300E02B469B680C
S31508002B80946823435B072BD44FF4E063D1F800E045
S31508002B90AA4208BF4FF44073B2F1A04F08BF4FF4E2
S31508002BA040735CF80340BEF1000F24F4604425D05E
S31508002BB04D6890F8386042F4807245EA46352C43F1
S31508002BC040F20015C5F20005AA424CF8034027D189
S31508002BD0DCF80020DCF800412243D20748D129E07E
S31508002BE0C16D41F02001C1650121002280F85820FD
S31508002BF002B0BDE870400846704700BF42F48071D5
S31508002C0040F20012C5F2000291424CF803401BD173
S31508002C10DCF80010DCF800211143C90728D11DE0B3
S31508002C20DCF80044DCF80055DCF800262C43224387
S31508002C30D2071DD15CF8032040F61F748968A243A9
S31508002C40114341EA0E010EE0DCF80024DCF80065C9
S31508002C50DCF8001632431143C90709D15CF80310A2
S31508002C6040F61F7291434CF803100021BDE700BFE0
S31508002C700021BAE7F0B581B00022009290F85820FA
S31508002C80012A03D10221084601B0F0BD01230768D5
S31508002C9080F85830BB685B0734D4D1E900351F2665
S31508002CA0C5F3012407EB8404226B05F01F05AE402B
S31508002CB0C3F38463B243AB401A432263BA68BB6862
S31508002CC002F0040203F00803D21840F0BC800A6838
S31508002CD007F114030426C2F34064D1F808E006EAB3
S31508002CE0D25C53F82440C2F304550722AA40BEF129
S31508002CF0004F24EA02040BD143F80C401A6842F04C
S31508002D0000430DE0C16D41F02001C165012167E175
S31508002D100EFA05F2224343F80C201A6822F0004303
S31508002D207B61D1E90435FC68042B5FD13A6E3A6EB3
S31508002D300B68C2F3846293FAA3F6C3F3846C6FF349
S31508002D40DF43B6FA86F5002B2C464FF6FF7E08BF02
S31508002D506446A242C0F2070E0CD13A6E22F0004237
S31508002D603A660A6802EA0E03C2F3846C92FAA2F281
S31508002D70B2FA82F57A6E7A6E002BC2F384622C461A
S31508002D8008BF6446A2420CD17A6E22F000427A66E7
S31508002D900A6802EA0E03C2F3846C92FAA2F2B2FA45
S31508002DA082F5BA6EBA6E002BC2F384622C4608BF4F
S31508002DB06446A2420CD1BA6E22F00042BA660A688C
S31508002DC002EA0E03C2F3846C92FAA2F2B2FA82F510
S31508002DD0FA6EFA6E002BC2F3846208BF6546AA42F1
S31508002DE031D1FA6E22F00042FA662CE0062202EA97
S31508002DF0940205FA02FC0E6807F1600555F82340AF
S31508002E004FF20002C0F2FF3206F0F846224046EAC8
S31508002E100C06324342F0004245F823200A698B69C2
S31508002E2055F8226026F08076334345F822300A6941
S31508002E300B7F55F82260012B26F0007608BF06F1B5
S31508002E40007645F82260BA680D68D20750D1CA687C
S31508002E50D7F8B0602B466FF3DF4326EA030C4FF62C
S31508002E60FF7602F01804C0F20706E64000242E405A
S31508002E70C4F27F0446EA0C06A242C7F8B06037D10E
S31508002E8093B195FAA5F2B2FA82F2013202F01E0364
S31508002E90092B02F01F0310D801229A4003EB4303C3
S31508002EA042EA035315E000BF012202EB956202F0E5
S31508002EB01E030A2B02F01F03EED3012200269A40B6
S31508002EC003EB4303CFF6206606EB03531A4342F09F
S31508002ED00073C3F3406607EB86068A687569C3F311
S31508002EE0045307249C40A5439A402A4372610D68FF
S31508002EF00021C8F208010D4271D040F2001CC5F24B
S31508002F00000C4FF4C161674508BF4FF40271B7F171
S31508002F10A04F08BF4FF4027151F80C400022CCF2C2
S31508002F202132954204F0E07E04D01022C9F2C00294
S31508002F30954241D1220252D440F20062C5F2000203
S31508002F40974202D0B7F1A04F49D15CF8012022F090
S31508002F50E07242EA0E0242F400024CF8012040F206
S31508002F602C01C2F20001096842F663528909C0F2CF
S31508002F703E52A1FB0212910901EB41010C2202EB20
S31508002F8081010091009951B3009901390091009986
S31508002F9029B3009901390091009901B300990139C3
S31508002FA000910099D9B10099013900910099002939
S31508002FB04FF00001E8D113E00022CCF2527295429C
S31508002FC014D10022B2EB1E6F10D15CF8012022F05A
S31508002FD0E07242EA0E0242F080724CF801200021AB
S31508002FE0002280F85820084601B0F0BD0021CCF632
S31508002FF084318D424FF0000108BF14F48002EFD1EE
S31508003000B7F1A04F06D06745EAD0674502D00CF560
S31508003010C06101E00CF500718A6822F0E07242EAAC
S315080030200E0242F480028A60D9E700007047000069
S3150800303070470000704700000068006C7047000089
S31508003040B0B582B00446002001904CB1E06D58B18D
S3150800305021688868800012D48868C00019D54CE0B9
S31508003060012002B0B0BD00BF204600F027F90020BD
S31508003070206684F85800216888688000ECD588683E
S315080030804FF6C072C5F6FF72104088608868C000A7
S3150800309033D44FF6C0728868C5F6FF7202F18052C3
S315080030A0104000F18050886040F22C00C2F2000007
S315080030B0006842F663528009C0F23E52A0FB020243
S315080030C09009022202EB400001900198A8B100BFC6
S315080030D0019801380190019878B10198013801905A
S315080030E0019850B1019801380190019828B10198CA
S315080030F00138019001980028EAD18868C00009D4EF
S31508003100E06D40F01000E065206E40F0010020669A
S31508003110012000E000208A68E36D02F0040203F053
S315080031201003D218E26D40F0818022F481720232D7
S31508003130E2658A68D20729D140F2001341F4807209
S31508003140C5F2000340F2080C9A42C5F2000C73D18E
S31508003150DCF80030DCF800211A43D20716D10CF14E
S31508003160F8024FF4E063D4F804E0914208BF4FF444
S315080031704073B1F1A04F08BF4FF440735CF80320C9
S3150800318022F47C1242EA0E024CF8032094F81DE061
S31508003190E36BD4E902C243EA4E331A4394F8243067
S315080031A042EA0C02012B42EA034207D1D4F828C0AE
S315080031B00023CFF6FE7303EB4C431A43E36A33B19D
S315080031C0D4F830C003F4787343EA0C031A43D1F8F1
S315080031D00CC044F20703CFF6F07303EA0C031A4354
S315080031E0CA600A69636B22F040621A430A618A68F8
S315080031F0120752D494F83820237F520042EA833CBF
S31508003200CB6844F2020223EA020242EA0C02CA60CE
S3150800321022690B69F2B143F480330B61D1F8C0C05F
S3150800322043F6FF732CEA03031A431BE042F010012E
S315080032300120E16502B0B0BDDCF800E4DCF8002549
S31508003240DCF8003642EA0E021A43D2073FF487AF8B
S315080032509CE700BF23F480320A61D1F8C02043F608
S31508003260FF739A43C1F8C02094F840300A69012BCD
S3150800327010D140F2FD7322EA030CD4E91132D4E9E5
S3150800328013E543EA0C031A4342EA0E022A4342F0C4
S31508003290010201E022F001020A6162690B6B012A50
S315080032A023F00F0202D1236A013B1A430A63E16D38
S315080032B0012262F30101E16502B0B0BDF0B59BB031
S315080032C0044600201A90CDE91800CDE9160001A899
S315080032D05421FDF74AF9206840F20061C5F2000161
S315080032E0884263D040F20011C5F20001884279D0C5
S315080032F0B0F1A04F74D14FF4004001904FF0005048
S31508003300129001A802F086F8002818BFFFF79AFB6A
S3150800331040F2D405C2F20005296841F24C00C4F215
S3150800332002004A1C2A6041B9016841F40051016053
S31508003330016801F40051009100990168002641F0E6
S3150800334001010160006816A900F0010000900098CC
S315080033500F201690032017904FF09040189600F013
S315080033609FFB0821C4F20201284640F8041F0521E4
S3150800337080224FF480734FF40057C0E9011600F11C
S3150800338014014FF4806C4FF0200EC0E9036281E807
S315080033900850076200F050FA002818BFFFF752FBE2
S315080033A0281D6065EC621BB0F0BD00BF4FF480308D
S315080033B001904FF00040139001A802F02BF8002866
S315080033C018BFFFF73FFB41F24C00C4F20200016848
S315080033D041F480410160006800F480400090009844
S315080033E01BB0F0BD4FF4004001904FF00050129012
S315080033F001A802F00FF8002818BFFFF723FB40F2D8
S31508003400D401C2F200010A6841F24C00C4F202007B
S31508003410531C0B6042B9016841F400510160016810
S3150800342001F4005100910099016841F00101016021
S31508003430006816A900F00100009000981020169068
S3150800344003201790002018904FF0904000F028FBBA
S315080034501BB0F0BD70B540F200450446C5F2000544
S315080034600068A5F540714FF44272884208BF6FF0B4
S31508003470F702B0F1A04F08BF6FF0F70256598068FF
S31508003480400703D494F85800012801D1022070BDE2
S31508003490012084F858002046FEF7BEF920B1002026
S315080034A084F85800012070BD2068E16D40F601726D
S315080034B0914340F20012C5F2000240F2005C06F0A9
S315080034C01F0301F580719042C5F2000CE16503D037
S315080034D0604507D1294601E04FF0A041814218BF57
S315080034E0002B03D1E16D21F48011E165E16D002621
S315080034F0C9044FF0000144BF216E21F00601216680
S315080035001C219042016084F8586005D060450FD1AF
S315080035102946814204D10BE04FF0A041814207D0F1
S31508003520092B17D80121994040F22123194211D0BD
S31508003530C168890104D5E16D012262F30D31E165A7
S3150800354081684FF6C072C7F6FF7211400431816078
S31508003550002070BDE16D904241F48011E16503D011
S31508003560604508BF284601E04FF0A040C0688001CA
S315080035705CBF002070BDE06D012161F30D30E06590
S31508003580002070BD2DE9F041044640F2001700689E
S31508003590C5F200074FF4C163B84208BF4FF402737F
S315080035A0B0F1A04F08BF4FF40273DB598668904606
S315080035B0720704D40E4694F85810012902D1022045
S315080035C0BDE8F08107F5A06203F01F0501219042CE
S315080035D084F8581018BF002D16D12046FEF71CF99E
S315080035E0B0B92168E06D40F60172904300F580702D
S315080035F0B942E06512D040F20050C5F2000081429F
S3150800360012D107F540700BE0052DE6D0092DE4D060
S31508003610002084F858000120BDE8F0814FF0A04052
S31508003620884218BF002D03D1E06D20F48010E065B4
S31508003630E06D41F21973C0044FF0000044BF206EDC
S3150800364020F006002066606D41F29577C0F600030B
S31508003650C0F6000741F27D750022C0F60005C0E9F4
S315080036600B371C2345630B6084F858204A68434689
S3150800367042F010024A60CA6842F00102CA6040314C
S31508003680324600F06FF921684FF6C0738A68C7F6AC
S31508003690FF731A4004328A60BDE8F081014690F84B
S315080036A02500022828D180B50868D1E910CE8A6C91
S315080036B0036823F00E030360136823F48073136012
S315080036C0026822F0010202600EF01F00012202FACF
S315080036D000F0CCF80400D1E913205060486D30B1F1
S315080036E0026822F480720260D1E916024260002064
S315080036F0BDE8804003E000BF0420C8630120012222
S3150800370081F82520002281F82420704790F825109A
S31508003710022931D180B50168D0E910CE826C0B68D8
S3150800372023F00E030B600B6823F001030B6011688E
S3150800373021F4807111600EF01F02012101FA02F2D4
S31508003740CCF80420D0E913325A60426D32B11368BE
S3150800375023F480731360D0E91623536080F825108C
S31508003760826B002180F824100AB190470021BDE839
S3150800377080400846704700BF0421C163012100222A
S3150800378080F8251080F8242008467047B0B5D0E99F
S3150800379010C30268DCF8001003F01F030424D2F8F3
S315080037A000E09C400C4218BF1EF0040522D10224FA
S315080037B09C400C4218BF1EF0020529D1D9400907C2
S315080037C024D51EF0080108BFB0BD116821F00E010E
S315080037D01160012101FA03F2CCF80420C16380F8D4
S315080037E02510416B002280F8242079B1BDE8B0404D
S315080037F0084700BF1168890603D4116821F004013F
S315080038001160CCF80440016B0029EFD1B0BD00BFB0
S315080038101168890606D4116821F00A011160012190
S3150800382080F82510CCF80440C16A0022002980F8E7
S315080038302420DBD1EAE7000000284FF0010100F060
S315080038408E802DE9F04740F2000CC4F2020C0368A2
S315080038504FF6F8320CF5816ECBF6FD72734538BF1C
S3150800386002F580624CF6CD441A44CCF6CC44A2FB51
S31508003870042803F0FC02A2F10802A2FB04290CF5B5
S3150800388080656FF00304D0E90262D0F810A03CBF4F
S315080038900025C4F2020504EA9804C0E9105402257A
S315080038A080F825501D6847F6F07725EA07073A435A
S315080038B0476942EA0A0285693A43C7692A43056A9B
S315080038C03A432A4332431A600CF50262734538BFFD
S315080038D00CF50062A3180CF50862C264C9F3041259
S315080038E040F6840C01FA02F2B6F5804FC4F2020CD7
S315080038F08364026506D1002141601960CCF8002076
S315080039001EE000BF41685FFA81FE013903294FF0C6
S315080039100001C3F800E0CCF8002011D8AEF101028E
S315080039200CEB820747F87C1F02F01F01012202FAFE
S3150800393001F30CF1BC023946CCF8C03002E000BFF6
S315080039400022002300F1540C8CE80E00002101220D
S31508003950C16380F8252080F82410BDE8F0470846A2
S315080039607047000090F824C0BCF1010F47D04FF013
S31508003970010C80F824C090F825C0BCF1010F3BD19A
S315080039802DE9F0414FF0020C80F825C04FF0000CED
S31508003990C0F83CC0D0F800C000F14C0E9EE830409C
S315080039A0DCF80060BEF1000F26F00106CCF80060D6
S315080039B065601CBFD0E916456560D0E91056012739
S315080039C006F01F06846807FA06F6D0F830806E609F
S315080039D0CCF804300B46102C04BF13460A46CCF824
S315080039E00830CCF80C20DCF80010B8F1000F09D02C
S315080039F041F00E010EE000BF002180F824100220DD
S31508003A00704700BF21F00401CCF80010DCF8001064
S31508003A1041F00A01CCF80010806C0168C90303D58F
S31508003A20016841F480710160BEF1000F05D0DEF82F
S31508003A30000040F48070CEF80000DCF8000040F08A
S31508003A400100CCF800000020BDE8F081B0B50446BE
S31508003A5000F00AF9054640F22400C2F20000406868
S31508003A60611C18BF044400BF00F0FEF8401BA042CA
S31508003A70FAD3B0BD012818BF704740F24010C2F211
S31508003A80000001210170704740F21441C4F201019F
S31508003A900A68024214BF08607047FFF7EBBF0000D0
S31508003AA02DE9F04F82B00D68002D00F0C58000F1B9
S31508003AB03847860546EA972741F20046C4F60006C7
S31508003AC0062240F2004EB04208BF0522C4F2010E9B
S31508003AD0052F38BF3A464FF0000C01240027002670
S31508003AE0009209E00D68013635FA06F207F1020779
S31508003AF00CF1040C00F0A08004FA06FB15EA0B088A
S31508003B00F0D0D1F804A003230AF003056A1EBB40CF
S31508003B10012A6FEA03090FD88268CB6802EA09020C
S31508003B20BB401A4382604268CAF3001322EA0B02BA
S31508003B30B3401A43426003E0032D01D103251FE079
S31508003B40C2688B6802EA0902BB401A43022DC260AA
S31508003B5016D16FF0030202EA560202440CF01C0565
S31508003B600F23D2F820A003FA05FB0B692AEA0B0AF1
S31508003B70AB4043EA0A031362D1F804A00AF003052E
S31508003B80026805FA07F302EA09021A431AF4403FE3
S31508003B900260A7D041F26003C4F202031A684FF626
S31508003BA0084A42F001021A601A68CFF6FF7A02F054
S31508003BB001020192019A26F00302724452F80A9011
S31508003BC00CF00C050F23009CAB4029EA030304FA0A
S31508003BD005F52B4342F80A30DEF808204B6842EA1E
S31508003BE0080540F20C49DC0258BF22EA0805CEF85F
S31508003BF00850C4F20109D9F800209D0242EA0804D7
S31508003C0058BF22EA0804C9F80040DEF804209D03DC
S31508003C1042EA080458BF22EA0804CEF80440DEF84F
S31508003C200020DB0342EA080458BF22EA0804CEF85B
S31508003C300040012456E700BF02B0BDE8F08F00003F
S31508003C400069084018BF012070470000426902EA6F
S31508003C500103914341EA0341816170471823002A11
S31508003C6008BF2823C150704740F63440C2F200000E
S31508003C700068704790F8DD30022B03D14FF0020C34
S31508003C806046704790F8DC304FF0020C012B01D1EA
S31508003C906046704701237F2980F8DC3080F8DDC054
S31508003CA000F32C8001393F2900F27E80DFE801F01D
S31508003CB020347C3A7C7C7C407C7C7C7C7C7C7C468E
S31508003CC07C7C7C7C7C7C7C7C7C7C7C7C7C7C7C544E
S31508003CD07C7C7C7C7C7C7C7C7C7C7C7C7C7C7C7C16
S31508003CE07C7C7C7C7C7C7C7C7C7C7C7C7C7C7C5A28
S31508003CF00168D1F8003462F3040324E0802937D040
S31508003D00B1F5807F3AD0B1F5007F4DD10168D1F881
S31508003D10043462F31C6336E00168D1F8003462F3B8
S31508003D208A1310E00168D1F8003462F310330AE010
S31508003D300168D1F8003462F3964304E00168D1F8CB
S31508003D40003462F31C63C1F8003490F8DD104FF0BC
S31508003D50010C072920D19BE70168D1F8043462F3E6
S31508003D60040310E00168D1F8043462F38A130AE008
S31508003D700168D1F8043462F3103304E00168D1F81D
S31508003D80043462F39643C1F8043490F8DD104FF01A
S31508003D90010C07293FF47CAF80F8DDC04FF0000C1A
S31508003DA080F8DCC060467047072180F8DD100021E6
S31508003DB080F8DC1090F8DD104FF0010C0729EBD1E4
S31508003DC066E7000090F8DD30022B03D1022318467F
S31508003DD0704700BF90F8DC30012B4FF0020301D189
S31508003DE018467047B0B5012480F8DC4080F8DD300D
S31508003DF003687F29D3F880C3D3F8FCE300F3528025
S31508003E004C1E3F2C00F21E81DFE814F040007000C3
S31508003E101C017C001C011C011C0188001C011C01E2
S31508003E201C011C011C011C011C0194001C011C0125
S31508003E301C011C011C011C011C011C011C011C018C
S31508003E401C011C011C011C011C01AE001C011C01EB
S31508003E501C011C011C011C011C011C011C011C016C
S31508003E601C011C011C011C011C011C011C011C015C
S31508003E701C011C011C011C011C011C011C011C014C
S31508003E801C011C011C011C011C01C6005488526837
S31508003E9064F3124CC3F8BC2390F8DD20072A40F0DF
S31508003EA0C180D9E0802900F08F80B1F5807F00F0CD
S31508003EB0A380B1F5007F40F0C5805488D3F8F85345
S31508003EC064F3165E25F0F844C3F8F8435268D3F84D
S31508003ED0F84302F01F0244EA8262C3F8F82390F816
S31508003EE0DD20072A40F09E80B6E000BF548852685D
S31508003EF064F3D54CC3F8C02390F8DD20072A40F0B8
S31508003F009180A9E05488526864F3985CC3F8C42386
S31508003F1090F8DD20072A40F085809DE05488526895
S31508003F2064F35B6CC3F8C82390F8DD20072A79D1BF
S31508003F3092E000BF4FEADE05B2F802E0D3F8F84394
S31508003F4065F3DF0E24F01F04C3F8F8435268D3F86C
S31508003F50F84302F01F022243C3F8F82390F8DD2045
S31508003F60072A5FD178E000BF5488D3F8F85364F382
S31508003F70061E25F47874C3F8F8435268D3F8F84354
S31508003F8002F01F0244EA4212C3F8F82390F8DD2033
S31508003F90072A47D160E000BF5488D3F8F85364F382
S31508003FA00A2E25F4F844C3F8F8435268D3F8F843C0
S31508003FB002F01F0244EA8222C3F8F82390F8DD20B3
S31508003FC0072A2FD148E000BF5488D3F8F85364F382
S31508003FD00E3E25F4F814C3F8F8435268D3F8F843AC
S31508003FE002F01F0244EA0242C3F8F82390F8DD20E3
S31508003FF0072A17D130E000BF5488D3F8F85364F382
S31508004000124E25F07874C3F8F8435268D3F8F8438B
S3150800401002F01F0244EA4252C3F8F82390F8DD2062
S31508004020072A19D00F298CBFC3F8FCE3C3F880C34D
S315080040300121002380F8DD1080F8DC30BDE8B040AF
S3150800404018467047072280F8DD20002280F8DC2019
S3150800405090F8DD20072AE5D10123BDE8B0401846CF
S315080040607047000070470000704700007047000066
S315080040707047000070470000704700007047000056
S31508004080704700007047000090F8DC20012A4FF0C6
S31508004090020221D0012380F8DC3080F8DD20026896
S315080040A04B1CD2F8CCC309D04CF00203C2F8CC336F
S315080040B0D2F8CC3323F00C03194301E02CF00201AB
S315080040C0C2F8CC13D2F8CC1341F00101C2F8CC13D4
S315080040D00121002280F8DD101046704790F8DD3087
S315080040E0022B04BF0220704790F8DC30012B4FF0FA
S315080040F002033DD070B580F8DD30D2E900C3D2E9BD
S3150800410002E60CF4E0546FF35F23156923440EF4BA
S315080041100074234405F480452B4406F400463344D2
S3150800412056690025C0F2FF1505EA06469569334427
S3150800413005F00076156A334405F08046D2693343A4
S31508004140066802F0004206EBC1111A43D1F8B830EE
S3150800415042F20006C3F6004633401A43C1F8B820B7
S315080041600121002380F8DD1080F8DC30BDE87040BE
S3150800417018467047704700007047000070470000F7
S315080041807047000070470000704700007047000045
S315080041902DE9F0410629044610D00D46FF293DD1E8
S315080041A02068D0F88863D0F89053F10718BF15F047
S315080041B0010145D1B0074BD454E000BF2068D0F8C0
S315080041C08853D0F890734668D0F80C80E9030FD569
S315080041D017F480310CD04FF48031C0F88C130120CD
S315080041E084F8DD00002084F8DC002046FFF74AFF4B
S315080041F0A8030AD517F4003007D020684FF4003119
S31508004200C0F88C132046FFF72DFFF00718BF18F0EB
S31508004210010067D1B0076ED477E000BF206800EBD5
S31508004220C510D0F88470D0F88C60F90718BF16F05E
S31508004230010140F0A980B80700F1AF80BAE000BFDD
S315080042400121C0F88C132046FFF796FFB00709D561
S3150800425015F0020006D020680221C0F88C1320460B
S31508004260FFF78CFF700709D515F0040006D0206803
S315080042700421C0F88C132046FFF782FF300709D5C2
S3150800428015F0080006D020680821C0F88C132046CF
S31508004290FFF778FFF00609D515F0100006D020685C
S315080042A01021C0F88C132046FFF76EFF700609D55B
S315080042B015F0400006D020684021C0F88C1320462F
S315080042C0FFF764FFB00640F1358115F0200000F0D5
S315080042D03181216820222046C1F88C23BDE8F041AF
S315080042E000F00CBA20680121816020460621FFF7FC
S315080042F0BFFEB00709D518F0020006D020680221D3
S31508004300816020460621FFF7B5FE700709D518F02B
S31508004310040006D020680421816020460621FFF7A4
S31508004320ABFE300709D518F0080006D0206808212A
S31508004330816020460621FFF7A1FEF00609D518F090
S31508004340100006D02068102181602046062100F062
S31508004350D1F9B00608D518F0200005D0206820212C
S315080043608160204600F0C8F9700640F1E38018F035
S31508004370400000F0DF802268402320460621936033
S31508004380BDE8F04100F0B4B90121C0F88810204614
S315080043902946FFF76DFEB8070CD516F0020009D0BE
S315080043A02068022100EBC510C0F88810204629466F
S315080043B0FFF760FE78070CD516F0040009D02068D0
S315080043C0042100EBC510C0F8881020462946FFF7DF
S315080043D053FE38070CD516F0080009D020680821C6
S315080043E000EBC510C0F8881020462946FFF746FEA0
S315080043F0F8060CD516F0100009D02068102100EB3D
S31508004400C510C0F888102046294600F073F97806CA
S315080044100CD516F0400009D02068402100EBC510E5
S31508004420C0F888102046294600F062F938060CD5EF
S3150800443016F0800009D02068802100EBC510C0F86E
S31508004440881020462946FFF70FFEF8050DD516F405
S3150800445080700AD020684FF4807100EBC510C0F850
S31508004460881020462946FFF701FEB8050DD516F433
S3150800447000700AD020684FF4007100EBC510C0F830
S3150800448088102046294600F0F3F878050DD516F46D
S3150800449080600AD020684FF4806100EBC510C0F830
S315080044A088102046294600F0E1F838050DD516F49F
S315080044B000600AD020684FF4006100EBC510C0F810
S315080044C088102046294600F0D7F8F8040DD516F4CA
S315080044D080500AD020684FF4805100EBC510C0F810
S315080044E088102046294600F0C5F8B8040DD516F4FC
S315080044F000500AD020684FF4005100EBC510C0F8F0
S31508004500881020462946FFF7BBFD780458BFBDE84A
S31508004510F08116F480400DD020684FF4804300EBFC
S31508004520C51220462946C2F88830BDE8F041FFF793
S3150800453021BE00BFBDE8F081002804BF01207047F6
S3150800454010B582B00446022084F8DD00207AC00740
S315080045504FF00000C4E93800C4E93A00C4E93C0059
S31508004560C4F8F8001FD0206846F60001C4F201011D
S3150800457088420CD141F26001C4F202010A6842F095
S3150800458080620A60096801F08061019101990168F9
S31508004590D4E9042321F4704102F44042114403F49F
S315080045A0405211440160204600F03EF8207A800708
S315080045B006D52068E1680268090A61F309220260E3
S315080045C0012084F8DD00002084F8DC00C4F8D80057
S315080045D0C4E90600C4E90800A062C4E90C00C4E9FD
S315080045E00E00C4E91000C4E91300C4E91500C4E9C3
S315080045F01700C4E91A00C4E91C00C4E91E00C4E98E
S315080046002100C4E92300C4E92500C4E92800C4E957
S315080046102A00C4E92C00C4E92F00C4E93100C4E922
S31508004620330002B010BD0000006846F60001C4F26F
S315080046300101884218BF704780B582B041F2600018
S31508004640C4F202000168002241F08061016000683E
S31508004650012100F0806001900198472000F000FEDB
S31508004660472002B0BDE8804000F0E8BD7047000072
S3150800467070470000704700007047000070B50D468F
S315080046800446FFF7F1FA2168D1F88823D2031FD42C
S3150800469035B30646681C11D1D1F88803C00317D470
S315080046A0D1F88803C0035CBFD1F888035FEAC0303D
S315080046B00ED4D1F88803C003EED509E0FFF7D4FA83
S315080046C0801BA8420ED82068D0F88803C003F5D509
S315080046D0012084F8DD00002084F8DC0070BD00BFEE
S315080046E0FFF7C2FA072084F8DD00032070BD00003A
S315080046F070470000704700007047000070470000D0
S3150800470090F8DD30022B4FF0020331D010B580F857
S31508004710DD300368062911D11968D2E900CED2E93D
S31508004720024221F01F0124F01804214311431960A5
S31508004730C3F814C0C3F818E014E000BF03EBC111B6
S31508004740D1F88030D2E900ECD2E9024223F01F0307
S3150800475024F0180423431A43C1F88020C1F894E0D2
S31508004760C1F898C00121002380F8DD10BDE810408B
S315080047701846704790F8DDC0BCF1020F04D14FF01F
S31508004780020C6046704700BF90F8DCC0BCF1010F10
S315080047904FF0020C02D16046704700BF10B54FF0CB
S315080047A0010E062980F8DCE080F8DDC012D1511E22
S315080047B007292DD80FF20402DFE801F004222A3671
S315080047C02A2A2A3E19680268D16190F8DD1007295D
S315080047D039D095E0A2F1010CBCF1070F54D80FF2BD
S315080047E00602DFE80CF0053751595151516100BFF7
S315080047F002681B6802EBC111C1F89C3075E000BF66
S3150800480019680268516290F8DD1007291BD077E015
S31508004810072180F8DD10002180F8DC1090F8DD1003
S31508004820072910D06CE000BF19680268916290F8F9
S31508004830DD10072907D063E019680268D16290F88D
S31508004840DD1007295CD14FF0010CBDE81040604629
S31508004850704700BFD0F800C0D3E900E40CEBC11CD8
S31508004860CCF8A4E0614651F8802F22F440520A6041
S31508004870DCB30A68B4F5405F42EA04020A6031D044
S31508004880B4F5005F29D030E0072180F8DD1000215B
S3150800489080F8DC1029E000BF02681B6802EBC11132
S315080048A0C1F8A83021E000BFD0F800C0D3E9004223
S315080048B00CEBC11CCCF8AC40614651F8804F24F48F
S315080048C040440C608AB10C68B2F5405F44EA820441
S315080048D00C6007D0B2F5005F07D19968CCF89C1038
S315080048E003E000BF9968CCF8A81090F8DD100729F6
S315080048F006D14FF0010CBDE810406046704700BF76
S3150800490001214FF0000C80F8DD1080F8DCC0BDE80E
S31508004910104060467047000090F8DC20012A4FF0EE
S3150800492002020BD080F8DD20026813681943116073
S315080049300121002280F8DD1080F8DC20104670473F
S31508004940B0B5044690F8DD00022804BF0220B0BDC9
S3150800495094F8DC0001284FF0020008BFB0BD01251D
S3150800496084F8DC5084F8DD00204603F0E1F90020E5
S3150800497084F8DD5084F8DC00B0BD000090F8DC2037
S31508004980012A4FF002020DD080F8DD200268D2F825
S3150800499094331943C2F894130121002280F8DD10DC
S315080049A080F8DC201046704790F8DC20012A4FF08A
S315080049B002020DD080F8DD200268D2F89833194338
S315080049C0C2F898130121002280F8DD1080F8DC2057
S315080049D01046704790F8DD30022B04BF022070475E
S315080049E090F8DC30012B4FF0020300F034812DE9FA
S315080049F0F04F8EB0012780F8DC7080F8DD30D0F8F3
S31508004A000090062909EBC11C62D0E6465EF8803F95
S31508004A10644623F07043CEF80030DEF8003054F8D0
S31508004A20E85F23F020030B950D94644654F8E46F71
S31508004A300C94D9F8A0535469202C44EA030709D0EA
S31508004A409469042C00F00A81032C00F00B81022CD7
S31508004A5040F00C8127F4D07303F12007D369D2E91B
S31508004A6011A40093136AD2F82CB00193536A0493E5
S31508004A70936A0593536B0693D2E90E830A93136CD4
S31508004A800993936D089344F48053B3F5F05F136D5F
S31508004A90079326F480734AEA030A02D1B8F1400F55
S31508004AA003D12AF4F05343EA040AD36C0529039385
S31508004AB0536D02934CD875A353F821302E46156BC7
S31508004AC04C1C334005FA04F444EA030641E000BFEF
S31508004AD0D9F80060D9F8A0E3556926F0E00625F074
S31508004AE0C004202D46EA040609D09569042D00F075
S31508004AF0C180032D00F0C280022D40F0C38046F02D
S31508004B0020064FF2FF35C3F2FF15D2E907472E40BC
S31508004B1005F50065D2E909382C40344327F06E457F
S31508004B202C4323F06843234328F06044D2F82CB082
S31508004B30234343EA8B03546B23F000532343146B3C
S31508004B402EF480372743C9F80030C9F8A07350E01F
S31508004B502E464FF2FF33C0F2FF13009D07EA030407
S31508004B6003F500632B402343019C049DA4B2234311
S31508004B704FF6BF74C0F2006425402B43059D04F12F
S31508004B8000642C4023434FF6BF7443EA0B03CFF669
S31508004B9000642340069CB4F1005F4FF6FF74CFF61D
S31508004BA0026408BF03F5003308EA04052B43089D91
S31508004BB004F580242C402343079C2343CEF8003079
S31508004BC04FF6C0730B9FC7F6FF733B400A9F07F06B
S31508004BD03F073B44099F3B430D9F3B60039F2AF4D5
S31508004BE080433B430C9F3B60029BCCF8D430C9F80A
S31508004BF0A063C1EBC103D2E9007500EB8303D2E9D8
S31508004C000246C3E9087517690629C3E90A461F63F8
S31508004C100AD84FF28433C0F6000353F82130D9F886
S31508004C2084733B43C9F8843306290BD0BBF1000FC4
S31508004C3008D1DCF88010D26D21F4007141EA4221D6
S31508004C40CCF880100121002380F8DD1080F8DC30D4
S31508004C500EB0BDE8F04F1846704700BF022363F355
S31508004C60C817FBE6012363F3C817F7E627F4D077DE
S31508004C70F4E600BF46F0800643E700BF46F040066C
S31508004C803FE700BF26F0E0063BE700BFFFFFFDFF5A
S31508004C90FFFFFBFFFFFFF7FFFFFFEFFFFFFFDFFF52
S31508004CA0FFFFBFFF90F8DD30022B04BF02207047DC
S31508004CB090F8DC30012B4FF0020341D02DE9F0418A
S31508004CC080F8DD30D0F800C04FF6EF740CEBC11E4B
S31508004CD05EF8EC3FCFF6EC7492E8600123400134AD
S31508004CE0D76804EA0514234326F44034234327F4FB
S31508004CF0003495692343012D43EA080309D1D2E913
S31508004D00042423F0060322F002021A43224342F047
S31508004D1001030629CEF800300AD84FF28432C0F6CD
S31508004D20000252F82110DCF884231143CCF88413CE
S31508004D300121002380F8DD1080F8DC30BDE8F04161
S31508004D401846704790F84120202A03D190F8402051
S31508004D50012A01D102207047242280F841200268E6
S31508004D60136823F001031360136823F48053136058
S31508004D70136819431160116841F00101116020217F
S31508004D8080F84110002180F840100846704700005E
S31508004D9090F84120202A03D190F84020012A01D119
S31508004DA002207047242280F841200268136823F005
S31508004DB001031360136823F4706343EA0121116049
S31508004DC0116841F001011160202180F8411000218D
S31508004DD080F8401008467047002804BF0120704735
S31508004DE010B5044690F8410028B9002084F8400020
S31508004DF0204600F02BF9242084F8410094E8091095
S31508004E00E2680168012A21F00101016023F070615E
S31508004E100161816821F40041816003D14CF40041AD
S31508004E20816009E04CF40441022A816004D141689A
S31508004E3041F4006103E000BF416821F4006141606C
S31508004E40416804F1100C41F0007141F400414160E1
S31508004E50C16821F40041C1609CE80E10114341EA83
S31508004E600321C160216A41EA0C010160016841F031
S31508004E700101016000202021606484F8411020634C
S31508004E8084F8420010BD00002DE9F04782B00446C0
S31508004E9090F84100202803D194F84000012803D156
S31508004EA0022002B0BDE8F08701201D461746884655
S31508004EB084F84000FEF7D8FE216806468A6912047F
S31508004EC017D4212084F84100102084F842000020DD
S31508004ED06064676265856063608DB0F5807F23D303
S31508004EE0FF2020854FF0807225E000BF8869000406
S31508004EF0E7D520461921324602F098FF002840F0EF
S31508004F008580FEF7B1FE801B21681A28EED38869D2
S31508004F100004EBD5606C40F020006064202084F823
S31508004F204100012083E000BF608D0028208500F045
S31508004F3087804FF0007217F8013B8B626762638DBA
S31508004F40013B6385431E238543466FF39F23C0B207
S31508004F5043EA0040104349F60045CFF600454A6843
S31508004F60A5F580631A40104340F400504860608DF0
S31508004F700A9F002844D040F2000A6FF39F284FF09A
S31508004F80FF09C0F2FF1A10E0618D2068218550F8EC
S31508004F90042FC9B22A4042EA01414FF0007241EAA1
S31508004FA0080111430160608D50B3204639463246E8
S31508004FB003F09AF850BB606A216810F8012B8A62E0
S31508004FC06062608D01386085208D01382085618D8D
S31508004FD00029E8D00004E6D12046802100223B467D
S31508004FE0009602F0D1FF88B9608DB0F5807FCBD3EB
S31508004FF02068A4F8289050F8041F52462940CEE7A6
S3150800500020463946324603F031F818B1012002B07D
S31508005010BDE8F08720682021C16142684EF600038A
S31508005020CFF600631A404260002084F84110002140
S3150800503084F8421084F8401002B0BDE8F08700BF3B
S315080050404FF40042404662F39F2084E72DE9F0437F
S315080050509BB0044601A804305021FBF786FA206865
S3150800506047F60001C4F20001884203D01BB0BDE830
S31508005070F08300BF4FF4807801A8CDF8048000F0D3
S31508005080C9F9002818BFFDF7DDFC41F24C06C4F249
S315080050900206306816AC40F00400306030684FF005
S315080050A0120900F00400169016983068012540F0A1
S315080050B0010030603068032700F00100169016984A
S315080050C04FF40070169008201A9040F60000C4F6B7
S315080050D000002146CDF85C9018951997FEF7E0FC7C
S315080050E002201A904FF090402146CDE91689CDE965
S315080050F01857FEF7D5FCF06840F08040F060F0687D
S3150800510000F08040009000981BB0BDE8F0830000D6
S31508005110002804BF01207047B0B504460068D4E9EA
S3150800512001124CF6CC43036045F2555303604160C7
S315080051308260FEF799FD2168CA68520710D00546B5
S3150800514003E000BFC86840070AD0FEF78DFD401B84
S3150800515021683228F6D3C8684007F3D00320B0BDCB
S315080051600A69E068824206BF4AF6AA200860086112
S315080051700020B0BD01684AF6AA2200200A607047DE
S3150800518040F2240040F63441C2F20000C2F20001A7
S3150800519040680A68104408607047000080B503201C
S315080051A000F08AF80F2000F009F800281CBF01203B
S315080051B080BD00F029F8002080BD000070B540F2DF
S315080051C02406C2F200067168E1B1044640F22C00DA
S315080051D0C2F200004FF47A720068B2FBF1F1B0FB3C
S315080051E0F1F001F02BF90F2C4FF0010508D838B96A
S315080051F04FF0FF3021460022002500F031F83460D8
S31508005200284670BD012070BD82B041F25800C4F234
S315080052100200816841F001018160816801F00101A5
S3150800522001910199016841F080510160006800F020
S3150800523080500090009802B000F0E2B8002848BFFD
S31508005240704700F01F01012202FA01F11C2202EA4E
S31508005250D0004EF20012CEF20002815070470000D4
S3150800526010B54EF60C5CCEF2000CDCF80030C3F339
S31508005270022E8EF00704042C28BF0424BEF1030373
S315080052804FF0FF3E0EFA04F438BF0023A1439940BD
S315080052900EFA03F39A43114300F00F0200F160433C
S315080052A00901043A03F564436244002848BF02F141
S315080052B00C03197010BD00004EF60C51CEF2000119
S315080052C00A684FF6FF031A4060F30A2242F080602C
S315080052D040F0FD7008607047B0F5007F42D00028A6
S315080052E040F0808047F21400C4F2000050F8141C05
S315080052F0C26E01F4C06122F48072B1F5806FC26695
S315080053002ED150F8141C012262F34A2140F8141CCD
S3150800531040F22C01C2F200010968322251434DF6CF
S315080053208362C4F21B32A1FB0212910C0268520579
S3150800533011D54A1C0FD0026852050CD559B102681E
S31508005340520508D5012906D00268520503D5022957
S31508005350A1F10401EAD10068400544BF0320704763
S315080053600020704747F21400C4F2000050F8141CDD
S31508005370C26E01F4C06142F48072B1F5806FC266F4
S31508005380EED150F8141C012262F34A2140F8141C8D
S3150800539040F22C01C2F200010968322251434DF64F
S315080053A08362C4F21B32A1FB0212910C02685205F9
S315080053B011D54A1C0FD0026852050CD559B102689E
S315080053C0520508D5012906D00268520503D50229D7
S315080053D0A1F10401EAD10068400544BF03207047E3
S315080053E0BEE700BF47F21400C4F2000050F8141CD0
S315080053F0022262F34A2140F8141C0020704700007C
S3150800540047F20800C4F20000016841F480410160D7
S31508005410704700002DE9F04182B00446807841F2D9
S3150800542088060007C4F2020602D400202FE000BF57
S3150800543056F8300C5FEAC0080BD456F8300C40F02A
S31508005440805046F8300C56F8300C00F08050019029
S31508005450019847F20007C4F20007386840F48070E4
S315080054603860FEF701FC05463868C00500F10C8176
S31508005470FEF7FAFB401B0228F6D90320B8F1000F05
S3150800548005D456F8301C21F0805146F8301C2168A6
S31508005490CA0717D18A071DD44A0723D40A0729D46D
S315080054A0CA062FD48A0635D44A063BD40A0641D4FE
S315080054B0CA0547D48A034DD48A0553D44A0559D414
S315080054C067E000BF3268636822F003021A4332605D
S315080054D08A07E1D53268A36822F00C021A433260C3
S315080054E04A07DBD53268E36822F030021A43326095
S315080054F00A07D5D53268236922F0C0021A433260FA
S31508005500CA06CFD53268636922F440721A433260FC
S315080055108A06C9D53268A36922F440621A43326002
S315080055204A06C3D53268E36922F440521A43326008
S315080055300A06BDD53268236A22F440421A4332600D
S31508005540CA05B7D53268636A22F440321A43326014
S315080055508A03B1D57269A36A22F003021A437261FB
S315080055608A05ABD53268E36A22F440221A433260D0
S315080055704A050ED53268236B22F440121A43B3F556
S31508005580801F326005D156F87C2C42F4801246F80A
S315080055907C2C0A050ED53268636B22F440021A4346
S315080055A0B3F5800F326005D156F87C2C42F4801290
S315080055B046F87C2CCA040ED53268A36B22F04072DA
S315080055C01A43B3F1807F326005D156F87C2C42F439
S315080055D0801246F87C2C8A040ED53268E36B22F0DA
S315080055E040621A43B3F1006F326005D156F87C2C3D
S315080055F042F4801246F87C2C4A040ED53268236C95
S3150800560022F040621A43B3F1006F326005D156F8B2
S315080056107C2C42F4801246F87C2C0A040ED532689B
S31508005620636C22F040521A43B3F1805F326005D1B1
S3150800563056F87C2C42F4803246F87C2CCA030ED5E8
S315080056403268A36C22F040421A43B3F1804F3260AD
S3150800565005D156F87C2C42F4803246F87C2C490356
S315080056600ED57169E26C21F440111143B2F5001FA1
S31508005670716105D156F87C1C41F4801146F87C1CF2
S3150800568002B0BDE8F08100BFB06810F4407010D0D9
S31508005690216D88420BD0B068B16820F4407041F49F
S315080056A08031B160B16821F48031B160B060C00763
S315080056B00CD1B068216D20F440700843B06000201A
S315080056C0B8F1000F3FF5E3AEDBE600BFFEF7CCFA14
S315080056D0054641F2883700BFB0688007E9D4FEF76F
S315080056E0C3FA401BB842F7D9C7E600007047000066
S315080056F02DE9F047002865D042F2000AC4F2020AF2
S315080057000446DAF800000D4600F00F0088420CD275
S31508005710DAF8000020F00F002843CAF80000DAF88B
S31508005720000000F00F00A8424CD1216841F2080899
S31508005730C807C4F2020803D1880740F1D480B9E04B
S31508005740606802283AD0032840D158F8082C9201FC
S3150800575038D5D8F80420D8F8043042F20046C3F306
S31508005760031302F00302D8F804700133C0F2F406FA
S31508005770032A04BF47F64006C0F27D16B6FBF3F2CD
S31508005780D8F80430C7F306277A43C3F341630227E0
S3150800579007EB4303B2FBF3F24BF20043C0F2C443F8
S315080057A09A425DD9D8F8002012F0F00F4DD089073B
S315080057B056D5A168002953D147E000BF58F8081C00
S315080057C0890307D40120BDE8F08700BF58F8081CF4
S315080057D04905F7D5D8F8001001F00C0104293FD087
S315080057E0D8F8001001F00C01082939D0D8F80010B3
S315080057F001F00C010C2933D1D8F80410D8F804208C
S3150800580042F20047C2F3031201F00301D8F804304C
S315080058100132C0F2F407032904BF47F64007C0F275
S315080058207D17B7FBF2F1D8F80420C3F306235943D2
S31508005830C2F34162022303EB4202B1FBF2F14BF2DF
S315080058400042C0F2C44291420AD9D8F80010082290
S3150800585062F307114FF00109C8F8001002E000BF13
S315080058604FF00009D8F8001021F003010843C8F8E2
S315080058700000FEF7F9F9064641F28837D8F8000025
S31508005880616800F00C00B0EB810F07D0FEF7ECF969
S31508005890801BB842F2D90320BDE8F0872168880743
S315080058A008D4B9F1000F1ED0D8F8000020F0F00097
S315080058B017E000BF480705D5D8F8000040F4E060B7
S315080058C0C8F80000080706D5D8F80000072262F3D2
S315080058D00D20C8F80000D8F80000A26820F0F000F3
S315080058E01043C8F80000DAF8000000F00F00A842DC
S315080058F01BD9DAF8000020F00F002843CAF8000088
S31508005900FEF7B2F9064641F2883700BFDAF800001A
S3150800591000F00F00A84207D0FEF7A6F9801BB84290
S31508005920F4D90320BDE8F0872168480707D5D8F8D9
S315080059300000E26820F4E0601043C8F80000080799
S3150800594008D5D8F80000216920F4605040EAC10063
S31508005950C8F80000D8F8000042F20041C0F2F4018D
S3150800596000F00C00042808462DD0D8F8000000F0F6
S315080059700C00082847F64000C0F27D1023D0D8F85E
S31508005980002002F00C020C2A1CD1D8F80420D8F802
S31508005990043002F00302C3F30313D8F8047001338A
S315080059A0032A08BF0146B1FBF3F0D8F80410C7F381
S315080059B00627C1F341610222784302EB4101B0FB9D
S315080059C0F1F000E00020D8F800104FF2A032C1F341
S315080059D00311C0F60002515C40F22C0201F01F01CF
S315080059E020FA01F140F22400C2F200000068C2F277
S315080059F000021160BDE8F047FFF7E0BB41F2000086
S31508005A00C4F20200016841F40021016070470000F9
S31508005A1040F22C0041F20801C2F20000C4F2020171
S31508005A20006809684FF2B032C1F30221C0F60002DD
S31508005A30515C01F01F01C8407047000040F22C007D
S31508005A4041F20801C2F20000C4F2020100680968C6
S31508005A504FF2B032C1F3C221C0F60002515C01F028
S31508005A601F01C8407047000041F20C01C4F2020150
S31508005A7051F8040C42F20042C0F2F40200F00C00A5
S31508005A800428104608BF704751F8040C00F00C00B3
S31508005A90082847F64000C0F27D1025D051F8043C8E
S31508005AA003F00C030C2B1CBF0020704780B5D1F8FF
S31508005AB000C00B680CF0030CC3F3031E0B680EF151
S31508005AC0010EBCF1030F08BF02460968B2FBFEF0DF
S31508005AD0C3F30623C1F341610222584302EB410195
S31508005AE0B0FBF1F0BDE880407047000010B541F208
S31508005AF01C04C4F202042068C00558BF10BDFFF795
S31508005B00F5FD4FF48070606010BD0000002804BFEA
S31508005B10012070472DE9F04182B00446007841F231
S31508005B200006C007C4F202061ED1207880073DD4BD
S31508005B302078000764D42078400700F18780207811
S31508005B40800600F1D980E569002D00F04482B0682E
S31508005B5000F00C000C2840F03181012D40F09081B6
S31508005B60012002B0BDE8F081B06800F00C01F068D1
S31508005B70082961D0032281F00C0122EA00000844BA
S31508005B80B0FA80F0400957D16068B0F5803F07D079
S31508005B90B0F5A02F40F0E480306840F480203060F3
S31508005BA0306840F480303060E5E000BFB068F168E6
S31508005BB000F00C00042871D001F0030180F00C00FD
S31508005BC081F002010844B0FA80F0400966D1E16824
S31508005BD03068002900F0E08040F480703060FEF7FD
S31508005BE043F805463068400500F10A81FEF73CF89F
S31508005BF0401B0228F6D9032002B0BDE8F08100BF99
S31508005C006169D6F89400002900F0948040F00100FC
S31508005C10C6F89400FEF728F8054600BFD6F89400A3
S31508005C2080073FF588AFFEF71FF8401B0228F5D915
S31508005C30032002B0BDE8F081306880037FF575AFB8
S31508005C40606800287FF471AF3EE000BFB06D5FEA80
S31508005C50C00808D4B06D40F08050B065B06D00F053
S31508005C6080500190019847F20007C4F2000738688F
S31508005C70C0052DD4386840F480703860FDF7F4FF0D
S31508005C80054600BF3868C00522D4FDF7EDFF401B66
S31508005C900228F7D9032002B0BDE8F0813068400534
S31508005CA001D5E06880B17068216920F0FE4040EABD
S31508005CB00160706040F22400C2F200000068FFF73D
S31508005CC07DFA00283FF434AF012002B0BDE8F08128
S31508005CD0A068012808D0052840F0B080D6F89000C2
S31508005CE040F00400C6F89000D6F8900040F0010095
S31508005CF0C6F89000B0E000BFA169D6F89800002960
S31508005D0000F0868040F00100C6F89800FDF7ACFF69
S31508005D10054600BFD6F8980080073FF514AFFDF793
S31508005D20A3FF401B02284FF00300F3D902B0BDE8D9
S31508005D30F08100BF20F00100C6F89400FDF794FF3B
S31508005D40054600BFD6F8940080077FF5F4AEFDF748
S31508005D508BFF401B0228F5D9032002B0BDE8F0816D
S31508005D603168002821F480313160316821F48021BE
S31508005D70316000F0BF80FDF777FF05463068800385
S31508005D803FF5D3AEFDF770FF401B6428F6D9032014
S31508005D9002B0BDE8F08100BF20F480703060FDF7E6
S31508005DA063FF0546306840057FF5C2AEFDF75CFF28
S31508005DB0401B02284FF00300F4D9B7E7306820F0FB
S31508005DC080703060FDF750FF022D05460CD100BFEC
S31508005DD03068800140F1BA80FDF746FF401B022873
S31508005DE04FF00300F4D9A1E73068800140F1EC8058
S31508005DF0FDF73AFF401B02284FF00300F4D995E758
S31508005E007068216920F0FE4040EA016070608FE604
S31508005E1020F00100C6F89800FDF726FF054600BFEA
S31508005E20D6F8980080077FF58EAEFDF71DFF401B5C
S31508005E3002284FF00300F3D978E700BFD6F8901090
S31508005E40002821F00101C6F89010D6F8901021F02C
S31508005E500401C6F890105DD0FDF706FF054641F22D
S31508005E60883700BFD6F89000800765D4FDF7FCFE9A
S31508005E70401BB842F6D9032002B0BDE8F08100BF46
S31508005E80F068216A00F003028A427FF41DAF626A55
S31508005E906FF00F0300F0F00103EB021291427FF45A
S31508005EA013AFA16A00F4FE42B2EB012F7FF40CAFE8
S31508005EB0E16A00F07842B2EBC16F7FF405AF226B5E
S31508005EC00023CFF6E07303EA025200F4C001A2F5FC
S31508005ED0001291427FF4F8AE616B4FF07E4202EAFF
S31508005EE0016100F0C06001F17E4188427FF4ECAEAA
S31508005EF071E000BFFDF7B8FE054600BF30688003B5
S31508005F007FF513AEFDF7B0FE401B64284FF0030083
S31508005F10F4D90BE7FDF7A8FE054641F2883700BF1E
S31508005F20D6F89000800707D5FDF79EFE401BB842BD
S31508005F304FF00300F4D9F9E6B8F1000F3FF5FFADCD
S31508005F40B06D20F08050B065F9E500BFF06848F202
S31508005F500C01C0F29F1104F1200700EA010C8ECF54
S31508005F606FF00F00D4E90C5400EB02100022CFF6B4
S31508005F70E07241EA0C0102EA05520843A2F5001252
S31508005F804FF07E4540EA032005EA0465104305F113
S31508005F907E4540EAC7602843F060306840F080706C
S31508005FA03060F06840F08070F060FDF75DFE0446F2
S31508005FB0306880010FD4FDF757FE001B02284FF00A
S31508005FC00300F5D9B2E600BFF0684FF6FC71CFF6CC
S31508005FD0EE610840F060002002B0BDE8F0810000E4
S31508005FE0002804BF01207047B0B50446406A28B1AE
S31508005FF00020206104F1140006E000BF6068B0F5D7
S31508006000827F03D004F11C00002101600025A562EF
S3150800601094F85D0020B9204684F85C5000F052F8E8
S31508006020022084F85D002068D4F80CE00268BEF50A
S31508006030E06F22F0400202604EF4006298BF01252C
S31508006040B2F5706F1CBF0023A3624FEA053CD4E982
S315080060500135D4E9042103F4827305F404452B447D
S3150800606002F002021A44A36901F00101E56911442C
S3150800607003F40072114405F03802256A114405F04C
S315080060808002A56A114405F40052114301600421F7
S31508006090626A0EF4706501EA1341636B45EA0C0502
S315080060A002F01002294303F0080311431943416023
S315080060B0C16921F40061C16100200121206684F8CC
S315080060C05D10B0BD006843F60041C4F20001884285
S315080060D018BF704780B586B041F24C00C4F2020082
S315080060E0C16841F40041C160C16801F400410191F1
S315080060F00199016841F004010160006801A900F0F6
S315080061000400019001984FF4E0500190022002909B
S3150800611000200390032004900620059040F6000016
S31508006120C4F60000FDF7BCFC06B0BDE88040704729
S315080061302DE9F04381B0044690F85C00012803D1AC
S31508006140022001B0BDE8F08301201E4615460F4621
S3150800615084F85C00FDF788FD94F85D1081460129F6
S315080061600CD1002F4FF0010018BF002D14D10021CB
S3150800617084F85C1001B0BDE8F08300BF6068B0F534
S31508006180827F40F0B18004294FF00200EFD1A16868
S315080061900029E6D0EBE700BF002EE8D094F85D00B2
S315080061A004281CBF052084F85D00002020662564AD
S315080061B0A4F84660A4F84460A763E687C4E9130018
S315080061C02068A687E1684268B1F5E06F22F480523C
S315080061D0134698BF03F58053012E88BF13464360C4
S315080061E00268520603D4026842F0400202606268FE
S315080061F0731EB2FA82F2B3FA83F3DDF820805209ED
S315080062005B09B1F5E06F43EA020175D931B137F898
S31508006210021BC160A763E08F0138E087012518F1EA
S31508006220010036D102E000BFFDF71EFDE08F20B960
S31508006230B4F84600002800F0CD80206881688907F8
S315080062400CD5E18F51B1012D08D1A16B002531F88C
S31508006250022BC260A163E18F0139E1878168C90712
S31508006260E2D0B4F846100029DED0C068216C0125BA
S3150800627021F8020B2164B4F846000138A4F8460058
S31508006280D2E700BFFDF7F0FCA0EB0900404580F01F
S315080062909F80E08F20B9B4F84600002800F09A8065
S315080062A02068816889070CD5E18F51B1012D08D185
S315080062B0A16B002531F8022BC260A163E18F013979
S315080062C0E1878168C907DDD0B4F846100029D9D01E
S315080062D0C068216C012521F8020B2164B4F8460038
S315080062E00138A4F84600CDE70220002184F85C10A6
S315080062F001B0BDE8F08300BF89B1E18F02294FF6EE
S31508006300FE7103D337F8022BC26004E03A780131F4
S315080063100273A06B471CA763E08F0844E087012639
S3150800632008F10105E08F18B9B4F84600002851D0E5
S3150800633020688168890719D5E18FB9B1012E15D171
S31508006340E28FA16B022A07D331F8022BC260A16340
S31508006350E18F023908E000BF09780173A16B206854
S315080063600131A163E18F01390026E1878168C907F8
S3150800637026D0B4F8461019B3B4F84610022913D338
S31508006380C168226C22F8021B2264B4F8461002394E
S31508006390A4F84610B4F84610012910D8416841F40B
S315080063A0805141600BE000BF007B216C0870206CB7
S315080063B001302064B4F846000138A4F846000126E6
S315080063C0FDF752FC002DADD0A0EB09004045A9D33E
S315080063D0032029E020464FF4C05142464B4605F0BB
S315080063E0E9F968B9204641464A4605F0A3FA38B99C
S315080063F020464FF4C06142464B4605F0DBF978B1BA
S31508006400206E40F020002066202020660120216EA4
S3150800641051B10120002184F85C1001B0BDE8F08379
S315080064200020216E0029F4D1012184F85D10002195
S3150800643084F85C1001B0BDE8F0830000411E00201E
S31508006440B0EB116F1CBF012070474EF21002CEF25E
S31508006450000251604EF62351CEF20001F0230B7074
S315080064600721906011607047704700007047000070
S315080064707047000090F83C20012A04BF02207047AC
S31508006480B0B5D1E90232D1E900CE22F47C5223F428
S31508006490705343EA020448F2FF73CEF6F0730EEA2D
S315080064A00302224303F5006404EA0C0442EA040CDE
S315080064B00C6903F5C05222404C6942EA0C02224399
S315080064C003F5605422400C6B03F5F04323401A434E
S315080064D08B6940F2000CCC69CEF6FF7C0CEA034CC3
S315080064E01443026842F60043C4F201039A4244EA9E
S315080064F00C030BD045F20004C4F20104A24205D0F5
S3150800650043F20044C4F20104A24217D14FF6FF74C5
S31508006510CDF60F4403EA040ED1E9084CD1E90A3155
S315080065200025CDF6F04505EA035343EA0E0324F0A9
S3150800653008552B432CF000552B430B43002153647D
S3150800654080F83C10BDE8B040084670477047000028
S31508006550704700007047000090F83C20012A4FF071
S31508006560020268D070B580F83D20026842F6004302
S315080065705468D2F808C0C4F2010345F2000E9A42E4
S31508006580C4F2010E18BF72452CD14D6824F470046C
S315080065902C434FF68F75CFF6FF550E682C4042F602
S315080065A0FF35C4F201053443AA4254600EDC40F2BA
S315080065B0FF73C4F200039A421CDCB2F1804F2DD05F
S315080065C040F20043C4F2000326E000BF43F6FF741E
S315080065D0C4F20104A24219DC9A421FD043F20043D6
S315080065E018E000BF43F20045C4F20105AA42CCD028
S315080065F0CFE700BF40F60003C4F200039A420DD06D
S3150800660040F60043C4F2000306E000BF724505D019
S3150800661044F20003C4F201039A4204D189682CF0BB
S315080066208003194391600121002280F83D1080F80B
S315080066303C20BDE8704010467047000070470000D7
S31508006640002804BF0120704710B5044690F83D00A5
S3150800665028B9002084F83C00204600F023F80220E0
S3150800666084F83D002068211D05F082FB012084F88E
S31508006670480084F83E0084F83F0084F8400084F817
S31508006680410084F8420084F8430084F8440084F802
S31508006690450084F8460084F8470084F83D00002049
S315080066A010BD000080B582B0006840F2FF71C4F2E8
S315080066B00001884220DCB0F1804F39D040F2004119
S315080066C0C4F20001884230D141F25800C4F20200F7
S315080066D00168002241F0020101600068022100F011
S315080066E00200019001981D20FEF7BAFD1D2002B098
S315080066F0BDE88040FEF7A2BD40F60001C4F20001E5
S3150800670088422DD043F20041C4F2010188420CD1DF
S3150800671041F25800C4F20200816841F400518160D8
S31508006720806800F400500190019802B080BD00BF57
S3150800673041F25800C4F202000168002241F001014A
S3150800674001600068032100F00100019001981C20F7
S31508006750FEF786FD1C2002B0BDE88040FEF76EBD40
S3150800676041F25800C4F202000168002241F0040117
S3150800677001600068032100F00400019001981E20C2
S31508006780FEF76EFD1E2002B0BDE88040FEF756BD3E
S3150800679090F83D1001291BD1022180F83D100168AF
S315080067A042F6FF32C868C4F20102914240F0010085
S315080067B0C8600FDC40F2FF70C4F20000814219DCA9
S315080067C0B1F1804F2ED040F20040C4F2000027E01D
S315080067D00120704743F6FF70C4F20100814215DCC0
S315080067E042F60040C4F2010081421BD043F2004049
S315080067F014E000BF40F60000C4F20000814211D048
S3150800680040F60040C4F200000AE000BF45F200006E
S31508006810C4F20100814205D044F20000C4F201002E
S3150800682081420CD188680722C0F201020240062A7A
S315080068304FF00000CDD0B2F5803F08BF704708681A
S3150800684040F00100086000207047000090F83C20E6
S31508006850012A4FF0020200F09B8080B580F83D20A7
S31508006860D0F800C08822DCF80830CFF6CE721A407D
S31508006870CCF808200B68B3F5005F0DDA3F2B21DD55
S315080068805F2B33DD602B00F08580702B00F0A48031
S31508006890B3F5805F73D0E9E02F22C0F2100293426D
S315080068A018DD4F21C0F210018B4247DD5021C0F29E
S315080068B010018B4257D06021C0F210018B4252D092
S315080068C070214BE01F2B41DC002B4CD0102B4AD0FB
S315080068D0CCE000BFB3F1101F3EDAB3F5005F00F05D
S315080068E08F80B3F5801F3ED0C0E000BF402B00F07C
S315080068F09B80502B40F0BA80D1F804E0C968DCF8D8
S315080069002030DCF8202022F00102CCF82020DCF828
S31508006910182022F0F00242EA011123F00A0242EAA4
S315080069200E02CCF81810CCF82020DCF808104FF628
S315080069308872CFF6CF72114057311EE03021C0F26F
S3150800694010018B420FD0402108E000BF202B0AD04F
S31508006950302B08D08AE000BF05D02021C0F21001F4
S315080069608B4240F08380DCF808104FF68872CFF629
S31508006970CF721140194341F00701CCF808100022E4
S31508006980012180F83D10002180F83C10BDE88040C8
S3150800699010467047D1F804E0C968DCF82030DCF806
S315080069A0202022F01002CCF82020DCF8182022F44F
S315080069B0704242EA013123F0A00242EA0E12CCF8F4
S315080069C01810CCF82020DCF808104FF68872CFF69D
S315080069D0CF7211406731D0E7D1E901E3C968DCF825
S315080069E0082043EA0E0322F47F4243EA01211143B9
S315080069F0CCF80810DCF8081041F07701BDE700BFB5
S31508006A00D1E901E3C968DCF8082043EA0E0322F459
S31508006A107F4243EA01211143CCF80810DCF808103C
S31508006A2041F48041A9E700BFD1F804E0C968DCF861
S31508006A302030DCF8202022F00102CCF82020DCF8F7
S31508006A40182022F0F00242EA011123F00A0242EA73
S31508006A500E02CCF81810CCF82020DCF808104FF6F7
S31508006A608872CFF6CF721140473186E7012287E751
S31508006A7070470000F0B581B004460068C56806692D
S31508006A80B10717D515F0020114D06FF002010161A4
S31508006A90012121778069800704D02046FFF7E8FFA7
S31508006AA006E000BF204600F0CBF8204600F004FBC5
S31508006AB000202077700719D515F0040016D0206835
S31508006AC06FF00401016102212177806910F4407F8B
S31508006AD004D02046FFF7CCFF06E000BF204600F0B2
S31508006AE0AFF8204600F0E8FA00202077300717D5DF
S31508006AF015F0080014D020686FF008010161042120
S31508006B002177C069800703D02046FFF7B1FF05E06B
S31508006B10204600F095F8204600F0CEFA00202077AF
S31508006B20F00619D515F0100016D020686FF0100180
S31508006B30016108212177C06910F4407F04D02046FE
S31508006B40FFF796FF06E000BF204600F079F82046DA
S31508006B5000F0B2FA00202077F00718BF15F0010000
S31508006B6006D020686FF001010161204600F07AFB2B
S31508006B7016F4025F05F0800718BF002F02D1F00552
S31508006B8009D410E020686FF4025101612046FFF72E
S31508006B906DFCF00507D537B120686FF48071016187
S31508006BA02046FFF761FC700609D515F0400006D0AF
S31508006BB020686FF040010161204600F0A7FBB0068F
S31508006BC009D515F0200006D020686FF02001016174
S31508006BD02046FFF74DFCF00209D515F4801006D0C3
S31508006BE020686FF4801101612046FFF7B1FCB002FE
S31508006BF009D515F4001006D020686FF4001101615C
S31508006C002046FFF7A3FC700209D515F4800006D0CC
S31508006C1020686FF4800101612046FFF79BFC300273
S31508006C200CD515F4000009D021686FF4000220463F
S31508006C300A6101B0BDE8F040FFF700BD01B0F0BD44
S31508006C407047000090F83C30012B04BF02207047C3
S31508006C504FEAB202052A00F2AB812DE9F041DFE8DE
S31508006C6012F007005500B1000D016901AD0100BF22
S31508006C7003681D6A1A6AA3F1804622F001021A62A5
S31508006C801A46A6F596369F05D3F8048052F818CF0B
S31508006C9047EA96268F68D1F800E025F00205092E06
S31508006CA045EA07050BD80127B74040F2E5242742F5
S31508006CB01FBFCC6825F00C0524F004042543092ED3
S31508006CC00CD80124B44040F2E52634421FBFD1E96E
S31508006CD0054628F440773C4344EA06084FF68C7488
S31508006CE0CFF6FE740CEA040747EA0E07C3F80480D9
S31508006CF09F614F6809695F631D629F6947F00807CE
S31508006D009F619F6927F004079F6196E1036842F631
S31508006D1000461D6A1A6AC4F2010622F010021A62B7
S31508006D201A46D3F804C052F8188FB3428E68D1F8C1
S31508006D3000E025F0200545EA06150BD045F20006C9
S31508006D40C4F20106B34205D043F20046C4F2010676
S31508006D50B34207D1CE686FF0400725F0C00507EAB1
S31508006D6006163543A3F18046A6F596369F0547EAEB
S31508006D709626092E0DD8012707FA06F640F2E527CA
S31508006D803E421FBFD1E905672CF44064374344EA05
S31508006D90870C48F6FF44CFF6FF6404EA080444EA81
S31508006DA00E27C3F804C09F614F6809699F631D6277
S31508006DB09F6947F400679F619F6927F480679F6111
S31508006DC03AE100BF036842F600461D6A1A6AC4F231
S31508006DD0010622F480721A621A46D3F804C052F8E1
S31508006DE01CEFB3428E68D1F8008025F4007545EA99
S31508006DF006250BD045F20006C4F20106B34205D0BB
S31508006E0043F20046C4F20106B34207D1CE6840F207
S31508006E10FF47360225F44065BE433543A3F1804655
S31508006E20A6F596369F0547EA9626092E0DD8012718
S31508006E3007FA06F640F2E5273E421FBFD1E9056785
S31508006E402CF44054374344EA071C4FF68C74CFF6AB
S31508006E50FE740EEA040747EA0807C3F804C0DF61B0
S31508006E604F680969DF631D62DF6947F00807DF615C
S31508006E70DF6927F00407DF61DFE000BF036842F639
S31508006E8000461D6A1A6AC4F2010622F480521A6282
S31508006E901A46D3F804C052F81C8FB3428E68D1F84C
S31508006EA000E025F4005545EA06350BD045F2000604
S31508006EB0C4F20106B34205D043F20046C4F2010605
S31508006EC0B34207D1CE6844F6FF77360325F440452A
S31508006ED0BE433543A3F18046A6F596369F0547EA95
S31508006EE09626092E0DD8012707FA06F640F2E52759
S31508006EF03E421FBFD1E905672CF44044374344EAB4
S31508006F00871C48F6FF44CFF6FF6404EA080444EAFF
S31508006F100E27C3F804C0DF614F6809691F641D6244
S31508006F20DF6947F40067DF61DF6927F48067DF619F
S31508006F3082E000BF0368D3F820C01A6AA3F180472D
S31508006F4022F480321A621A46A7F596379C055D68C0
S31508006F5052F8508FD1F800E08E6844EA9727092F37
S31508006F600AD80124BC4040F2E5273C421EBF4C69C2
S31508006F7025F4803545EA04252CF4003747EA064708
S31508006F804FF68C76CFF6FE76033606EA080646EA0C
S31508006F900E065D601E654E6809699E641F621F6D58
S31508006FA047F008071F651F6D27F004071F6544E0B3
S31508006FB00121002280F83C20084670470368D3F870
S31508006FC020C01A6AA3F1804722F480121A621A4670
S31508006FD0A7F596379C055D6852F8508FD1F800E002
S31508006FE08E6844EA9727092F0AD80124BC4040F244
S31508006FF0E5273C421EBF4C6925F4802545EA8425D1
S315080070002CF4001747EA065748F6FF46CFF6FF6600
S3150800701006F5407606EA080646EA0E265D601E650F
S315080070204E680969DE641F621F6D47F400671F65B5
S315080070301F6D27F480671F650902136819431160DD
S315080070400021BDE8F041002280F83C200846704740
S31508007050002804BF0120704710B5044690F83D008B
S3150800706028B9002084F83C00204600F023F80220C6
S3150800707084F83D002068211D04F07AFE012084F87A
S31508007080480084F83E0084F83F0084F8400084F8FD
S31508007090410084F8420084F8430084F8440084F8E8
S315080070A0450084F8460084F8470084F83D0000202F
S315080070B010BD0000704700007047000071B10A1F3C
S315080070C08B0743EA9202032A16D8DFE802F003196F
S315080070D0111D00BF00F13F0318E000BF90F83E20E5
S315080070E0012A1CBF01207047022280F83E202CE0AE
S315080070F000F141030AE000BF00F1430306E000BFC8
S3150800710000F1400302E000BF00F142031B78012BA7
S315080071101CBF01207047032A0CD8DFE802F0030FD2
S31508007120071300BF022280F83F200EE0022280F8F3
S3150800713041200AE0022280F8432006E0022280F875
S31508007140402002E0022280F84220026801F01F0176
S315080071504FF0010C136A0CFA01F18B431362136AA0
S3150800716090050B43A2F18041A1F5963140EA9121A1
S315080071700729136258D80CFA01F010F0E50F53D01E
S31508007180506C42F6FF31C4F2010140F400408A42D5
S3150800719050640DDC40F2FF70C4F20000824217DC36
S315080071A0B2F1804F2CD040F20040C4F2000025E036
S315080071B043F6FF70C4F20100824215DC42F6004035
S315080071C0C4F2010082421BD043F2004014E000BF23
S315080071D040F60000C4F20000824211D040F600409A
S315080071E0C4F200000AE000BF45F20000C4F2010044
S315080071F0824205D044F20000C4F2010082420CD15A
S3150800720090680721C0F20101014006294FF00000ED
S3150800721008D0B1F5803F08BF7047106840F00100FC
S3150800722010600020704700BF42F6FF30C4F201002C
S315080072308242AFDD43F6FF70C4F201008242BDDD33
S3150800724044F20000C4F201008242D9D045F200009F
S31508007250C4F201008242E0D1506C40F40040506410
S31508007260CEE7000010B50446006840F20041C4F2BB
S315080072700001884214D0B0F1804F20D140F2381175
S31508007280C2F200010A8801320A804A8801324A801D
S315080072908A8801328A80CA880132CA800FE000BF14
S315080072A006F044FD04F0B0FB04F082F904F00AFA93
S315080072B001F0B6FE06F090FD06F03EFE206840F6A8
S315080072C00004C4F20004A04218BF10BD4FF090405D
S315080072D04021FCF7B5FC0146012000F07FFF4FF086
S315080072E090408021FCF7ACFC0146022000F076FFB6
S315080072F004F100600421FCF7A3FC0146032000F01A
S315080073006DFFBDE8104000F0BFBF000070470000E9
S3150800731090F88410012904BF022070472421C0F880
S31508007320881002681168136823F00103136021F0BE
S3150800733000530021416613602022C0F8882080F897
S315080073408410084670470000704700007047000028
S3150800735090F88420012A04BF02207047B0B5242281
S31508007360C0F888200268D0F864E0D2F800C0136834
S31508007370BEF1000F23F001031360936823F06063E6
S3150800738041EA0301916019D0936891684FF6FC7E33
S31508007390490FC0F6000E40F204051EF80140C0F67B
S315080073A00105695CC3F34263E400B4FBF1F11EF81E
S315080073B00340EB5CE500B5FBF3F301E00121012393
S315080073C0A0F86A102021A0F86830C2F800C0C0F8FA
S315080073D08810002180F88410BDE8B0400846704740
S315080073E090F88420012A04BF02207047B0B52422F1
S315080073F0C0F888200268D0F864E0D2F800C01368A4
S31508007400BEF1000F23F001031360936823F0604375
S3150800741041EA0301916019D0936891684FF6FC7EA2
S31508007420490FC0F6000E40F204051EF80140C0F6EA
S315080074300105695CC3F34263E400B4FBF1F11EF88D
S315080074400340EB5CE500B5FBF3F301E00121012302
S31508007450A0F86A102021A0F86830C2F800C0C0F869
S315080074608810002180F88410BDE8B04008467047AF
S3150800747070470000704700007047000070B501684B
S3150800748040F62F03CA69044608688E681340202B05
S315080074900CD100F0200306F080555B1917D0616FF8
S315080074A069B32046BDE87040084700BF40F60F03A1
S315080074B01A420CD00123C1F2000306EA030C40F27B
S315080074C02013C0F20043034013EB0C0328D1E36EEC
S315080074D0D50615D5012B13D110F0100310D01020A6
S315080074E008628868400627D4B4F85C00B4F85E10D1
S315080074F0B4F85E20002A18BF884240F03F8270BD6B
S31508007500D30240F1D58016F4800300F0D1804FF401
S31508007510801220460A62BDE87040FFF7ABBF00BF85
S31508007520D30718BF10F4807340F00C81930706F058
S31508007530010E00F113811CE1D4F88000006841684F
S315080075408AB2002ADBD0B4F85C309A42D7D2A4F8C3
S315080075505E100068800600F19E80206850E8000FE3
S31508007560216820F4807041E80002DAB1206850E80A
S31508007570000F216820F4807041E8000292B120686B
S3150800758050E8000F216820F4807041E800024AB1F3
S31508007590206850E8000F216820F4807041E8000256
S315080075A0002ADAD1206850E8020F216820F001008D
S315080075B041E80202BAB3206850E8020F216820F0B9
S315080075C0010041E8020272B3206850E8020F216800
S315080075D020F0010041E802022AB3206850E8020FB1
S315080075E0216820F0010041E80202002ADAD11AE0F7
S315080075F0206850E8020F216820F0400041E80202A6
S31508007600DAB1206850E8020F216820F0400041E80E
S31508007610020292B1206850E8020F216820F040006B
S3150800762041E802024AB1206850E8020F216820F0BA
S31508007630400041E80202002ADAD12020C4F88C0072
S315080076400020E066206850E8000F216820F010004E
S3150800765041E80002DAB1206850E8000F216820F0FE
S31508007660100041E8000292B1206850E8000F216836
S3150800767020F0100041E800024AB1206850E8000FE7
S31508007680216820F0100041E80002002ADAD1D4F877
S315080076908000FCF703F802202067B4F85C00B4F811
S315080076A05E10401A81B22046BDE87040FFF74CBE16
S315080076B0110606D500F0800106F40003C91840F04B
S315080076C0DF81510632D510F040012FD0206850E8EE
S315080076D0000F216820F0400041E80002DAB1206876
S315080076E050E8000F216820F0400041E8000292B1FE
S315080076F0206850E8000F216820F0400041E80002A9
S315080077004AB1206850E8000F216820F0400041E89F
S315080077100002002ADAD120200021C4F88800204679
S31508007720A167BDE8704000F0E5BA00BF110240F15C
S31508007730B38110F0804100F0AF812046BDE870406B
S31508007740FFF796BE01230B62D4F8903043F001038D
S31508007750C4F89030930706F0010E0AD5BEF1000F63
S3150800776007D002230B62D4F8903043F00403C4F820
S31508007770903053070AD5BEF1000F07D004230B62D9
S31508007780D4F8903043F00203C4F8903013070CD5B0
S3150800779000F0200353EA0C0307D008230B62D4F841
S315080077A0903043F00803C4F8903013050BD510F059
S315080077B0806308D04FF400630B62D4F8903043F02E
S315080077C02003C4F89030D4F89030002B3FF497AEDD
S315080077D092060AD500F0200006F08052801804D0E0
S315080077E0626F12B1204690472168D4F890008968E4
S315080077F000F0280001F04001401807D12046FFF7A5
S315080078003BFE0020C4F8900070BD00BF206850E819
S31508007810000F216820F4907041E80002DAB1206870
S3150800782050E8000F216820F4907041E8000292B1F8
S31508007830206850E8000F216820F4907041E80002A3
S315080078404AB1206850E8000F216820F4907041E89A
S315080078500002002ADAD14FF6FE70CEF6FF7000BF9E
S31508007860216851E8021F2268014042E80213C3B1A9
S31508007870216851E8021F2268014042E8021383B1D9
S31508007880216851E8021F2268014042E8021343B109
S31508007890216851E8021F2268014042E80213002BC2
S315080078A0DED1E06E012824D1206850E8000F216857
S315080078B020F0100041E80002DAB1206850E8000F15
S315080078C0216820F0100041E8000292B1206850E8D3
S315080078D0000F216820F0100041E800024AB1206834
S315080078E050E8000F216820F0100041E80002002A45
S315080078F0DAD12020C4F88C000020E0662168606791
S315080079008868400640F1C280206850E8020F216866
S3150800791020F0400041E80202DAB1206850E8020F80
S31508007920216820F0400041E8020292B1206850E840
S31508007930020F216820F0400041E802024AB120689F
S3150800794050E8020F216820F0400041E80202002AB0
S31508007950DAD1D4F88000002800F098804CF21D1186
S31508007960C0F600018163FBF7D1FE00283FF4C7ADDE
S31508007970D4F88000816BBDE870400847401A00BF04
S31508007980216851E8001F226821F4907142E800132B
S31508007990DBB1216851E8001F226821F4907142E8A2
S315080079A0001393B1216851E8001F226821F49071F1
S315080079B042E800134BB1216851E8001F226821F400
S315080079C0907142E80013002BDAD14FF6FE71CEF61D
S315080079D0FF7100BF226852E8022F23680A4043E875
S315080079E00226C6B1226852E8022F23680A4043E8F5
S315080079F0022686B1226852E8022F23680A4043E825
S31508007A00022646B1226852E8022F23680A4043E854
S31508007A100226002EDED12021C4F88C100021E16652
S31508007A20616700BF216851E8001F226821F0100134
S31508007A3042E80013DBB1216851E8001F226821F0F3
S31508007A40100142E8001393B1216851E8001F22682B
S31508007A5021F0100142E800134BB1216851E8001FDC
S31508007A60226821F0100142E80013002BDAD1022225
S31508007A7081B220462267BDE87040FFF765BC00BFAB
S31508007A80A16F00297FF40DAD39E500BF2046BDE89A
S31508007A907040FFF7F1BC00BFD1017FF530ADB0F102
S31508007AA0FF3FC8BF70BD2046BDE87040FFF74EBC1B
S31508007AB010B5D0B10446D0F8880028B9002084F85B
S31508007AC08400204600F026F82420C4F888002068A0
S31508007AD0A16A026822F00102026011B1204604F090
S31508007AE0EFF9204604F06CFC10B1012010BD00BF70
S31508007AF02168486820F490404860886820F02A0089
S31508007B008860086840F0010220460A60BDE8104017
S31508007B1004F04CBA2DE9F0419AB00446684608309C
S31508007B204C21F8F722FD206843F60001C4F2010152
S31508007B30884203D01AB0BDE8F08100BF012000904A
S31508007B40002668460196FDF765FC002818BFFAF777
S31508007B5079FF41F24C00C4F20200416940F21C0868
S31508007B6041F4804141614169C4F2020801F480414F
S31508007B7015911599016841F001010160006815A980
S31508007B8000F00100159015984FF4C060159002207A
S31508007B90CDE9160603201890072019904FF090405B
S31508007BA0FBF77EFF40F64C05C2F2000519201021AE
S31508007BB0C5E9008005F108008027C2C0C5E9056649
S31508007BC0EE614FF4805628462E62FBF735FE0028F4
S31508007BD018BFFAF737FFE567AC6240F2EC7508F1B3
S31508007BE01400C2F200051821002285E8070028467D
S31508007BF0C5E90327C5E90522C5E90726FBF71CFEE3
S31508007C00002818BFFAF71EFF252005210022C4F810
S31508007C108050AC62FDF724FB2520FDF70FFB1AB058
S31508007C20BDE8F081B0B50446D0F8880020281CBF0E
S31508007C300220B0BD00294FF0010059D0002A134692
S31508007C4008BFB0BD002221202165A4F85430A4F84D
S31508007C505630C4F89020C4F88800E06FF0B14CF2B2
S31508007C602D15C0F60005456325684CF2093C4CF213
S31508007C70B93EC0F6000CC0F6000E826305F1280274
S31508007C80C0E90BCEFBF76EFE40B11020C4F8900099
S31508007C902020C4F888000120B0BD00BF206840211C
S31508007CA0016200BF206850E8020F216840F080009A
S31508007CB041E80202DAB1206850E8020F216840F074
S31508007CC0800041E8020292B1206850E8020F21685C
S31508007CD040F0800041E802024AB1206850E8020FED
S31508007CE0216840F0800041E80202002ADAD100202B
S31508007CF0B0BD0000006843F60001C4F201018842E5
S31508007D0018BF704740F23000C2F20000012101702E
S31508007D10704700007047000080B540F6AC00C2F21C
S31508007D2000000321FCF734FABDE8804005F0BABE2E
S31508007D302DE9F04100687F2A00EBC114A04658F8E7
S31508007D40E4EF4FF0000158F82CCC00F32F80013AED
S31508007D503F2A00F24480DFE802F0213B42214242FA
S31508007D60423B42424242424242214242424242420D
S31508007D704242424242424242423B424242424242DC
S31508007D8042424242424242424242424242424242C5
S31508007D904242424242424242422100BFD3E90112D4
S31508007DA0C4F8BC10C4F8C020002118E0B2F5007F62
S31508007DB008DB0DD0B2F5006F0AD0B2F5806FEDD0B2
S31508007DC00DE000BF802A03D0B2F5807FE6D006E03A
S31508007DD0D3E90112C4F8C4101021C4F8C820D3E9A5
S31508007DE00506D3E9034730431D683843FE2220437E
S31508007DF08A4028432EEA02028840082F42EA0002F7
S31508007E0005D11CF4007008BF1CF0007004D0C8F837
S31508007E100020BDE8F08100BFD86988400243C8F851
S31508007E200020BDE8F0810000FEE7000070B50446BA
S31508007E30006815468369DA0602D40021002266E046
S31508007E400E461021C161816989065CD4711C50D027
S31508007E502EBBFBF709FF2068426894F84210836935
S31508007E601B040BD512F4804208D1202906D041689C
S31508007E7041F480414160FBF7F7FE054620688169B9
S31508007E80890605D4FBF7F0FE401B1A28F6D328E02E
S31508007E9081698906DDD536E08169890633D4FBF721
S31508007EA0E3FE411B2068B142F6D9426894F84210B5
S31508007EB083691B040CD512F4804209D1202907D006
S31508007EC0416841F480414160FBF7CEFE054600BF9C
S31508007ED0206881698906DFD4FBF7C6FE401B1A288D
S31508007EE0F6D3206801228169242110E08169890678
S31508007EF009D48169890606D4816989065CBF8169C6
S31508007F005FEA8161F2D52021C161012204218369DA
S31508007F10DE0505D54FF4807241F00101C2610122E8
S31508007F205E0505D49B050AD472B9002070BD00BF52
S31508007F3041F008014FF480629B05C26104D541F007
S31508007F4002014FF40072C2618269920744BF00229F
S31508007F5082628269D20703D1826942F00102826194
S31508007F6042684EF60003CFF600631A404260606C22
S31508007F7008436064202084F84100002084F8420009
S31508007F8084F84000012070BD2DE9F04104460068E0
S31508007F9080690840401AB0FA80F04009904221D121
S31508007FA0DDF8188015460E461F46581C27D0CFBB4D
S31508007FB0204600214246FFF739FF002853D1FBF738
S31508007FC053FE206881693140891BB1FA81F149095C
S31508007FD0A9423CD080693040801BB0FA80F0400945
S31508007FE0A842E5D00020BDE8F08100BF206880697E
S31508007FF03040801BB0FA80F04009A842F2D12046F2
S315080080004FF0FF314246FFF711FF0028EED001205E
S31508008010BDE8F08180693040801BB0FA80F04009E5
S31508008020A842DFD1204639464246FFF7FFFED0B9BF
S31508008030FBF71AFEA0EB08012068B942EAD9816964
S315080080403140891BB1FA81F14909A942E2D1606C34
S3150800805040F020006064202084F84100002084F865
S31508008060420084F840000120BDE8F08170B504465E
S3150800807000688069800635D415460E4619B928E089
S31508008080806980062ED4204631462A46FFF7CEFE62
S3150800809030BBFBF7E9FD411B2068B142F0D9816985
S315080080A08906EDD4606C40F020006064202084F8D6
S315080080B04100002084F8420084F84000012070BD89
S315080080C0FBF7D2FD206881698906EBD580698006B1
S315080080D008D4204600212A46FFF7A8FE0028EFD03C
S315080080E0012070BD002070BD70B504460068806927
S315080080F0800714D415460E46481C17D01EBB00BF71
S31508008100204600212A46FFF791FEB8BBFBF7ACFDD7
S3150800811020688169890725D580698007F0D5002000
S3150800812070BD00BF206880698007F8D420464FF0EC
S31508008130FF312A46FFF77AFE0028F3D0012070BDEA
S3150800814080698007EBD4204631462A46FFF76EFE43
S31508008150A0B9FBF789FD411B2068B142F0D98169B6
S315080081608907EDD4606C40F020006064202084F814
S315080081704100002084F8420084F84000012070BDC8
S31508008180B0B586B00DF1170100200122002404F0D5
S3150800819075FD9DF81700F8B10DF10200451C002089
S315080081A004F02AFE40F2B01040F24012C2F200007B
S315080081B0C2F200028DF80240D0E90101D2E9073483
S315080081C0526A286069602A610DF1020100201522B1
S315080081D0AB60EC6004F080FC06B0B0BD80B540F240
S315080081E0980C00EB4002C2F2000C0CEB020E9EF853
S315080081F00830022B14D0012B16D073BB91B17146EF
S3150800820011F8092FD2B19EF80A30022B4FF000035D
S3150800821004BF604403718EF80A200B7080BD00BF4E
S3150800822001290DD1012316E0012913D1714611F850
S31508008230092F0023002A01F8013CE4D180BD00BFC4
S315080082400CEB00010A791AB901220CF800200A7110
S31508008250022302E002238EF80830714611F8092F2E
S31508008260934208BF80BD8EF80A200B7080BD0000BF
S3150800827040F29800C2F200000021C0E90011C0E9EE
S315080082800211016170470000F0B581B040F298050F
S31508008290C2F200056878012808D0A87801283FD0DE
S315080082A0E878012872D001B0F0BD00BF40F2401056
S315080082B0C2F2000001218170B0F86410042903D1CC
S315080082C00021A0F8681023E040F20000C2F2000086
S315080082D0007804280ED001281AD140F2B010C2F254
S315080082E00000417BA1B9017B01310173017B0329A0
S315080082F00CD20DE040F2B010C2F20000417B39B951
S31508008300017B01310173017B042901D3002101732B
S315080083103AA004F051FB00206870A8780128BFD164
S3150800832040F24016C2F200060120B070B6F86400AA
S31508008330042803D10020A6F868001EE0B6F86400F9
S31508008340022803D0B6F8640003284BD140F6AC04E3
S31508008350C2F2000400272046C02186F86D7086F810
S315080083606B70FCF721FB20464FF44061FCF71CFBC1
S315080083700120A6F8640086F86A7024A004F01CFBA5
S315080083800020A870E87801287FF48DAF40F24010ED
S31508008390C2F2000001218170B0F86410042903D1EB
S315080083A00021A0F8681016E040F20000C2F20000B2
S315080083B00078042801D001280DD140F2B010C2F28D
S315080083C00000017B39B1417B01314173417B0529AD
S315080083D024BF0021417311A004F0EEFA0020E870D2
S315080083E001B0F0BDB6F864000128C6D1012086F8B0
S315080083F06D000220A6F86400BFE700BFE68C89E995
S3150800840094AE31E68C89E4B88B0D0A00E68C89E9CE
S3150800841094AE32E68C89E4B88B0D0A00E7BC96E781
S31508008420A081E599A8E68C89E994AEE68C89E4B83A
S315080084308B0D0A0010B58CB040F2A860C2F200009D
S315080084404FF0A0414FF4403201234FF0080C0024AE
S3150800845080E81600C0E9053C4FF4D46C4FF48062FE
S315080084600421C0E90BC24FF4805200F1440C0B946E
S31508008470CDE90944CDE90744CDE90544CDE90344EE
S31508008480CDE90144C0E903448483016280F82440AD
S3150800849080F83830C26380F8403020228CE8160015
S315080084A00365FAF7CDFD002818BFFAF7CBFA40F2B4
S315080084B0A860C2F2000009A90994FAF741FB00284E
S315080084C018BFFAF7BFFA0220C0F230400190062022
S315080084D07F2102900020049104210390CDE9051024
S315080084E040F2A860C2F2000001A9FAF7C3FB00280F
S315080084F018BFFAF7A7FA0420C0F6600001900C200E
S31508008500029040F2A860C2F2000001A9FAF7B2FB95
S31508008510002818BFFAF796FA0820C0F6904001908E
S315080085201220029040F2A860C2F2000001A9FAF7F0
S31508008530A1FB002818BFFAF785FA1020C1F2C0007F
S3150800854001901820029040F2A860C2F2000001A92A
S31508008550FAF790FB002818BFFAF774FA0CB010BDAA
S31508008560B0B588B040F2147040F20011C2F20000B3
S31508008570C5F200014FF44032002480E816004FF49B
S31508008580805204250121C2631C2200F1440CCDE966
S315080085900644CDE90444CDE90244CDE90044C0E9E6
S315080085A00344C0E905458483016280F82440C0E994
S315080085B00B4480F8384080F8401080238CE81C0073
S315080085C00165FAF73DFD002818BFFAF73BFA0020C7
S315080085D0C4F25270009006200190052002907F2078
S315080085E0CDE9030540F21470C2F20000694605940D
S315080085F0FAF740FB002818BFFAF724FA08B0B0BD0E
S31508008600B0B588B040F2807040F20061C2F2000056
S31508008610C5F200014FF44032002480E816004FF4FA
S31508008620805204250121C263142200F1440CCDE9CD
S315080086300644CDE90444CDE90244CDE90044C0E945
S315080086400344C0E905458483016280F82440C0E9F3
S315080086500B4480F8384080F8401060238CE81C00F2
S315080086600165FAF7EDFC002818BFFAF7EBF91020B8
S31508008670C9F2C000009006200190072002907F20D2
S31508008680CDE9030540F28070C2F200006946059400
S31508008690FAF7F0FA002818BFFAF7D4F908B0B0BD0F
S315080086A080B582B041F24800C4F202000168002297
S315080086B041F004010160016801F00401019101998A
S315080086C0016841F0010101600068052100F0010020
S315080086D0009000980B20FCF7C3FD0B20FCF7AEFDBD
S315080086E00C2005210022FCF7BBFD0C20FCF7A6FD9B
S315080086F00D2005210022FCF7B3FD0D2002B0BDE8D0
S315080087008040FCF79BBD00002DE9F04F87B00024A0
S3150800871041F24C00CDE90544C4F20200016840F676
S31508008720000641F0040101600168C4F6000601F084
S315080087300401019101990168012241F020010160BB
S315080087400168012501F0200101910199016841F0B4
S3150800875001010160016801F00101019101990168B7
S3150800876041F002010160016801F0020101910199DD
S31508008770016841F0080101600068302100F0080036
S31508008780019001983046FBF769FA06F58069484674
S31508008790042101224FF0040AFBF760FAA6F5806867
S315080087A04046202101224FF0200BFBF757FA4FF4E1
S315080087B0041002AFCDE90304304639460295FBF7AB
S315080087C06FF90620CDE90204304639460494FBF7D2
S315080087D067F9C020CDE902044FF090403946049469
S315080087E0FBF75EF93020CDE9020530463946CDE97A
S315080087F00445FBF755F90320059048463946CDE967
S3150800880002A50494FBF74CF940463946CDE902B572
S31508008810CDE90445FBF744F9062006210022FCF7BA
S315080088201FFD0620FCF70AFD07B0BDE8F08F000023
S315080088302DE9F043BFB046F60005002415A86021CF
S31508008840C4F201053994CDE93744CDE93544CDE97B
S315080088503344CDE93144CDE92F44CDE92D44F7F72A
S3150800886084FE09A824211494CDE91244F7F77DFE65
S3150800887040F6AC00C2F20000CDE90744CDE9054454
S31508008880CDE90344CDE90144C0E900548460FBF70F
S3150800889053FE002818BFFAF7D5F840F6AC00C2F226
S315080088A000000C21FBF7F0FB002818BFFAF7CAF8FE
S315080088B040F6AC00C2F200000A21FBF7DFFE0028F2
S315080088C018BFFAF7BFF84FF4802038904FF00070C1
S315080088D0399040F6AC00C2F2000038AA0121FBF735
S315080088E071FA002818BFFAF7ADF840F6AC00C2F2E4
S315080088F00000012100220024FBF7BCF9002818BF5C
S31508008900FAF7A0F847F23050CDE93404082037903A
S3150800891040F6AC00C2F2000034AA03213694FBF7F5
S31508008920EFFE002818BFFAF78DF840F6AC000024D1
S31508008930C2F200002DAA03212D94CDE92F443394C9
S31508008940FCF7B0F9002818BFFAF77CF81020CDE933
S3150800895015040120CDE919044FF00060CDE91F0484
S315080089604FF00050CDE922044FF0004025904FF417
S315080089708070CDE9260440F6AC00C2F2000015AAC4
S315080089800321CDE91744CDE91B44CDE91D442194C3
S315080089902494CDE92B44CDE92944FCF71BF800289B
S315080089A018BFFAF74FF800201590279040F6AC004C
S315080089B0C2F2000015AA0521FCF70CF8002818BF1A
S315080089C0FAF740F843F69820129040F6AC00C2F247
S315080089D0000012AB03210122FBF7CCFE002818BFCA
S315080089E0FAF730F841F64C50129040F6AC00C2F255
S315080089F0000012AB03210422FBF7BCFE002818BFB7
S31508008A00FAF720F8002064210990CDE90A100F90A2
S31508008A104FF000404FF4004210904FF080400C9207
S31508008A204FF48042119040F6AC00CDE90D21C2F218
S31508008A30000009AA0321FBF751FB002818BFFAF723
S31508008A4001F840F6AC00C2F2000009AA0521FBF7BE
S31508008A5045FB002818BFF9F7F5FF0421002002910D
S31508008A6008210190CDE90310CDE90500CDE90700FD
S31508008A7040F6AC00C2F2000001AB03214022FBF72E
S31508008A805FFF002818BFF9F7DDFF40F6AC00C2F219
S31508008A90000001AB05214FF48062FBF751FF002867
S31508008AA018BFF9F7CFFF0020CDE9020040F6AC0069
S31508008AB0C2F2000001AB03218022FBF741FF002828
S31508008AC018BFF9F7BFFF40F6AC00C2F2000001ABD1
S31508008AD005214FF40062FBF733FF002818BFF9F7AA
S31508008AE0B1FF0020359040F6AC00C2F2000034AA6F
S31508008AF00521FBF705FE002818BFF9F7A3FF40F686
S31508008B00AC00C2F200002DAA0521FCF7CBF800281C
S31508008B1018BFF9F797FF40F6AC044FF49670C2F207
S31508008B200004129012AB204605210122FBF722FE13
S31508008B30002818BFF9F786FF2068A84202D03FB080
S31508008B40BDE8F08341F24C00C4F20200016840F22D
S31508008B50004441F0020101600168C4F6000401F016
S31508008B6002013A913A9901683AAD41F0040101606F
S31508008B7000684FF0020800F004003A903A984FF463
S31508008B8040403A904FF0000903260D272046294613
S31508008B90CDF8EC80CDF8F0903D963E97FAF780FF39
S31508008BA0C0203AA981E8010304F580602946CDE989
S31508008BB03D67FAF775FF3FB0BDE8F08380B540F62C
S31508008BC0A81047F60001C2F20000C4F2000142F202
S31508008BD072120023C0F280024FF0010C80E80E10DA
S31508008BE0C0E90433C0E906330362FCF7F5F8002848
S31508008BF018BFF9F727FF40F6A810C2F200000021B7
S31508008C00FCF7A0F8002818BFF9F71CFF40F6A810D3
S31508008C10C2F200000021FCF7BBF8002818BFF9F7DC
S31508008C2011FF0420C4F20100016841F480010160CB
S31508008C3080BD000080B540F6FC1043F20001C2F288
S31508008C400000C4F200014FF47A73032280E80E0094
S31508008C50C360FCF75DFA002808BF80BDBDE8804008
S31508008C60F9F7F0BE10B540F60C2043F60041C2F203
S31508008C700000C4F200014FF4827200234FF4E06C46
S31508008C804FF4007E182480E80E1007210822C0E958
S31508008C900433C0E906E4C0E90833C0E90A31C0E98B
S31508008CA00C32FDF79DF9002808BF10BDBDE810403D
S31508008CB0F9F7C8BE80B588B040F670200021C2F228
S31508008CC0000040F2E73C0791CDE9051102914FF00B
S31508008CD08042A923C0E9021C01618021C0E9002362
S31508008CE08161FDF7ADFC002818BFF9F7ABFE4FF41C
S31508008CF08050049040F67020C2F2000004A9FDF7E7
S31508008D00A5FD002818BFF9F79DFE002001900390E5
S31508008D1040F67020C2F2000001A9FDF71DFC0028EC
S31508008D2018BFF9F78FFE40F67020C2F20000FDF773
S31508008D302FFD08B080BD000080B588B040F6BC2085
S31508008D400021C2F2000040F2004241F2873C07913E
S31508008D50CDE905110291C4F20002A923C0E9021C5B
S31508008D6001618021C0E900238161FDF769FC0028C3
S31508008D7018BFF9F767FE4FF48050049040F6BC2000
S31508008D80C2F2000004A9FDF761FD002818BFF9F733
S31508008D9059FE00200190039040F6BC20C2F2000064
S31508008DA001A9FDF7D9FB002818BFF9F74BFE08B053
S31508008DB080BD000080B588B040F608300021C2F2B8
S31508008DC0000040F6000242F20F7C0791CDE905113A
S31508008DD00291C4F20002A923C0E9021C01618021A4
S31508008DE0C0E900238161FDF72BFC002818BFF9F7BD
S31508008DF029FE4FF48050049040F60830C2F2000075
S31508008E0004A9FDF723FD002818BFF9F71BFE00206B
S31508008E100190039040F60830C2F2000001A9FDF760
S31508008E209BFB002818BFF9F70DFE08B080BD0000AF
S31508008E30B0B5A0B043F20045002468463421C4F218
S31508008E4001051A94CDE91844CDE91544CDE9134432
S31508008E50CDE91144CDE90F44CDE90D44F7F785FB7B
S31508008E6040F65430C2F20000052140F2E732802372
S31508008E70C0E90051C0E90242C0E904448361FDF734
S31508008E80DFFB002818BFF9F7DDFD4FF48050179077
S31508008E9040F65430C2F2000017A9FDF7D7FC0028A7
S31508008EA018BFF9F7CFFD40F65430C2F20000FEF7BE
S31508008EB0CFF8002818BFF9F7C5FD40F6543000244E
S31508008EC0C2F2000014A9CDE914441694FDF744FB38
S31508008ED0002818BFF9F7B6FD60200D904FF4FA7018
S31508008EE0CDE90E0440F65430C2F200000DA908225E
S31508008EF0CDE91044CDE91244FDF7A4FE002818BFB9
S31508008F00F9F7A0FD00204FF4005140F65434CDE99E
S31508008F1005104FF00071C2F200040490CDE902007A
S31508008F20CDE90000CDE90700CDE90910CDE90B0030
S31508008F3069462046FDF79EFA002818BFF9F782FD14
S31508008F402068A84202D020B0B0BD00BF41F24C0054
S31508008F50C4F20200016841F00401016000681BA91F
S31508008F6000F004001B901B984FF480701B900220A1
S31508008F701C9000201D9003201E9004201F9040F690
S31508008F800000C4F60000FAF78BFD20B0B0BD000063
S31508008F9080B540F6A03043F60001C2F20000C4F2E4
S31508008FA0010100234FF00C0C4FF4612280E80E00FB
S31508008FB0C0E90333C0E905C3C0E90733C0E909338B
S31508008FC0FEF776FD002818BFF9F73CFD40F6A030FD
S31508008FD0C2F200000021FEF703FA002818BFF9F7CD
S31508008FE031FD40F6A030C2F200000021FEF7B0F9CC
S31508008FF0002818BFF9F726FD40F6A030C2F2000097
S31508009000FEF786F9002808BF80BDBDE88040F9F75D
S3150800901019BD0000FEE70000FCF768FDFEE700004A
S31508009020B0B540F2B010C2F2000090ED040A9FED10
S315080090303C1AB8EE400A9FED3B2A20EE010A80EE64
S31508009040020A9FED391A40F24015C2F2000580EE79
S31508009050010A9FED361A80EE010A95ED081AB4EE5C
S31508009060410AF1EE10FA29DBB5F86400032825D188
S31508009070688A013081B20B29688219D340F6AC049C
S315080090800020C2F20004688285F86B002046C021E1
S31508009090FBF78AFC20464FF44061FBF785FCB5F8E0
S315080090A0680040F01000A5F868000420A5F86400E0
S315080090B0B5F86800C00607D4B0BD00BF00206882B6
S315080090C0B5F86800C006F7D5A88A013081B2B1F5AF
S315080090D0C87FA88298BFB0BDE98A002001318AB24C
S315080090E00B2AA882E98213D340F6AC040B21C2F2FC
S315080090F00004E98285F86B002046C021FBF754FC82
S3150800910020464FF44061BDE8B040FBF74DBC00BFB8
S31508009110B5F8680020F01000A5F86800B0BD00BFDB
S31508009120083D534000F0FF45000078420AD7A33BAC
S3150800913040F2E0100021C2F2000000228318815498
S315080091402032802A59709970D9701971597199719C
S31508009150D971197259729972D972197359739973A7
S31508009160D973197459749974D97419755975997587
S31508009170D975197659769976D97619775977997767
S31508009180D977DBD10021002283182032802A83F880
S31508009190801083F8811083F8821083F8831083F88F
S315080091A0841083F8851083F8861083F8871083F86F
S315080091B0881083F8891083F88A1083F88B1083F84F
S315080091C08C1083F88D1083F88E1083F88F1083F82F
S315080091D0901083F8911083F8921083F8931083F80F
S315080091E0941083F8951083F8961083F8971083F8EF
S315080091F0981083F8991083F89A1083F89B1083F8CF
S315080092009C1083F89D1083F89E1083F89F10BBD19D
S315080092100021002283182032802A83F8001183F85F
S31508009220011183F8021183F8031183F8041183F8F6
S31508009230051183F8061183F8071183F8081183F8D6
S31508009240091183F80A1183F80B1183F80C1183F8B6
S315080092500D1183F80E1183F80F1183F8101183F896
S31508009260111183F8121183F8131183F8141183F876
S31508009270151183F8161183F8171183F8181183F856
S31508009280191183F81A1183F81B1183F81C1183F836
S315080092901D1183F81E1183F81F11BBD1002100226E
S315080092A083182032802A83F8801183F8811183F885
S315080092B0821183F8831183F8841183F8851183F862
S315080092C0861183F8871183F8881183F8891183F842
S315080092D08A1183F88B1183F88C1183F88D1183F822
S315080092E08E1183F88F1183F8901183F8911183F802
S315080092F0921183F8931183F8941183F8951183F8E2
S31508009300961183F8971183F8981183F8991183F8C1
S315080093109A1183F89B1183F89C1183F89D1183F8A1
S315080093209E1183F89F11BBD1002100228318203299
S31508009330802A83F8001283F8011283F8021283F850
S31508009340031283F8041283F8051283F8061283F8C9
S31508009350071283F8081283F8091283F80A1283F8A9
S315080093600B1283F80C1283F80D1283F80E1283F889
S315080093700F1283F8101283F8111283F8121283F869
S31508009380131283F8141283F8151283F8161283F849
S31508009390171283F8181283F8191283F81A1283F829
S315080093A01B1283F81C1283F81D1283F81E1283F809
S315080093B01F12BBD10021002283182032802A83F88D
S315080093C0801283F8811283F8821283F8831283F855
S315080093D0841283F8851283F8861283F8871283F835
S315080093E0881283F8891283F88A1283F88B1283F815
S315080093F08C1283F88D1283F88E1283F88F1283F8F5
S31508009400901283F8911283F8921283F8931283F8D4
S31508009410941283F8951283F8961283F8971283F8B4
S31508009420981283F8991283F89A1283F89B1283F894
S315080094309C1283F89D1283F89E1283F89F12BBD163
S315080094400021002283182032802A83F8001383F82B
S31508009450011383F8021383F8031383F8041383F8BC
S31508009460051383F8061383F8071383F8081383F89C
S31508009470091383F80A1383F80B1383F80C1383F87C
S315080094800D1383F80E1383F80F1383F8101383F85C
S31508009490111383F8121383F8131383F8141383F83C
S315080094A0151383F8161383F8171383F8181383F81C
S315080094B0191383F81A1383F81B1383F81C1383F8FC
S315080094C01D1383F81E1383F81F13BBD10021002236
S315080094D083182032802A83F8801383F8811383F84F
S315080094E0821383F8831383F8841383F8851383F828
S315080094F0861383F8871383F8881383F8891383F808
S315080095008A1383F88B1383F88C1383F88D1383F8E7
S315080095108E1383F88F1383F8901383F8911383F8C7
S31508009520921383F8931383F8941383F8951383F8A7
S31508009530961383F8971383F8981383F8991383F887
S315080095409A1383F89B1383F89C1383F89D1383F867
S315080095509E1383F89F13BBD1704700002DE9F04195
S315080095602DED048B82B040F24015C2F20005B5F825
S315080095706440FFF7DDFD042C14D1B5F86800000738
S3150800958000F13A81B5F86800C00600F14281B5F8E5
S315080095906800800600F14A81B5F86800400600F1C7
S315080095A059814FE140F20000C2F20000007801380C
S315080095B0032800F24781DFE810F005005F01670223
S315080095C0170300BFFFF7B4FD0FF670120020002145
S315080095D001F01CFD0FF674120020102101F016FD93
S315080095E040F23702C0F601020020202101F00EFDEC
S315080095F040F21902C0F601020020302101F006FDF2
S31508009600402000213A220823082601F0D7FC4020F2
S3150800961010213A22082301F0D1FC402020213A22C9
S31508009620082301F0CBFC402030213A22082301F020
S31508009630C5FC702000215622082301F0BFFC7020CB
S3150800964010214122082301F0B9FC7020202156225E
S31508009650082301F0B3FC702030214122082301F0D1
S31508009660ADFC40F2B018C2F2000898ED010A9FED71
S31508009670818A482030EE080ABCEEC00A10EE102A8D
S3150800968000210223009601F019FE582000212E22FF
S31508009690082301F093FC98ED010A9FEDFA9A30EE43
S315080096A0080A20EE090ABDEEC00A10EE100A810863
S315080096B041F27B477943490C642401FB14000021DD
S315080096C082B260200223009601F0F8FD98ED020AA6
S315080096D0482030EE080ABCEEC00A10EE102A102107
S315080096E00223009601F0EAFD582010212E220823B5
S315080096F001F064FC98ED020A022330EE080A20EE17
S31508009700090ABDEEC00A10EE100A81087943490C11
S3150800971001FB1400102182B26020009601F0CEFDF4
S3150800972095ED0A0A482030EE080ABCEEC00A10EE8B
S31508009730102A20210223009601F0C0FD582020217E
S315080097402E22082301F03AFC95ED0A0A022330EE90
S31508009750080A20EE090ABDEEC00A10EE100A8108B2
S315080097607943490C01FB1400202182B2602000963F
S3150800977001F0A4FD95ED0B0A482030EE080ABCEE70
S31508009780C00A10EE102A30210223009601F096FD39
S31508009790582030212E22082301F010FC95ED0B0AE3
S315080097A0022330EE080A20EE090ABDEEC00A10EEC2
S315080097B0100A81087943490C01FB1400302182B252
S315080097C06020009601F07AFDB5F86400022804D0FE
S315080097D0B5F86400032840F0F18240F2AC00C2F20A
S315080097E000000178002900F0E3820078012840F0A3
S315080097F0E5823821DDE200BF40F22A02C0F6010206
S315080098002020002101F002FCB5F86800C0067FF5AB
S31508009810BEAE40F20C02C0F601022020102101F073
S31508009820F5FBB5F8680080067FF5B6AE40F2510242
S31508009830C0F601022020202101F0E8FBB5F86800F7
S31508009840400607D402B0BDEC048BBDE8F04101F038
S315080098505BBE00BF40F24402C0F601022020302160
S3150800986001F0D4FB02B0BDEC048BBDE8F04101F079
S315080098704BBE00BF0AD7A33BFFF75AFC0FF29C6208
S315080098800020002101F0C2FB0FF2A0620020102187
S3150800989001F0BCFB40F23702C0F60102002020218D
S315080098A001F0B4FB40F21902C0F601020020302193
S315080098B001F0ACFB402000213A220823082401F0DD
S315080098C07DFB402010213A22082301F077FB402037
S315080098D020213A22082301F071FB402030213A2248
S315080098E0082301F06BFB702000215622082301F0A3
S315080098F065FB702010214122082301F05FFB7020D0
S3150800990020215622082301F059FB702030214122DC
S31508009910082301F053FB95ED0C0A1FED2A8A48200F
S3150800992030EE080ABCEEC00A10EE102A0021022307
S31508009930009401F0C3FC582000212E22082301F0D0
S315080099403DFB95ED0C0A9FED4F9A30EE080A20EE86
S31508009950090ABDEEC00A10EE100A810841F27B46DC
S315080099607143490C642701FB1700002182B260206D
S315080099700223009401F0A2FC95ED0D0A482030EE72
S31508009980080ABCEEC00A10EE102A10210223009421
S3150800999001F094FC582010212E22082301F00EFB1A
S315080099A095ED0D0A022330EE080A20EE090ABDEEEF
S315080099B0C00A10EE100A81087143490C01FB170012
S315080099C0102182B26020009401F078FC95ED0A0A15
S315080099D0482030EE080ABCEEC00A10EE102A2021F4
S315080099E00223009401F06AFC582020212E22082325
S315080099F001F0E4FA95ED0A0A022330EE080A20EE91
S31508009A00090ABDEEC00A10EE100A81087143490C16
S31508009A1001FB1700202182B26020009401F04EFC61
S31508009A2095ED0B0A482030EE080ABCEEC00A10EE87
S31508009A30102A30210223009401F040FC58203021DE
S31508009A402E22082301F0BAFA95ED0B0A022330EE0E
S31508009A50080A20EE090ABDEEC00A10EE100A8108AF
S31508009A607143490C01FB1700302182B26020009433
S31508009A7001F024FC02B0BDEC048BBDE8F04101F016
S31508009A8043BD00BF0000C842FFF752FB0FF2584221
S31508009A900020002108234FF0080801F0D5FC0FF23A
S31508009AA04C421820002101F0B1FA0FF2484200207A
S31508009AB0102101F0ABFA0FF24C420020202101F0F0
S31508009AC0A5FA402000213A22082301F077FA40201F
S31508009AD010213A22082301F071FA402020213A2267
S31508009AE0082301F06BFA95ED0E0A1FED9E8A4820B1
S31508009AF030EE080ABCEEC00A10EE102A0021022336
S31508009B00CDF8008001F0DAFB582000212E22082328
S31508009B1001F054FA95ED0E0A1FED269A30EE080A62
S31508009B2020EE090ABDEEC00A10EE100A810841F2BD
S31508009B307B477943490C642601FB1600002182B253
S31508009B4060200223CDF8008001F0B8FB40F226041D
S31508009B50C0F6010470200021224601F057FA95ED5F
S31508009B600F0A482030EE080ABCEEC00A10EE102A8A
S31508009B7010210223CDF8008001F0A0FB5820102107
S31508009B802E22082301F01AFA95ED0F0A022330EE69
S31508009B90080A20EE090ABDEEC00A10EE100A81086E
S31508009BA07943490C01FB1600102182B26020CDF8DA
S31508009BB0008001F083FB70201021224601F026FA6E
S31508009BC0A86905F089FA41EC100BD2A34820202198
S31508009BD008228DED000B01F021F902B0BDEC048BD3
S31508009BE0BDE8F04101F090BCFFF7A2FAB0A2002050
S31508009BF0002101F00BFAB2A20020102101F006FAAA
S31508009C00B3A20020202101F001FA402000213A22C7
S31508009C100823082401F0D2F9402010213A2208230B
S31508009C2001F0CCF9402020213A22082301F0C6F998
S31508009C3095ED070A9FEDAA8A482030EE080ABCEE81
S31508009C40C00A10EE102A00210223009401F036FB08
S31508009C50582000212E22082301F0B0F995ED070AB5
S31508009C609FEDA09A30EE080A20EE090ABDEEC00A5A
S31508009C7010EE100A810841F27B467143490C6427AD
S31508009C8001FB1700002182B260200223009401F034
S31508009C9015FB95ED080A482030EE080ABCEEC00A06
S31508009CA010EE102A10210223009401F007FB582019
S31508009CB010212E22082301F081F995ED080A0223C6
S31508009CC030EE080A20EE090ABDEEC00A10EE100AA8
S31508009CD081087143490C01FB1700102182B26020EC
S31508009CE0009401F0EBFA702010214122082301F0BC
S31508009CF065F995ED090A482030EE080ABCEEC00A57
S31508009D0010EE102A20210223009401F0D7FA5820D9
S31508009D1020212E22082301F051F995ED090A022384
S31508009D2030EE080A20EE090ABDEEC00A10EE100A47
S31508009D3081087143490C01FB1700202182B260207B
S31508009D40009401F0BBFA702020215622082301F066
S31508009D5035F940F22602C0F601027020002101F012
S31508009D6055F940F2B010C2F20000017B01290DD16D
S31508009D70417B00293ED0417B01292AD0417B02291B
S31508009D8050D0417B032959D0407B6BE0017B0229E7
S31508009D9034D1417B00293DD0417B012928D0417B24
S31508009DA0022945D0417B032958D0407B68E000BF93
S31508009DB028217C200322012300F0D0F898F80C0013
S31508009DC0012809D198F80D00A0B198F80D000128CE
S31508009DD024D148204AE000BF98F80C0002287FF4F6
S31508009DE031AD98F80D00A8B198F80D0001281BD1DF
S31508009DF0482049E0002000210EE000BF017B03292E
S31508009E007FF420AD417BD9B1417B01291CD1482083
S31508009E1041E000BF0020102180223EE098F80D00A6
S31508009E20022807D1502021E098F80D00022811D108
S31508009E30502029E098F80D00032811D1602015E07C
S31508009E4000202021E8E700BF417B022910D15020DD
S31508009E5021E000BF98F80D0003280FD1602013E019
S31508009E6098F80D0004287FF4EDAC6820002113E073
S31508009E70417B03290AD160200DE000BF98F80D0048
S31508009E8004287FF4DFAC6820102105E0407B042815
S31508009E907FF4D8AC682020210822102301F02AF884
S31508009EA002B0BDEC048BBDE8F04101F02DBB00BF4C
S31508009EB0E8BF87E6B8A9E4BF9DE68AA400000000CB
S31508009EC0E8BF87E6B581E4BF9DE68AA400000000E6
S31508009ED0E8BF87E58E8BE4BF9DE68AA400000000F4
S31508009EE00AD7A33B0000C8424D435500E6B8A9E58A
S31508009EF0BAA60000E4B8BBE69DBFE6B8A9E5BAA6CF
S31508009F0000000000E8BDACE68DA2E69588E78E87DE
S31508009F100000000025322E3266252500E8BE93E5AE
S31508009F2085A5E794B5E58E8B00000000E8BE93E5AD
S31508009F3085A5E794B5E6B58100000000E794B5E588
S31508009F408E8BE8AEBEE7BDAE00000000E794B5E62E
S31508009F50B581E8AEBEE7BDAE000000002DE9F04FC2
S31508009F608CB0804640B240F2E01915468A46002871
S31508009F70C2F20009029312D405EB0A02D3B23F2BB0
S31508009F800DD802F0F80309EB031302F007020127C4
S31508009F9013F8086007FA02F2324303F8082000288B
S31508009FA012D4AAEB0502D3B23F2B0DD802F0F80360
S31508009FB009EB031302F00702012713F8086007FAF2
S31508009FC002F2324303F80820BAF13F0F13D805EB23
S31508009FD0080252B2002A0ED40AF0F806D2B209EBE9
S31508009FE006160AF0070301272946B55C07FA03F3A4
S31508009FF02B430D46B354BAF13F0F13D8A8EB05020D
S3150800A00052B2002A0ED40AF0F806D2B209EB0616A6
S3150800A0100AF0070301272946B55C07FA03F32B4321
S3150800A0200D46B354029979B36A42AA422CDA00283B
S3150800A0301AD4012004E000BF013213B2AB4223DA7E
S3150800A04002EB0A03DFB23F2FF6D803F0F80709EB55
S3150800A050071703F0070317F8086000FA03F33343FA
S3150800A06007F80830E8E700BF501C00B2A8420BDA30
S3150800A070901C00B2A84207DAD01C00B2A84203DA44
S3150800A080043210B2A842EFDB002D00F07783C5F149
S3150800A090010000224FF0010B0021CDE900A80EE0D7
S3150800A0A00798069A00B2089900EB4200DDE90A25EE
S3150800A0B0DDF8048001310130AA4280F25F83049200
S3150800A0C0571C07900004A5F1010213B248BF2A469F
S3150800A0D00028384658BFC01A069007EB080040B259
S3150800A0E0002802EB0A0E0A970FD45FFA8EF33F2B6D
S3150800A0F00BD80EF0F806C3B209EB06160EF00705E4
S3150800A100F45C0BFA05F52543F554CDE908100A99D0
S3150800A11010B2514400EB0802CBB23F2B4FFA82FC37
S3150800A12005930B9010D8BCF1000F0DD401F0F8047C
S3150800A1305FFA8CF209EB041401F00705A75C0BFA29
S3150800A14005F53D43A5540B9803910A99AAEB000619
S3150800A150A8EB010251B200290FD4F2B23F2A0CD85B
S3150800A16006F0F804CAB209EB041406F00705A75C62
S3150800A1700BFA05F53D43A5540B98A8EB00040A987D
S3150800A1804FFA84F8AAEB0005EAB23F2A1BD8B8F1C1
S3150800A190000F18D440F2E01005F0F809C2F20000EA
S3150800A1A05FFA88F700EB091305F0070A13F807901A
S3150800A1B00BFA0AF0DDF800A040EA090040F2E019BF
S3150800A1C0C2F20009D855099800281BD4F0B23F28D6
S3150800A1D018D8099840F2E01406F0F803C2F2000411
S3150800A1E0C0B204EB031306F0070913F800A00BFA34
S3150800A1F009F740F2E01947EA0A07DDF800A0C2F2BB
S3150800A20000091F543F2A0FD8BCF1000F0CD405F0E3
S3150800A210F8025FFA8CF009EB021205F00703155CE9
S3150800A2200BFA03F32B43135400290FD45FFA8EF06D
S3150800A2303F280BD80EF0F802C8B209EB02120EF04E
S3150800A2400703175C0BFA03F33B43135405983F289F
S3150800A25010D8B8F1000F0DD4039B5FFA88F003F00D
S3150800A260F80209EB021203F00703175C0BFA03F373
S3150800A2703B431354029800283FF412AF0B9C6042EC
S3150800A28000B2844240F31281099B5FFA81F9002BE0
S3150800A29000F1D480E2075FFA83FE42D000EB0A029F
S3150800A2A0D0B23F281BD802F0F80302F0070540F2A7
S3150800A2B0E012C2F2000202EB031212F80E700BFA59
S3150800A2C005F347EA030502F80E500B9C002906D44D
S3150800A2D03F2804D812F80900184302F80900721C2E
S3150800A2E0D0B23F281BD802F0F80302F0070540F267
S3150800A2F0E012C2F2000202EB031212F80E700BFA19
S3150800A30005F347EA030502F80E500B9C002906D40C
S3150800A3103F2804D812F80900184302F80900C4F1C6
S3150800A32002004FF0FF3202EB440292B2032A07D230
S3150800A330BCE000BF04300B9A00B2904280F2B680AF
S3150800A34000EB0A03DAB23F2A19D840F2E01403F008
S3150800A350F805C2F2000404EB051503F0070715F823
S3150800A3600E600BFA07F73E43002905F80E6006D47F
S3150800A3703F2A04D815F809203A4305F809205D1C38
S3150800A380EAB23F2A19D840F2E01405F0F806C2F2FC
S3150800A390000405F0070704EB061515F80E600BFA1E
S3150800A3A007F73E43002905F80E6006D43F2A04D86D
S3150800A3B015F809203A4305F809209D1CEAB23F2AF8
S3150800A3C019D840F2E01405F0F806C2F2000405F0C8
S3150800A3D0070704EB061515F80E600BFA07F73E4358
S3150800A3E0002905F80E6006D43F2A04D815F8092076
S3150800A3F03A4305F809200333DAB23F2A9AD803F01C
S3150800A400F80503F0070640F2E013C2F2000303EB77
S3150800A410051313F80E700BFA06F547EA0506002928
S3150800A42003F80E603FF586AF3F2A3FF683AF13F871
S3150800A43009202A4303F809207CE700BF002935D400
S3150800A440E2072BD05044C2B23F2A10D840F2E0119E
S3150800A45000F0F802C2F2000101EB021200F0070058
S3150800A46012F809300BFA00F0184302F80900701CBC
S3150800A470C2B23F2A10D840F2E01100F0F802C2F248
S3150800A480000101EB021200F0070012F809300BFA7E
S3150800A49000F0184302F80900C4F102004FF0FF313A
S3150800A4A001EB440292B2032A80F00181DDF810E044
S3150800A4B008995FEACE7040F2E0196FEA01075FFA81
S3150800A4C088F35FFA8CF0C2F2000949D1B8F1000F9F
S3150800A4D007EB0A020DD4D7B23F2F0AD802F0F807C5
S3150800A4E009EB071702F00706FD5C0BFA06F62E4382
S3150800A4F0FE54BCF1000F0DD4D7B23F2F0AD802F094
S3150800A500F80709EB071702F007023E5C0BFA02F29E
S3150800A51032433A54B8F1000FAAEB01020DD4D7B270
S3150800A5203F2F0AD802F0F80709EB071702F00706CB
S3150800A530FD5C0BFA06F62E43FE54BCF1000F0DD453
S3150800A540D7B23F2F0AD802F0F80709EB071702F02F
S3150800A55007023E5C0BFA02F232433A54C1F1010794
S3150800A5604FEA4E0242F00102032A07D298E500BFDD
S3150800A57029B28E4507F104077FF792ADB8F1000FAF
S3150800A58007EB0A050DD4EAB23F2A0AD805F0F80205
S3150800A59009EB021205F00706D45C0BFA06F1214313
S3150800A5A0D154BCF1000F0DD4E9B23F290AD805F001
S3150800A5B0F80109EB011105F007020E5C0BFA02F22D
S3150800A5C032430A54B8F1000F05F101020DD4D1B295
S3150800A5D03F290AD802F0F80109EB011102F0070633
S3150800A5E0CC5C0BFA06F62643CE54BCF1000F0DD40C
S3150800A5F0D1B23F290AD802F0F80109EB011102F09D
S3150800A60007020E5C0BFA02F232430A54B8F1000F45
S3150800A61005F102020DD4D1B23F290AD802F0F80199
S3150800A62009EB011102F00706CD5C0BFA06F62E437C
S3150800A630CE54BCF1000F0DD4D1B23F290AD802F08E
S3150800A640F80109EB011102F007020E5C0BFA02F29F
S3150800A65032430A54FD1CB8F1000F05EB0A020DD46B
S3150800A660D1B23F290AD802F0F80109EB011102F02C
S3150800A6700706CC5C0BFA06F62643CE54BCF1000F4F
S3150800A6803FF576AFD1B23F293FF672AF02F0F80137
S3150800A69009EB011102F007020E5C0BFA02F23243D3
S3150800A6A00A5465E7043000B2A042BFF6FFAE00EBDD
S3150800A6B00A03DAB23F2A0DD95A1CD7B23F2F1FD93F
S3150800A6C09A1CD7B23F2F31D9DA1CD3B23F2BE9D81F
S3150800A6D042E000BF40F2E01103F0F802C2F20001C6
S3150800A6E001EB021203F0070712F809500BFA07F7F5
S3150800A6F00B9C2F4302F809705A1CD7B23F2FDFD89C
S3150800A70040F2E01102F0F807C2F2000101EB071768
S3150800A71002F0070217F809500BFA02F20B9C2A43BB
S3150800A72007F809209A1CD7B23F2FCDD840F2E0117E
S3150800A73002F0F807C2F2000101EB071702F0070260
S3150800A74017F809500BFA02F20B9C2A4307F809205E
S3150800A750DA1CD3B23F2BA5D840F2E01102F0F80379
S3150800A760C2F2000101EB031302F0070213F80970A5
S3150800A7700BFA02F23A4303F8092093E70CB0BDE856
S3150800A780F08F000070B584B0002503950398C008C3
S3150800A7907C2840F21F8340F6A8144FF42E40C2F2DC
S3150800A7A00004ADF80C000A2603AA204678210223E5
S3150800A7B00096FAF769FB4FF45540ADF80C0003AA6A
S3150800A7C02046782102230096FAF75EFB4FF40040F4
S3150800A7D0ADF80C0003AA2046782102230096FAF762
S3150800A7E053FB4FF42840ADF80C0003AA2046782105
S3150800A7F002230096FAF748FB4FF47C50ADF80C009C
S3150800A80003AA2046782102230096FAF73DFB4FF467
S3150800A8105340ADF80C0003AA20467821022300967F
S3150800A820FAF732FB03AA204678210223ADF80C502A
S3150800A8300096FAF729FB4FF48040ADF80C0003AAFE
S3150800A8402046782102230096FAF71EFB4FF4214092
S3150800A850ADF80C0003AA2046782102230096FAF7E1
S3150800A86013FB4FF44840ADF80C0003AA20467821A4
S3150800A87002230096FAF708FB4FF45A40ADF80C008D
S3150800A88003AA2046782102230096FAF7FDFA4FF428
S3150800A8909050ADF80C0003AA2046782102230096B2
S3150800A8A0FAF7F2FA4FF40140ADF80C0003AA204675
S3150800A8B0782102230096FAF7E7FA4FF44F40ADF8ED
S3150800A8C00C0003AA2046782102230096FAF7DCFA40
S3150800A8D04FF45940ADF80C0003AA2046782102230C
S3150800A8E00096FAF7D1FA4FF47140ADF80C0003AAB6
S3150800A8F02046782102230096FAF7C6FA4FF45B4001
S3150800A900ADF80C0003AA2046782102230096FAF730
S3150800A910BBFA4FF44050ADF80C0003AA2046782144
S3150800A92002230096FAF7B0FA4FF42440ADF80C006B
S3150800A93003AA2046782102230096FAF7A5FA4FF4CF
S3150800A9402640ADF80C0003AA20467821022300967B
S3150800A950FAF79AFA4FF40D40ADF80C0003AA204610
S3150800A960782102230096FAF78FFA4FF4A050ADF833
S3150800A9700C0003AA2046782102230096FAF784FAE7
S3150800A9804FF42F40ADF80C0003AA20467821022385
S3150800A9900096FAF779FA40F2E010C2F200000021B8
S3150800A9A0421845542031802955709570D570157117
S3150800A9B055719571D571157255729572D572157353
S3150800A9C055739573D573157455749574D574157533
S3150800A9D055759575D575157655769576D576157713
S3150800A9E055779577D577DBD1002100228318203259
S3150800A9F0802A83F8801083F8811083F8821083F800
S3150800AA00831083F8841083F8851083F8861083F8FA
S3150800AA10871083F8881083F8891083F88A1083F8DA
S3150800AA208B1083F88C1083F88D1083F88E1083F8BA
S3150800AA308F1083F8901083F8911083F8921083F89A
S3150800AA40931083F8941083F8951083F8961083F87A
S3150800AA50971083F8981083F8991083F89A1083F85A
S3150800AA609B1083F89C1083F89D1083F89E1083F83A
S3150800AA709F10BBD10021002283182032802A83F838
S3150800AA80001183F8011183F8021183F8031183F882
S3150800AA90041183F8051183F8061183F8071183F862
S3150800AAA0081183F8091183F80A1183F80B1183F842
S3150800AAB00C1183F80D1183F80E1183F80F1183F822
S3150800AAC0101183F8111183F8121183F8131183F802
S3150800AAD0141183F8151183F8161183F8171183F8E2
S3150800AAE0181183F8191183F81A1183F81B1183F8C2
S3150800AAF01C1183F81D1183F81E1183F81F11BBD191
S3150800AB000021002283182032802A83F8801183F8D6
S3150800AB10811183F8821183F8831183F8841183F8ED
S3150800AB20851183F8861183F8871183F8881183F8CD
S3150800AB30891183F88A1183F88B1183F88C1183F8AD
S3150800AB408D1183F88E1183F88F1183F8901183F88D
S3150800AB50911183F8921183F8931183F8941183F86D
S3150800AB60951183F8961183F8971183F8981183F84D
S3150800AB70991183F89A1183F89B1183F89C1183F82D
S3150800AB809D1183F89E1183F89F11BBD100210022E5
S3150800AB9083182032802A83F8001283F8011283F87A
S3150800ABA0021283F8031283F8041283F8051283F855
S3150800ABB0061283F8071283F8081283F8091283F835
S3150800ABC00A1283F80B1283F80C1283F80D1283F815
S3150800ABD00E1283F80F1283F8101283F8111283F8F5
S3150800ABE0121283F8131283F8141283F8151283F8D5
S3150800ABF0161283F8171283F8181283F8191283F8B5
S3150800AC001A1283F81B1283F81C1283F81D1283F894
S3150800AC101E1283F81F12BBD100210022831820328E
S3150800AC20802A83F8801283F8811283F8821283F8C7
S3150800AC30831283F8841283F8851283F8861283F8C0
S3150800AC40871283F8881283F8891283F88A1283F8A0
S3150800AC508B1283F88C1283F88D1283F88E1283F880
S3150800AC608F1283F8901283F8911283F8921283F860
S3150800AC70931283F8941283F8951283F8961283F840
S3150800AC80971283F8981283F8991283F89A1283F820
S3150800AC909B1283F89C1283F89D1283F89E1283F800
S3150800ACA09F12BBD10021002283182032802A83F804
S3150800ACB0001383F8011383F8021383F8031383F848
S3150800ACC0041383F8051383F8061383F8071383F828
S3150800ACD0081383F8091383F80A1383F80B1383F808
S3150800ACE00C1383F80D1383F80E1383F80F1383F8E8
S3150800ACF0101383F8111383F8121383F8131383F8C8
S3150800AD00141383F8151383F8161383F8171383F8A7
S3150800AD10181383F8191383F81A1383F81B1383F887
S3150800AD201C1383F81D1383F81E1383F81F13BBD156
S3150800AD300021002283182032802A83F8801383F8A2
S3150800AD40811383F8821383F8831383F8841383F8B3
S3150800AD50851383F8861383F8871383F8881383F893
S3150800AD60891383F88A1383F88B1383F88C1383F873
S3150800AD708D1383F88E1383F88F1383F8901383F853
S3150800AD80911383F8921383F8931383F8941383F833
S3150800AD90951383F8961383F8971383F8981383F813
S3150800ADA0991383F89A1383F89B1383F89C1383F8F3
S3150800ADB09D1383F89E1383F89F13BBD100F0A4FB61
S3150800ADC004B070BD0398013003900398B0F57A7FFC
S3150800ADD0BFF4E1AC02950298C0087C28F2D800BFFF
S3150800ADE00298013002900298C0087C28EAD8029896
S3150800ADF0013002900298C0087C28E3D802980130F6
S3150800AE0002900298C0087C28DCD80298013002908B
S3150800AE100298B0F57A7FE3D3D4E700002DE9F04332
S3150800AE208BB00DF10E0917460D46064612AA48467E
S3150800AE3019460292F5F724FB9DF80E00C8B3082FB1
S3150800AE401ED0062F38D14FF2A8780027C0F6000882
S3150800AE5007EB470100EB400006EB410108EB400019
S3150800AE60A0F1C004C8B2294606220823009400F0BF
S3150800AE702FF90137F8B219F800000028E8D118E0D0
S3150800AE804FF6E2180027C0F6000800BF06EBC70118
S3150800AE9008EB0010A0F50074C8B229460822102352
S3150800AEA0009400F015F90137F8B219F800000028E7
S3150800AEB0ECD10BB0BDE8F083002000BF40F00101E3
S3150800AEC0C9B219F801100029F3D040F00201C9B23D
S3150800AED019F801100029ECD040F00301C9B219F89D
S3150800AEE001100029E5D00430C1B219F80110002973
S3150800AEF0E4D1DEE72DE9F04747B2002F5CD43F29BD
S3150800AF005AD85F18402F88BFC1F1400313F0FF0FCE
S3150800AF1052D01718802F6FF07F0688BF321A12F0AA
S3150800AF20FF0F51FA83FE3FD040F2E01850FA82FA3A
S3150800AF304FF0010CC2F200080B4603E00131CBB218
S3150800AF409E4539D901F007040CFA04F44FEAD309EF
S3150800AF500346064608EBC917FD5C85EA0402751C1C
S3150800AF60EDB2AA45FA54E9D97A5DB31CDBB2624060
S3150800AF709A457A55E2D9FA5CF51CEDB26240AA45C3
S3150800AF80FA54DBD97A5D0436F3B262409A457A55AB
S3150800AF90E0D8D3E7C81CC0B2864598BFBDE8F0879D
S3150800AFA00431C8B2864507D9481CC0B2864503D9BC
S3150800AFB0881CC0B28645EDD8BDE8F08780B582B05A
S3150800AFC0062B11D0082B1FD14FF6E213C0F600034B
S3150800AFD003EB0212A2F5007C08221023CDF800C06C
S3150800AFE000F076F802B080BD4FF2A87302EB420279
S3150800AFF0C0F6000303EB4202A2F1C00C06220823A6
S3150800B000CDF800C000F064F802B080BD2DE9F04F1D
S3150800B01083B001911178934600220029029253D0F9
S3150800B0204FF2B837A0F1100A002402AEC0F60007A6
S3150800B030002500201FE000BF4FF000094AF6AB21AB
S3150800B040601CCAF6AA21A0FB010101F01E0009EB4B
S3150800B050C90107EB81010AEBC0000C1D0199C0B2BA
S3150800B06010221023009400F033F800200135ECB2CA
S3150800B0701BF8041041B30228315423D339783044DD
S3150800B0804FF00009002980F80290D7D0384631469B
S3150800B090F5F792FA0028CFD04FF0000808F101081A
S3150800B0A05FFA88F94FEAC90050FA88F017F82010B5
S3150800B0B00029C3D007EB80003146F5F77DFA002852
S3150800B0C0ECD1BBE70130D1E703B0BDE8F08F000053
S3150800B0D02DE9F04F83B047B2002F01D43F2903D999
S3150800B0E003B0BDE8F08F00BF5F18402FCDE90131EE
S3150800B0F088BFC1F1400313F0FF0F5BD011188029F8
S3150800B10011466FF07F0788BF391ADDF8089011F0ED
S3150800B110FF0F59FA83FE3BD040F2E01850FA81FB44
S3150800B120C2F200084C4605E009F101095FFA89F404
S3150800B130A6453FD909F00703012101FA03F3DD43C8
S3150800B1404FEAD40A0746064608EBCA14E35D03EA43
S3150800B1500501731CDBB29B45E155E5D9E15CB71CDB
S3150800B160FFB22940BB45E154DED9E15DF31C5FFA25
S3150800B17083FC2940E345E155D6D914F80C1004366A
S3150800B180F7B22940BB4504F80C10DDD8CCE700BF60
S3150800B1904F4600BF791CC9B28E450BD9B91CC9B236
S3150800B1A08E4507D9F91CC9B28E4503D90437F9B2B9
S3150800B1B08E45EFD80199002AA1F101018BB201EB66
S3150800B1C053314FEAE10B5FD003460299802828BF26
S3150800B1D08023803B029340F2E013C2F20003184436
S3150800B1E04FEAD10E01F0070100F1800300F5607007
S3150800B1F0C1F10809009000204FF0000A019306E00B
S3150800B2000AF1010A5FFA8AF08345FFF469AF7044D0
S3150800B21007283FF665AF0C9B5FFA8AF012FB0030F1
S3150800B22010D1009D029E1346002EE9D010F8017B2E
S3150800B2302C788F40274305F8017B013B06F1010670
S3150800B240F2D1DDE7019F5EFA8AF307EBC316029B8C
S3150800B250154600BF002BD3D090F800C016F8808C96
S3150800B2600CFA01F444EA080406F8804C10F8014B7D
S3150800B270377824FA09F4274306F8017B013D03F1E0
S3150800B2800103E7D1BCE700BF002000BF40F0010181
S3150800B290C9B28B45FFF424AF40F00201C9B28B4511
S3150800B2A0FFF41EAF40F00301C9B28B45FFF418AF97
S3150800B2B00430C1B28B45E9D212E70000002B08BF63
S3150800B2C070472DE9F04F83B081460C981C4692468C
S3150800B2D08B4608285ED0062840F0B280A01E019052
S3150800B2E06042651E002642F21078029029E000BFEF
S3150800B2F00120BAFBF0F04CF6CD41CCF6CC41A0FBD0
S3150800B3000112D20802EB8202A0EB420006EB4601CC
S3150800B31040F010004FF2A87209EB410100EB400023
S3150800B320C0F6000202EB4007C8B2594606220823B7
S3150800B3300097FFF7CDFE0136A642A5F1010500F0FC
S3150800B3407F800298F1438142D2D00198801B03285E
S3150800B35002D2012008E000BF25F00302012000BF49
S3150800B360043A00FB08F0FBD1214411F00301C0D0D8
S3150800B370012903D100EB80004000BAE74FF47A7246
S3150800B380424302294FF0640108BF00FB01F2104650
S3150800B390AFE700BFA01E01906042651E002642F27C
S3150800B3A01078029024E000BF0120BAFBF0F04CF6BA
S3150800B3B0CD41CCF6CC41A0FB0112D20802EB8202A9
S3150800B3C0A0EB42004FF6E212C0F6000209EBC601F6
S3150800B3D002EB001000F58077C8B259460822102300
S3150800B3E00097FFF775FE0136A642A5F1010527D09D
S3150800B3F00298F1438142D7D00198801B032801D2D5
S3150800B400012007E025F00302012000BF043A00FBF3
S3150800B41008F0FBD1214411F00301C6D0012903D15C
S3150800B42000EB80004000C0E74FF47A7242430229DD
S3150800B4304FF0640108BF00FB01F21046B5E700BFF4
S3150800B44003B0BDE8F04F70472DE9F04381B01446CC
S3150800B4501278DAB389460646082B1FD0062B39D14F
S3150800B4604FF2A8780027C0F6000800BF07EB470090
S3150800B47002EB420106EB400008EB4101A1F1C005D1
S3150800B480C0B24946062208230095FFF721FE013778
S3150800B490F8B2225C002AE9D118E000BF4FF6E2189C
S3150800B4A00027C0F6000800BF06EBC70008EB02112C
S3150800B4B0A1F50075C0B24946082210230095FFF78A
S3150800B4C007FE0137F8B2225C002AEDD101B0BDE8CB
S3150800B4D0F08300BF002000BF40F00101C9B2615CE3
S3150800B4E00029F3D040F00201C9B2615C0029EDD011
S3150800B4F040F00301C9B2615C0029E7D00430C1B24B
S3150800B500615C0029E8D1E1E72DE9F04FA3B040F2EC
S3150800B510E010C2F200000DF10B0540F6A817A0F1E5
S3150800B520800405F101094FF000080A26C2F2000757
S3150800B5304FF0000A4AF0B0008DF80C003846782122
S3150800B5402A4602238DF80B800096F9F79DFC4FF4E6
S3150800B5508050ADF80B00384678212A46022300961B
S3150800B560F9F792FC384678212A460223ADF80B8073
S3150800B5700096F9F789FC803440208DF80B00484680
S3150800B58021468022EB46F4F7ABFF384678212A4657
S3150800B59081230096F9F778FCDD460AF1010ABAF12B
S3150800B5A0080FC7D123B0BDE8F08F000000000000E7
S3150800B5B0B0B540F21474C2F200042046F7F74AFF09
S3150800B5C02046F7F739FD00EE100A9FED3B1AB8EE54
S3150800B5D0400A9FED3A2A20EE010A80EE020A9FED04
S3150800B5E0382A31EE401A21EE021A81EE000A80EE60
S3150800B5F0020A10EE100A03F06FFD41EC100B02F080
S3150800B60093FD51EC100B9FED240B53EC102B03F01C
S3150800B61045F99FED230B53EC102B03F08BF89FEDA8
S3150800B620220B02460B4651EC100B03F037F99FED3F
S3150800B630200B53EC102B03F07DF803F049F840F289
S3150800B6404015C2F2000595ED070A01EE100AB4EEA0
S3150800B650410AF1EE10FAC8BFB0BD012040F6AC04AD
S3150800B660A5F864000020C2F2000485F86B002046A5
S3150800B670C021F9F799F920464FF44061F9F794F992
S3150800B680B5F8680040F04000A5F868000420A5F861
S3150800B6906400B0BD00BF00BF0000000000DCAE4083
S3150800B6A0000000E0E1796B3F000000000000F03F79
S3150800B6B000000060661271C0083D534000F07F47E5
S3150800B6C000401C46B0B540F2B010C2F2000090ED42
S3150800B6D0060A9FED1F1AB8EE400A9FED1E2A20EEB5
S3150800B6E0010A80EE020A9FED1C1A40F24015C2F2CA
S3150800B6F0000580EE010A95ED091AB4EE410AF1EE4D
S3150800B70010FA03DA00202882B0BD00BF288A01306B
S3150800B71081B20329288238BFB0BD40F6AC040020A8
S3150800B720C2F20004288285F86B002046C021F9F78A
S3150800B7303BF920464FF44061F9F736F9B5F8680049
S3150800B74040F00800A5F868000420A5F86400B0BD1C
S3150800B750083D534000F0FF456157803D40F2AC007C
S3150800B760C2F20000002141608160C1608161C1614F
S3150800B77001620161704700007047000080B586B01D
S3150800B78001A90120142201F079FADDE901E140F26C
S3150800B790B010C2F200000DF10C0CC0E901E140F254
S3150800B7A040109CE80C10C2F200001C3080E80C1017
S3150800B7B006B080BD2DE9F04782B000261F469046A8
S3150800B7C00D4681468DF80360F8F74EFA381A00EBF5
S3150800B7D00807F8F749FA40F22C01C2F20001096895
S3150800B7E023225143090DD9F8004079430191A168F4
S3150800B7F0294235D0824618F1010035D0B5F5C06F1B
S3150800B8001AD100BF207B8DF803009DF80300F8F7D6
S3150800B8102BFAA0EB0A00B8425ED2019801990028DB
S3150800B820A1F101010191D9F80010896808BF0746FE
S3150800B83011F4C06FE6D112E0F8F716FAA0EB0A0089
S3150800B840B84249D2019801990028A1F10101019154
S3150800B850D9F80010896808BF07462942ECD10026A6
S3150800B860304602B0BDE8F0870026B5F5C06F25D191
S3150800B870207B8DF803009DF80300A06810F4C06FC4
S3150800B880EDD0207B8DF803009DF80300A06810F426
S3150800B890C06FE4D0207B8DF803009DF80300A068F4
S3150800B8A010F4C06FDBD0207B8DF803009DF80300F1
S3150800B8B0A06810F4C06FDBD1D2E700BFA0682842A9
S3150800B8C0CDD0A0682842CAD0A0682842C7D0A068B0
S3150800B8D02842F3D1C4E700BFD9E900014268B1F5AF
S3150800B8E0827F22F0E00242600BD1D9F80810B1F548
S3150800B8F0004F02D0B1F5806F03D1016821F04001F5
S3150800B9000160D9F82810B1F5005F07D1016821F464
S3150800B91000510160016841F400510160012089F875
S3150800B9205D00002089F85C000326304602B0BDE8B9
S3150800B930F0870000F0B581B015460E460446F8F7C4
S3150800B94093F9281A8719F8F78FF940F22C01C2F2F1
S3150800B95000010968C1F3CB317943009121688A68EF
S3150800B960120622D50546701C15D000BFF8F77CF9DB
S3150800B970401BB8421CD2009800990028A1F1010189
S3150800B98000912168896808BF07460806EED40CE0CE
S3150800B9908868000609D58868000606D588680006FE
S3150800B9A044BF88685FEA0060F2D4002001B0F0BDA9
S3150800B9B0D4E900014268B1F5827F22F0E0024260D4
S3150800B9C00AD1A168B1F5004F02D0B1F5806F03D155
S3150800B9D0016821F040010160A16AB1F5005F07D155
S3150800B9E0016821F400510160016841F400510160C9
S3150800B9F0012084F85D00002084F85C00032001B073
S3150800BA00F0BD000070470000B0B540F2B010C2F2B9
S3150800BA10000090ED060A90ED043A9FED3A1A9FED64
S3150800BA203A2AB8EE433A23EE013A83EE023A9FEDFC
S3150800BA30384A40F24015C2F2000583EE043A9FEDFB
S3150800BA40354A83EE043A9FED344AB4EE443AF1EEB1
S3150800BA5010FA29DDB8EE400A20EE010A80EE020A45
S3150800BA609FED2A1A80EE010AB6EE001AB4EE410AD4
S3150800BA70F1EE10FA18DA40F6AC040020C2F200041F
S3150800BA8085F86B002046C021F8F778FF20464FF46A
S3150800BA904061F8F773FFB5F8680040F02000A5F894
S3150800BAA068000420A5F86400B5F86800800627D564
S3150800BAB0286D411CB0F5C87F2965B8BFB0BD697946
S3150800BAC000200B29286513D340F6AC040B21C2F2DB
S3150800BAD00004697185F86B002046C021F8F74EFF0F
S3150800BAE020464FF44061BDE8B040F8F747BF00BFB5
S3150800BAF0481C6871B5F8680020F02000A5F86800B1
S3150800BB00B0BD00BF083D534000F0FF456157803D7A
S3150800BB10000078420AD7A33B9A99214170B540F2B2
S3150800BB204015C2F20005287902285FD0012800F0E6
S3150800BB30C780002840F0F38040F6AC04C2F2000447
S3150800BB4000262046C02185F86B60F8F72DFF2046B1
S3150800BB504FF44061F8F728FF40F20000C2F20000F7
S3150800BB6064210183418340F2B001C2F200010E60F4
S3150800BB7040F2B401C2F200010E6040F2B801C2F20E
S3150800BB8000010E6040F2C401C2F200010E6040F2EC
S3150800BB90C801C2F200010E6040F2B011C2F2000103
S3150800BBA091ED010A9FED5E1A9FED5E2A20EE010ACD
S3150800BBB080EE020A9FED5C1A9FED5C3A9FED5C4AA7
S3150800BBC020EE010ABDEEC00A80ED030A91ED020AD5
S3150800BBD020EE030A20EE040A80EE020A20EE010A8D
S3150800BBE0BDEEC00A80ED040A012097E095F86B00C7
S3150800BBF068BB40F2B000C2F200000021016040F2CA
S3150800BC00B400C2F20000016040F2B800C2F20000BF
S3150800BC10016040F2C400C2F20000016040F2C800B0
S3150800BC20C2F2000040F6AC040160C2F200042068CB
S3150800BC3047F23051C0F81C12C0F81C1320464FF4C6
S3150800BC404061F8F79BFE2046C021F8F797FE0120D1
S3150800BC5085F86B00A889411CE889A981421C40F235
S3150800BC600000EA81C2F20000038BC1EB01111944FE
S3150800BC700183418BC2EB021211444183B0F91810BB
S3150800BC8046F629629142A4BF46F628610183B0F9B7
S3150800BC901A1044F62D429142A4BF44F62C41418322
S3150800BCA0018B46F62862914239D1408B44F62C41E5
S3150800BCB0884218BF70BD0320A5F8640000202DE057
S3150800BCC06889013081B20629688128D340F20001CB
S3150800BCD00020C2F20001642268818A830A83CA832B
S3150800BCE04A8340F2B002C2F20002106040F2B40287
S3150800BCF0C2F20002106040F2B802C2F200021060FE
S3150800BD0040F2C402C2F20002106040F2C802C2F257
S3150800BD1000021060C868401088600220287170BD53
S3150800BD206157803D083D534000F0FF450AD7A33BC5
S3150800BD3000007842F9F724BA4EF68850CEF2000091
S3150800BD40016841F4700101607047000040F67020F8
S3150800BD50C2F20000FAF78EBE40F6BC20C2F200001E
S3150800BD60FAF788BE40F60830C2F20000FAF782BE3B
S3150800BD7040F6FF330268C4F2000343F2FF3C9842E0
S3150800BD80C4F2010C0ADD60452EDC40F60043C4F21D
S3150800BD900003984234D042F600432DE0B0F1804FBC
S3150800BDA02ED040F20043C4F20003984228D040F651
S3150800BDB00003C4F20003984222D0604526DC40F214
S3150800BDC0FF73C4F20003984236DD40F60003C4F25E
S3150800BDD00003984244D040F60043C4F20003984258
S3150800BDE03ED042F6004337E045F20003C4F20103B1
S3150800BDF0984205D043F20043C4F201039842DCD1CD
S3150800BE004B6822F070021A436045D8DD44F2FF33CE
S3150800BE10C4F20103984217DD44F20043C4F2010359
S3150800BE2098421DD045F20003C4F20103984217D088
S3150800BE3044F6000310E000BFB0F1804F10D040F286
S3150800BE400043C4F2000309E043F20043C4F20103CD
S3150800BE50984205D044F20003C4F20103984203D184
S3150800BE60CB6822F440721A4380B54B6922F0800EE3
S3150800BE708A6843EA0E03D1F800C00360C262A0F1E3
S3150800BE808042A2F59632830543EA9222092AC0F82F
S3150800BE9028C0BDE8804008D8012303FA02F240F220
S3150800BEA0E5231A421CBF0969016301214161016941
S3150800BEB0C90708BF7047016921F001010161704790
S3150800BEC0816A0A070ED4CA0717D18A0720D44A07F7
S3150800BED029D4CA0632D48A063BD480B54A0644D445
S3150800BEE058E000BF0268D0F838C0536823F400430E
S3150800BEF043EA0C035360CA07E7D00268D0F82CC09F
S3150800BF00536823F4003343EA0C0353608A07DED5EB
S3150800BF100268D0F830C0536823F4803343EA0C0330
S3150800BF2053604A07D5D50268D0F834C0536823F45D
S3150800BF30802343EA0C035360CA06CCD50268D0F8BE
S3150800BF403CC0936823F4805343EA0C0393608A0643
S3150800BF50C3D50268D0F840C0936823F4005343EA77
S3150800BF600C03936080B54A0614D50268D0F844C01D
S3150800BF705368BCF5801F23F4801343EA0C0353600F
S3150800BF8008D1D2F804C0D0F848E02CF4C00343EA3C
S3150800BF900E035360090658BF80BD0168C06C4A6825
S3150800BFA022F400221043486080BD0000B0B582B07C
S3150800BFB004460020C4F89000F7F756FE21680546A7
S3150800BFC00A68120737D56FF07E4C20464FF40011E9
S3150800BFD000222B46CDF800C000F04CFB50B300BF42
S3150800BFE0206850E8000F216820F0800041E8000230
S3150800BFF0DAB1206850E8000F216820F0800041E897
S3150800C000000292B1206850E8000F216820F08000F5
S3150800C01041E800024AB1206850E8000F216820F084
S3150800C020800041E80002002ADAD12020C4F88800FE
S3150800C03060E000BF21680868400761D56FF07E4C54
S3150800C04020464FF4800100222B46CDF800C000F0B0
S3150800C05011FB002854D000BF206850E8000F216863
S3150800C06020F4907041E80002E2B1206850E8000F21
S3150800C070216820F4907041E800029AB1206850E8DF
S3150800C080000F216820F4907041E8000252B1206840
S3150800C09050E8000F216820F4907041E80002002A59
S3150800C0A0DAD100BF206850E8020F216820F00100AD
S3150800C0B041E80202DAB1206850E8020F216820F050
S3150800C0C0010041E8020292B1206850E8020F216897
S3150800C0D020F0010041E802024AB1206850E8020F48
S3150800C0E0216820F0010041E80202002ADAD1202066
S3150800C0F0C4F88C000320002184F8841002B0B0BD77
S3150800C1002020C4F88800C4F88C000020E066206768
S3150800C110002184F8841002B0B0BD0000806A0021B6
S3150800C120A0F85E10A0F85610FBF7A6B9806A026858
S3150800C130D0F88830D0F88CC09168090653D5212BE1
S3150800C14051D10021A0F85610016851E8001F026875
S3150800C15021F0C00142E80013BBB3016851E8001F93
S3150800C160026821F0C00142E8001373B3016851E880
S3150800C170001F026821F0C00142E800132BB30168D2
S3150800C18051E8001F026821F0C00142E80013002BA5
S3150800C190DAD11AE0016851E8021F026821F40001A9
S3150800C1A042E80213DBB1016851E8021F026821F474
S3150800C1B0000142E8021393B1016851E8021F0268C0
S3150800C1C021F4000142E802134BB1016851E8021F4D
S3150800C1D0026821F4000142E80213002BDAD120217B
S3150800C1E0C0F8881002689168490640F18480BCF15D
S3150800C1F0220F40F080800021A0F85E10016851E807
S3150800C200001F026821F4907142E80013DBB101684F
S3150800C21051E8001F026821F4907142E8001393B1B7
S3150800C220016851E8001F026821F4907142E8001382
S3150800C2304BB1016851E8001F026821F4907142E889
S3150800C2400013002BDAD14FF6FE7CCEF6FF7C00BF3A
S3150800C250026852E8022F036802EA0C0243E8022148
S3150800C260D9B1016851E8021F026801EA0C0142E8E7
S3150800C270021393B1016851E8021F026801EA0C0132
S3150800C28042E802134BB1016851E8021F026801EA4D
S3150800C2900C0142E80213002BDAD1C16E012924D120
S3150800C2A0016851E8001F026821F0100142E80013F6
S3150800C2B0DBB1016851E8001F026821F0100142E86D
S3150800C2C0001393B1016851E8001F026821F01001BC
S3150800C2D042E800134BB1016851E8001F026821F0DB
S3150800C2E0100142E80013002BDAD12021C0F88C1087
S3150800C2F00021C1664167D0F8901041F01001C0F8DE
S3150800C3009010FBF7B9B800000168806A09688906C9
S3150800C31048BFFBF7EFBC0021A0F85610016851E8AA
S3150800C320021F026821F0800142E8021383B3016804
S3150800C33051E8021F026821F0800142E802133BB36C
S3150800C340016851E8021F026821F0800142E80213E1
S3150800C350F3B1016851E8021F026821F0800142E842
S3150800C3600213002BDAD113E0016851E8001F0268B6
S3150800C37041F0400142E80013002B08BF70470168EE
S3150800C38051E8001F026841F0400142E8001393B1EA
S3150800C390016851E8001F026841F0400142E80013B5
S3150800C3A04BB1016851E8001F026841F0400142E8BC
S3150800C3B00013002BD8D17047806AFBF7ABBC00008E
S3150800C3C070B5054605F108041ECC0068194341EA14
S3150800C3D00403EE69046846F6F311CCF6FF712140B2
S3150800C3E0194331430160416848F2000C21F4405179
S3150800C3F011434160AA69C4F2000C60451CBF296A52
S3150800C4000A4381684FF2FF43C1F2FF1319401143F3
S3150800C4108160C16AD5F824E021F00F0141EA0E01D6
S3150800C420C16244F6FF71C4F2000188424FF010035E
S3150800C43018DC44F20041C4F20001884228D044F6D0
S3150800C4400001C4F2000188422AD044F60041C4F231
S3150800C4500001884242D141F28801C4F2020109680A
S3150800C4608B0933E045F20001C4F2000188421FD06F
S3150800C470604525D043F60001C4F2010188422DD15A
S3150800C48041F28801C4F202010B6876A222E000BFDD
S3150800C49041F28801C4F2020109688B0816E000BF60
S3150800C4A041F28801C4F2020109680B090EE000BFD7
S3150800C4B041F28801C4F2020109680B0A06E000BFCE
S3150800C4C041F28801C4F2020109688B0A4FF6EC7240
S3150800C4D0C0F6000203F0030152F82130604542F22B
S3150800C4E00040C0F2F40015D0B6F5004F22D1082B53
S3150800C4F04FF0010100F2AD80DFE803F0065C6AAB9D
S3150800C50060ABABAB680000BFF9F782FA002840F0D1
S3150800C51059809AE0082B4FF0010100F29A80DFE873
S3150800C52003F0059825981B9898982300F9F770FA50
S3150800C530B0B98AE0082B4FF0010100F28A80DFE8E3
S3150800C54003F005636F88678888886D00F9F760FAD5
S3150800C550002860D179E000BFF9F786FA002874D080
S3150800C560D5F824E002E000BF4FF400404FF6D27140
S3150800C570C0F6000131F81E106A68B0FBF1F002EB54
S3150800C580420188424FF0010163D31303984260D8F1
S3150800C590010E000210EB520041F100010023F3F7EF
S3150800C5A0F7FE4FF60052A0F54071C0F20F02914215
S3150800C5B049D34DE0F9F742FA20B946E0F9F754FABB
S3150800C5C0002842D0D5F824E002E000BF4FF400402E
S3150800C5D04FF6D271C0F6000131F81E106A68B0FB3A
S3150800C5E0F1F0510801EB4000B0FBF2F04FF6EF72A4
S3150800C5F0A0F1100191422BD84FF6F0710140C0F31B
S3150800C600420008441FE000BFF9F718FA18B91CE001
S3150800C610F9F72AFAC8B1D5F824E001E04FF400404A
S3150800C6204FF6D271C0F6000131F81E104FF6EF72C0
S3150800C630B0FBF1F0696800EB5100B0FBF1F0A0F136
S3150800C6401001914204D82968C860002101E000BFA2
S3150800C65001214FF00110A866002208466A67AA67FA
S3150800C66070BD00BF010000000400000002000000C9
S3150800C670080000002DE9F041804600681546C269A9
S3150800C6800E461140891BB1FA81F14909A94223D105
S3150800C690069C2CB3611C29D1C1693140891BB1FAAA
S3150800C6A081F14909A94217D1C1693140891BB1FAFB
S3150800C6B081F14909A9420FD1C1693140891BB1FAF3
S3150800C6C081F14909A94207D1C1693140891BB1FAEB
S3150800C6D081F14909A942DFD00020BDE8F08100BFF9
S3150800C6E0F7F7C2FA0320BDE8F08100BF1F4607E04E
S3150800C6F0C0693040801BB0FA80F04009A842EBD1EF
S3150800C700F7F7B2FAC01BA04200F2AE80D8F80000D4
S3150800C71001684907ECD5402EEAD0802EE8D0C169D9
S3150800C720090700F1A580C1690905E1D54FF4006143
S3150800C7300162D8F8000050E8000FD8F8001020F47D
S3150800C740907041E800020AB3D8F8000050E8000FDC
S3150800C750D8F8001020F4907041E80002B2B1D8F879
S3150800C760000050E8000FD8F8001020F4907041E857
S3150800C77000025AB1D8F8000050E8000FD8F80010A7
S3150800C78020F4907041E80002002AD2D14FF6FE70DC
S3150800C790CEF6FF70D8F8001051E8021FD8F800202E
S3150800C7A0014042E80213F3B1D8F8001051E8021F1D
S3150800C7B0D8F80020014042E80213A3B1D8F80010C7
S3150800C7C051E8021FD8F80020014042E8021353B18D
S3150800C7D0D8F8001051E8021FD8F80020014042E8B6
S3150800C7E00213002BD6D1D8F86C0001282CD1D8F822
S3150800C7F0000050E8000FD8F8001020F0100041E8BB
S3150800C80000020AB3D8F8000050E8000FD8F8001064
S3150800C81020F0100041E80002B2B1D8F8000050E854
S3150800C820000FD8F8001020F0100041E800025AB1B5
S3150800C830D8F8000050E8000FD8F8001020F01000D3
S3150800C84041E80002002AD2D120200021C8F88C0035
S3150800C850C8F86C10C8F87410C8F89000032088F857
S3150800C8608410BDE8F08100BF0320BDE8F08100BF59
S3150800C87008210162D8F8000050E8000FD8F8001027
S3150800C88020F4907041E800020AB3D8F8000050E896
S3150800C890000FD8F8001020F4907041E80002B2B1F9
S3150800C8A0D8F8000050E8000FD8F8001020F490706F
S3150800C8B041E800025AB1D8F8000050E8000FD8F84D
S3150800C8C0001020F4907041E80002002AD2D14FF6F9
S3150800C8D0FE70CEF6FF70D8F8001051E8021FD8F89F
S3150800C8E00020014042E80213F3B1D8F8001051E8DD
S3150800C8F0021FD8F80020014042E80213A3B1D8F875
S3150800C900001051E8021FD8F80020014042E802133F
S3150800C91053B1D8F8001051E8021FD8F8002001409A
S3150800C92042E80213002BD6D1D8F86C0001282CD186
S3150800C930D8F8000050E8000FD8F8001020F01000D2
S3150800C94041E800020AB3D8F8000050E8000FD8F80A
S3150800C950001020F0100041E80002B2B1D8F800003B
S3150800C96050E8000FD8F8001020F0100041E8000247
S3150800C9705AB1D8F8000050E8000FD8F8001020F097
S3150800C980100041E80002002AD2D12020C8F88C0005
S3150800C99000200821C8F86C00C8F87400C8F8901080
S3150800C9A088F884000120BDE8F081000040F6A03038
S3150800C9B0C2F20000FAF762BD83B0F0B582B00DF19D
S3150800C9C01C0C00268CE80E00ADF80260BDF80210BB
S3150800C9D00246C80840F230077C28C2F200072FD862
S3150800C9E0387868BBBDF802000130ADF80200BDF822
S3150800C9F00200C0087C2823D8387808BBBDF8020096
S3150800CA000130ADF80200BDF80200C0087C2817D82E
S3150800CA103878A8B9BDF802000130ADF80200BDF8B3
S3150800CA200200C0087C280BD8387848B9BDF802003F
S3150800CA300130ADF80200BDF80200B0F57A7FCFD319
S3150800CA4040F2E054C2F2000407AB2046C821019325
S3150800CA50F3F728FD054682B240F6A030C2F2000080
S3150800CA6021463E70FBF7DEF8284602B0BDE8F040E6
S3150800CA7003B07047F0B587B040F2B014C2F20004B4
S3150800CA8094ED000AB7EE001AB4EE410AF1EE10FA78
S3150800CA901DD10DF10700451C0020002700F0ACF958
S3150800CAA040F24012C2F20002D4E90101D2E9073687
S3150800CAB0526A286069602A610DF107010020152273
S3150800CAC08DF80770AB60EE6000F006F8276007B0D7
S3150800CAD0F0BD0000FEE700002DE9F04F85B0CDE976
S3150800CAE0021040F600401546C4F600000421002254
S3150800CAF04FF00008F7F7B2F840F60C260520C2F208
S3150800CB0000060DF113040DF112078DF813004FF00E
S3150800CB10FF3B304621463A4601238DF81280CDF870
S3150800CB2000B0F9F705FB47F66119CFF6FE794FF025
S3150800CB30FF0A00BF304621463A4601238DF813A066
S3150800CB408DF81280CDF800B0F9F7F2FA9DF81200C8
S3150800CB50C00704D0B9F1000F09F10109EAD140F67E
S3150800CB600049C4F60009484604210122F7F776F879
S3150800CB704846042100224FF0000BF7F76FF840F6FD
S3150800CB800C260620C2F200068DF813004FF0FF3877
S3150800CB900DF113010DF11202304601238DF812B082
S3150800CBA0CDF80080F9F7C4FA484604210122F7F7C0
S3150800CBB055F8484604210022F7F750F802208DF868
S3150800CBC013000DF113010DF11202304601238DF801
S3150800CBD012B0CDF80080F9F7ABFA039C0DF11301FA
S3150800CBE0200C8DF813000DF11202304601238DF842
S3150800CBF012B0CDF80080F9F79BFA200A8DF81300D9
S3150800CC000DF113010DF11202304601238DF812B011
S3150800CC10CDF80080F9F78CFA0DF113010DF1120227
S3150800CC20304601238DF813408DF812B0CDF80080F8
S3150800CC30F9F77EFAD5B1029840F60C2A441EC2F2DC
S3150800CC40000A0DF113060DF1120700BF14F8010FC3
S3150800CC5031468DF8130050463A4601238DF812B036
S3150800CC60CDF80080F9F764FA013DEFD14846042172
S3150800CC700122F6F7F3FF05B0BDE8F08F2DE9F04F76
S3150800CC8087B0CDE9011040F600401546C4F600000D
S3150800CC90042100224FF00008F6F7E0FF40F60C29C1
S3150800CCA00520C2F200098DF80F004FF0FF3B0DF189
S3150800CCB00F010DF10E02484601238DF80E80CDF8BE
S3150800CCC000B0F9F735FA47F66116CFF6FE764FF05B
S3150800CCD0FF0A0DF1110404AF484621463A460123DE
S3150800CCE08DF811A08DF81080CDF800B0F9F720FA6C
S3150800CCF09DF81000C00703D0002E06F10106EBD1FF
S3150800CD0040F60044C4F60004204604210122F6F742
S3150800CD10A5FF2046042100224FF0000BF6F79EFFE0
S3150800CD2040F60C260320C2F200068DF813004FF0D9
S3150800CD30FF380DF113010DF11202304601238DF86B
S3150800CD4012B0CDF80080F9F7F3F9029C0DF1150140
S3150800CD50200C8DF8150005AA304601238DF814B06D
S3150800CD60CDF80080F9F7E4F9200A8DF817000DF1DF
S3150800CD7017010DF11602304601238DF816B0CDF8CD
S3150800CD800080F9F7D5F90DF1190106AA30460123F5
S3150800CD908DF819408DF818B0CDF80080F9F7C8F964
S3150800CDA0F5B1019840F60C2A461E4FF0FF09C2F26B
S3150800CDB0000A0DF11B070DF11A0400BF504639464B
S3150800CDC0224601238DF81B908DF81AB0CDF8008005
S3150800CDD0F9F7AEF99DF81A00013D06F8010FEDD1F5
S3150800CDE040F60040C4F6000004210122F6F736FF9B
S3150800CDF007B0BDE8F08F00002DE9F04F85B08146F9
S3150800CE0040F60040C4F60000042100224FF0000A54
S3150800CE10F6F724FF40F60C260520C2F200068DF828
S3150800CE2007004FF0FF3B0DF107010DF106023046F2
S3150800CE3001238DF806A0CDF800B0F9F779F947F681
S3150800CE406115CFF6FE754FF0FF080DF1090702AC24
S3150800CE5030463946224601238DF809808DF808A008
S3150800CE60CDF800B0F9F764F99DF80800C00703D0BB
S3150800CE70002D05F10105EBD140F60045C4F6000585
S3150800CE80284604210122F6F7E9FE28460421002255
S3150800CE900027F6F7E3FE40F60C260620C2F2000647
S3150800CEA08DF80B004FF0FF340DF10B010DF10A025E
S3150800CEB0304601238DF80A700094F9F739F92846A7
S3150800CEC004210122F6F7CAFE284604210022F6F7B5
S3150800CED0C5FE20208DF80D000DF10D0103AA304680
S3150800CEE001238DF80C700094F9F722F94FEA1940DE
S3150800CEF08DF80F000DF10F010DF10E0230460123DA
S3150800CF008DF80E700094F9F713F94FEA19208DF889
S3150800CF1011000DF1110104AA304601238DF8107095
S3150800CF200094F9F705F90DF113010DF112023046D7
S3150800CF3001238DF813908DF812700094F9F7F8F81C
S3150800CF40284604210122F6F789FE05B0BDE8F08FD0
S3150800CF50A2B0F8F723F9002400201A94CDE9184462
S3150800CF60CDE91644F8F7B8F9092014904FF4803043
S3150800CF70159001200521199002201D9144211B902E
S3150800CF800325CDE91E10CDE9200014A81C95F8F755
S3150800CF90BDFD28B1EFF3108072B600BFFEE700BFF3
S3150800CFA00F20CDE90F050FA80421CDE911441394EC
S3150800CFB0F8F79EFB20B1EFF3108072B6FEE700BFCC
S3150800CFC040F60007C4F60007F8F718FDFBF79CFBC8
S3150800CFD0FBF766FBFBF76EFEFBF7F0FDFBF72AFA9D
S3150800CFE0FBF7BEFAFBF7D4FFFBF722FFFBF708FBBC
S3150800CFF0FBF71EFCFBF7A0FEFBF71CFEFBF7DAFEB1
S3150800D000FBF730FE40F2A410C2F200004FF0000B0E
S3150800D010A0F800B040F65430C2F200000821FAF732
S3150800D0204DF86420F5F714FDFDF7ACFBFCF780F826
S3150800D030A9A228201821FDF7E9FFFEF765FA40F6B0
S3150800D0407020C2F20000F9F7A3FB40F6BC20C2F23A
S3150800D0500000F9F79DFB40F60830C2F20000F9F728
S3150800D06097FBFBF705F9FEF779FBFBF789F8FEF75F
S3150800D07085FBC820F6F7EAFC40F2A864C2F2000471
S3150800D08020467F21F5F7F2FC40F21475C2F200053E
S3150800D09028467F21F5F7EAFC40F28076C2F20006C0
S3150800D0A030467F21F5F7E2FC40F29C11C2F20001FE
S3150800D0B020460422F6F766FA2846F6F7CBF93046F4
S3150800D0C0F6F7C8F940F6AC04C2F2000420464FF45D
S3150800D0D08011F7F721FC20464FF48001F7F71CFC76
S3150800D0E020680022D0F80C1241F01001C0F80C128A
S3150800D0F038463021F6F7B2FDA7F5806020210022D8
S3150800D100F6F7ACFD0020F5F7A3FC9FED710B40F296
S3150800D110381840F26C199FED738A9FED739A40F6A2
S3150800D120FC1740F25816C2F20008C2F2000950EC89
S3150800D13010ABC2F20007C2F200060E9003E000BF71
S3150800D1403846F8F717F8F4F717FEB8F804000A286F
S3150800D15005D3A8F804B0F4F7CFFDF4F7E5FBB8F863
S3150800D160060032280AD2B8F80200642880F09580B2
S3150800D170B8F80000B0F5FA7FE2D39AE0A8F806B04E
S3150800D180F4F796FD40F2A411C2F2000108880228BD
S3150800D19002D1012205E000BF08880338B0FA80F002
S3150800D1A0420940F60000C4F600001021F6F756FDC5
S3150800D1B0D9F8000001F090FF0E9B524601F0DAFF05
S3150800D1C0B0EE480AD8B940F26810C2F2000090EDF5
S3150800D1D0000A40F27010C2F2000099ED001A90EDB4
S3150800D1E0002A40F27410C2F2000090ED003A20EED8
S3150800D1F0010A22EE031A80EE010A20EE090A40F21D
S3150800D200701086ED000AC2F20000006801F064FFA3
S3150800D210044640F27410C2F2000000680D4601F0A0
S3150800D2205BFF41EC1A0B40F26810C2F2000000687E
S3150800D23001F052FF41EC1B0BD9F8000001F04CFF3E
S3150800D24041EC1C0B40F27C10C2F20000006801F0B1
S3150800D25043FF41EC1D0B40F27810C2F20000006853
S3150800D26001F03AFF41EC1E0B306801F035FF41EC46
S3150800D270100B40F2AC00C2F20000007822460C9077
S3150800D2801AA02B468DEC0AAB8DED0A0BFFF794FB23
S3150800D290B8F802006428FFF46BAFA8F802B0FCF7F0
S3150800D2A05DF9F4F73DFCB8F80000B0F5FA7FFFF435
S3150800D2B047AF40F60000C4F600002021A8F800B0E9
S3150800D2C0F6F7C4FCFFF7D6FB3AE700BF00BF00BF7E
S3150800D2D09A9999999999B93FE590AFE58AA8E4B8DA
S3150800D2E0AD000000000000000000C842252E33668D
S3150800D2F02C252E33662C252E33662C252E33662CAC
S3150800D300252E32662C252E32662C252E32662C25A5
S3150800D310640A00005FEA400C08BF91F0000F4FEA6C
S3150800D3208C234FEAC12243EA51514FEA1C5018BFD9
S3150800D33000F5F0404FEA300018BF41F000415FEABF
S3150800D3406C5C00F02980BCF1FF3F08BF40F08040CC
S3150800D3507047130C06BF12044FF0100C4FF0000C68
S3150800D360130E04BF12020CF1080C130F04BF1201AE
S3150800D3700CF1040C930F04BF92000CF1020CD30FAE
S3150800D38004BF52000CF1010C11464FF00002A0F147
S3150800D3901F00A0EB0C00704711F0004F08BF704744
S3150800D3A031F000413FF4D5AF0B0C06BF09044FF02E
S3150800D3B0100C4FF0000C0B0E04BF09020CF1080C00
S3150800D3C00B0F04BF09010CF1040C8B0F04BF890075
S3150800D3D00CF1020CCB0F04BF49000CF1010CCCF187
S3150800D3E0200322FA03F341EA030102FA0CF2A0EB46
S3150800D3F00C0000F10100704723F07F4720F07F4CB6
S3150800D40080EA030000F00040ACEB070303F57C5309
S3150800D41003F1FF032DE9804909B44FEA144324EACE
S3150800D42003484FEA154B25EA0B4E0FF2042606EB86
S3150800D43013273E7803FB0667C7F5000707FB06F6C2
S3150800D4404FEAD64606F102064FEA543707FB066C42
S3150800D450CCF1005C4FEA1C472CEA074C0CFB06F59E
S3150800D46007FB06F404EB15464FEA961649085FEAE9
S3150800D470320234BF00204FF000404FEAD13706FB96
S3150800D48007FC4FEA1C4C0CFB0BF7D21B03FB0CF7F3
S3150800D49061EB07010CFB0EF7B0EB074072EB174286
S3150800D4A00CFB08F734BFA2EB0742B2EB074261EB6D
S3150800D4B017414FEA0C444FEA910706FB07FC4FEA6F
S3150800D4C01C4C0CFB0BF7B0EBC74072EB573203FB57
S3150800D4D00CF734BFA2EBC742B2EBC74261EB573138
S3150800D4E00CFB0EF7B0EBC70072EB57720CFB08F794
S3150800D4F034BFA2EBC702B2EBC70261EB57714FEA22
S3150800D500816141EA92114FEA826242EA90124FEA39
S3150800D510806004EBCC04039F4FEAD13706FB07FC77
S3150800D5204FEA1C4C0CFB0BF7D21B03FB0CF761EB09
S3150800D53007010CFB0EF7B0EB074072EB17420CFB2A
S3150800D54008F734BFA2EB0742B2EB074261EB17417B
S3150800D5504FEA8C5504EB9C244FEA910706FB07FC1F
S3150800D5604FEA1C4C0CFB0BF7B0EBC74072EB57327B
S3150800D57003FB0CF734BFA2EBC742B2EBC74261EB21
S3150800D58057310CFB0EF7B0EBC70072EB57720CFB6A
S3150800D59008F734BFA2EBC702B2EBC70261EB5771BB
S3150800D5A04FEA816141EA92114FEA826242EA901299
S3150800D5B04FEA806015EB4C2544F100044FEAD13759
S3150800D5C006FB07FC4FEA1C4C0CFB0BF7D21B03FBB4
S3150800D5D00CF761EB07010CFB0EF7B0EB074072EB9B
S3150800D5E017420CFB08F734BFA2EB0742B2EB07421F
S3150800D5F061EB17414FEA813141EA92414FEA8232A3
S3150800D60042EA90424FEA80304FEA0C7615EB1C1539
S3150800D61044F1000448EA03434EEA0B484FF0000E73
S3150800D620B2EB080C71EB030724BF624639464EEB92
S3150800D6300E0E4FF0000B0018524149414BEB0B0BF5
S3150800D640B2EB080C71EB03077BF1000B24BF6246B3
S3150800D65039464EEB0E0E4FF0000B00185241494169
S3150800D6604BEB0B0BB2EB080C71EB03077BF1000BD2
S3150800D67024BF624639464EEB0E0E51EA020718BF22
S3150800D68046F0010616EB0E7655F1000254F100013C
S3150800D69003D5BDE88901BDE80088BDE88901BDE874
S3150800D6A00048B619524141EB0101A3F10103704745
S3150800D6B080807F7E7D7C7B7A7978777676757473C1
S3150800D6C0727171706F6E6E6D6C6C6B6A6A69686880
S3150800D6D0676666656464636362616160605F5F5E16
S3150800D6E05E5D5D5C5C5B5B5A5A595958585757568C
S3150800D6F056555555545453535252525151505050F1
S3150800D7004F4F4F4E4E4D4D4D4C4C4C4B4B4B4A4A42
S3150800D7104A49494948484847474747464646454586
S3150800D72045444444444343434342424242414141BF
S3150800D7309C46002B30D477002BD04FEA37071CB510
S3150800D74003B44FF010004FF01001BAF1000F06D0E5
S3150800D750BCF1000FDCBF40F0080040F008014FF0B4
S3150800D76000000FBCBDE810400BF1010BBBF1010F27
S3150800D77008BF5FEA170722BF12F1010211F1010182
S3150800D7804FF0004143F1000300F0004043EA000077
S3150800D7907047F9D35708D0E746EA06464FEA1646D1
S3150800D7A013F1400F1FDD13F1200FDFBF16430A46A2
S3150800D7B0002120335B42BED0C3F1200746EA064665
S3150800D7C04FEA164602FA07F746EA070622FA03F26E
S3150800D7D0C3F1200701FA07F742EA070221FA03F123
S3150800D7E04FF00003A7E746EA020646EA06464FEA6E
S3150800D7F0164646EA0106BCBF46EA0646360C4FF010
S3150800D80000034FF000024FF0000194E72DE9804C29
S3150800D81070B49A46934691E8380007C831EA400C36
S3150800D82048BF34EA430C03D5FFF7E6FDFFF780FF50
S3150800D830F0BCBDE8008C2DE9804C70B49A4693463E
S3150800D84091E8380007C810F0804F08BF13F0804FE2
S3150800D85003D100F005F8FFF76BFFF0BCBDE8008CBC
S3150800D86020F07F4723F07F4C80EA030000F0004059
S3150800D87007EB0C03A3F57C53A3F1FE0392F0000F0C
S3150800D88000F0B38095F0000F00F077802DE901498C
S3150800D8904FEA114021EA00484FEA144624EA0647AF
S3150800D8A000FB06FC08FB06F607FB08F818EB06481B
S3150800D8B04CEB164C00FB07F718EB07484CEB1740E8
S3150800D8C04FEA124B22EA0B4E4FEA154625EA06475F
S3150800D8D00BFB06FC0EFB06F607FB0EFE1EEB064EC2
S3150800D8E04CEB164C0BFB07F71EEB074E4CEB174B96
S3150800D8F018EB0B0840F1000018EB0E0B58EB00086C
S3150800D90040F100008F1A4FF000014FF000063CBFAF
S3150800D910C943661B14BFB5EB040C00213CBFC943C1
S3150800D920F61B4FEA174427EA04454FEA1C472CEA38
S3150800D930074C04FB076205FB07F70CFB05F616EB1D
S3150800D940074642EB174204FB0CFC16EB0C4642EB6F
S3150800D9501C421BEB060658EB020241414EEA8E0EAC
S3150800D96046EA9E0601D5BDE80189B619524141EB42
S3150800D9700101A3F10103BDE801894FEA144524EA30
S3150800D98005464FEA114721EA074C05FB07F406FB53
S3150800D99007F70CFB06F111EB074144EB174405FBAF
S3150800D9A00CFC11EB0C4144EB1C444FEA124722EAEB
S3150800D9B0074C05FB07F206FB07F70CFB06F616EB0A
S3150800D9C0074642EB174205FB0CFC16EB0C4642EBEE
S3150800D9D01C456A1854F1000148BF7047B6195241F0
S3150800D9E041EB0101A3F10103704795F0000F37D011
S3150800D9F04FEA114221EA02464FEA144724EA074C45
S3150800DA0002FB07F106FB07F70CFB06F414EB0744C9
S3150800DA1041EB174102FB0CFC14EB0C4441EB1C4197
S3150800DA204FEA154725EA074C02FB07F506FB07F7F9
S3150800DA300CFB06F616EB074645EB174502FB0CFCF6
S3150800DA4016EB0C4645EB1C42121951F1000148BF72
S3150800DA507047B619524141EB0101A3F10103704722
S3150800DA604FEA144524EA05464FEA114721EA074CCE
S3150800DA7005FB07F106FB07F70CFB06F212EB07425C
S3150800DA8041EB174105FB0CFC12EB0C4251EB1C4118
S3150800DA904FF0000648BF7047921841EB0101A3F109
S3150800DAA001037047B0B540F2040EC2F2000EDEF86C
S3150800DAB0081041F2030CCEF8001040F29C11C2F295
S3150800DAC000018B88C988DEF80C20C1EB01316FEAAA
S3150800DAD01131114440F2AC02C2F200021161516ADE
S3150800DAE01069146900EB4000556901EB40002044B9
S3150800DAF0401B1062106903FB0CF300EB400008445E
S3150800DB0041F6FE7140F2A41C8842B8BF0146516234
S3150800DB10C2F2000CBCF800000121022801EB133305
S3150800DB2020D1DEF8000000EBD070B3EB600F19DAF5
S3150800DB30DEF80000116A0844CEF8000001201070D3
S3150800DB40DEF80000DEF80410884205DDDEF8040081
S3150800DB50CEF8000000201070DEF8000000281CD562
S3150800DB6018E000BFDEF80000146A2044CEF8000072
S3150800DB701170DEF80000DEF80810884205DDDEF8D0
S3150800DB800800CEF8000000201070DEF80000B0F1A2
S3150800DB90FF3F02DC0020CEF80000DEF80000C01AC5
S3150800DBA050609CF8080028B10020D06150621062CD
S3150800DBB08CF808009CF80610032900F29980DFE823
S3150800DBC001F0030F456100BF002050609060D060EF
S3150800DBD09061D061106250621061506188E000BFA8
S3150800DBE0D069516841F2974301FB030091684DF2F1
S3150800DBF08573CFF6FF7301FB0300D16841F2E53365
S3150800DC0001FB030090619068D0605068906090694D
S3150800DC10D0614FF4E160AEF81A009069000A00EB93
S3150800DC204000AEF81800BEF91800BEF91410884274
S3150800DC30C4BFBEF81400AEF81800BEF91800632871
S3150800DC40DCBF6420AEF8180052E000BFD069516806
S3150800DC5041F66C7301FB030091684CF23B23CFF647
S3150800DC60FF7301FB0300D16841F65C6301FB030007
S3150800DC7090619068D060506890609069D06146F66F
S3150800DC8028601CE0D069516841F66C7301FB0300FB
S3150800DC9091684CF23B23CFF6FF7301FB0300D16872
S3150800DCA041F65C6301FB030090619068D0605068A0
S3150800DCB090609069D0611069506145F6C050AEF821
S3150800DCC018009069000A00EB4000AEF81A00BEF989
S3150800DCD01A00BEF916108842C4BFBEF81600AEF880
S3150800DCE01A00BEF91A006328DCBF6420AEF81A00D1
S3150800DCF09CF8070040F6AC01002804BF6420AEF883
S3150800DD001800BEF91800C2F20001096847F230523D
S3150800DD10101AC1F81C02D1F81C024008C1F82802E2
S3150800DD20BEF91A00C1F81C03B0BD0000B0B540F238
S3150800DD30401EC2F2000EBEF85C2040F2B011C2F2DC
S3150800DD4000018A62BEF85E2041F203030A62BEF849
S3150800DD5060205A43012303EB12328A61BEF862201F
S3150800DD60C2EB023203EB12320A618A6A0E2A9CBFA0
S3150800DD7000228A628A690E2A9CBF00228A610A6981
S3150800DD800F2A9CBF00220A61D1F828C0DEE91032AA
S3150800DD90DEE912050CEB0304A4EBD303CEF84030FE
S3150800DDA0DB08CB620B6A1344A3EBD202CEF84420FD
S3150800DDB0D2084A628A690244A2EBD000CEF848002B
S3150800DDC0C008C86108692844A0EBD500CEF84C0005
S3150800DDD0C0084861B0BD00BFF0B581B040F240163A
S3150800DDE0C2F20006B6F86400042867D8DFE800F037
S3150800DDF0045868666E0000BF40F6AC04C2F2000420
S3150800DE0000252046C02186F86B50F6F7CDFD204642
S3150800DE104FF44061F6F7C8FD40F20000C2F2000078
S3150800DE20642186F86A50A6F86850456081830183A4
S3150800DE30C183418340F2B000C2F20000056040F29F
S3150800DE40B400C2F20000056040F2B800C2F2000059
S3150800DE50056040F2C400C2F20000056040F2C80046
S3150800DE60C2F20000056040F2B0100021C2F20000C4
S3150800DE70C4F2A00141600021C4F220118160002093
S3150800DE80C4F2A020F0610020C4F24820706200208D
S3150800DE90C4F2281030620120A6F8640001B0F0BD73
S3150800DEA0002086F86B003089013081B2C92930819B
S3150800DEB004D3C8203081B6F8680088B301B0F0BD35
S3150800DEC001B0BDE8F040FDF729BE00BF40F6AC053D
S3150800DED0C2F2000540F2004400272846C021C4F6D5
S3150800DEE0000486F86B70F6F75FFD28464FF440612C
S3150800DEF0F6F75AFD2046202101220125F5F7AEFE48
S3150800DF0086F86A70B6F868000028D7D1204620211E
S3150800DF100022A6F8645001B0BDE8F040F5F79EBEB1
S3150800DF2096F86D000128C9D1002002213081A6F893
S3150800DF306410307101B0F0BD80B540F2401EC2F2E7
S3150800DF40000E9EF806309EF86AC0BEF85C20042BC8
S3150800DF5010D8BEF85C10DEF8540001330844CEF839
S3150800DF6054008EF80630052B06D09EF86A30032B2F
S3150800DF7015D9AFE0052BF8D1DEF854004CF6CD41A3
S3150800DF80CCF6CC41A0FB01018A080020CEF854004B
S3150800DF908EF806009EF86A30032B00F29B80DFE8B5
S3150800DFA003F00365294D00BF40F20003C2F20003E7
S3150800DFB093ED010A9FED4C2AB8EEC01A00EE102A1E
S3150800DFC0B8EE400A20EE022AB4EE412AF1EE10FA23
S3150800DFD049DC93ED011A9FED452AB8EEC11A20EEE9
S3150800DFE0020A0322B4EE410AF1EE10FAB8BF022281
S3150800DFF06EE000BF40F20003C2F2000393ED010A8F
S3150800E0009FED392AB8EEC01A00EE102AB8EE400A7B
S3150800E01020EE022AB4EE412AF1EE10FA23DC93ED43
S3150800E020011A9FED332AB8EEC11A20EE020AB4EEA1
S3150800E030410AF1EE10FA3BDC4CE000BF40F2000367
S3150800E040C2F2000393ED010A9FED272AB8EEC01A23
S3150800E05000EE102AB8EE400A20EE022AB4EE412A53
S3150800E060F1EE10FA26DD012232E000BF40F200038D
S3150800E070C2F2000393ED010A9FED1C2AB8EEC01AFE
S3150800E08000EE102AB8EE400A20EE022AB4EE412A23
S3150800E090F1EE10FA1BDB93ED011A9FED162AB8EE86
S3150800E0A0C11A20EE020AB4EE410AF1EE10FA11DAAC
S3150800E0B003220DE093ED011A9FED0C2AB8EEC11A62
S3150800E0C020EE020AB4EE410AF1EE10FA02DA022252
S3150800E0D08EF86A209EF86A00BCEB000018BF012083
S3150800E0E08EF86C0080BD00BFCDCC4C3F9A99993F05
S3150800E0F03333933F9A99593F03B4019841000098E6
S3150800E10050EAC12018BF04204A0D18BF40F001008C
S3150800E11040F2FF72B2EB515F08BF40F002000128DF
S3150800E12008BF052002B0704770B5D94B00242DED05
S3150800E130020B2DED108BDDE91010984205DA20F060
S3150800E14000429A4201D809D141B19DED100BBDECB0
S3150800E150108B02B0BDE8704000F05EBAB0F5801FC3
S3150800E16026DA11430BD0002813DA0120F2F76AFAEF
S3150800E170BDEC108B02B0BDE8704000F059BA022021
S3150800E180F2F760FA00F030FA51EC100B00F094FA4E
S3150800E1909EE06FF035049FEDC00B53EC102B9DED00
S3150800E1A0100B51EC100B00F09FFDCDE9100108464D
S3150800E1B004EB2051C0F31304B948A1F2FF312044FF
S3150800E1C000F4801080F07F6282F04052224301EB17
S3150800E1D020559FEDB50B119253EC102B9DED100BAE
S3150800E1E051EC100B00F08AFE41EC180BA01CC0F392
S3150800E1F013009FEDAFDB9FEDB0EBB14E7E440328D5
S3150800E2006CD296ED000B51EC180B53EC102B00F06A
S3150800E2109FFC1DD1002D01BF96ED000BBDEC108BA8
S3150800E22002B070BD284600F0CFFC41EC180B53EC49
S3150800E2301D2B00F059FD41EC190B53EC1E2B51EC2C
S3150800E240180B00F051FD53EC192B00F073FA3FE060
S3150800E2509FED9D0B51EC180B53EC102B00F044FD71
S3150800E2609FED9B1B53EC112B00F03CFE41EC190B68
S3150800E27053EC182B51EC180B00F036FD53EC192B08
S3150800E28000F032FD41EC190B002D04BF53EC192B9D
S3150800E29051EC180B1AD0284600F096FC41EC1A0BE4
S3150800E2A053EC1D2B00F020FD53EC192B00F01AFE41
S3150800E2B053EC182B00F022FE41EC180B53EC1E2BE6
S3150800E2C051EC1A0B00F010FD53EC182B00F016FE5B
S3150800E2D0BDEC108B02B041EC100B70BD9FED7E0BB0
S3150800E2E051EC180B53EC102B00F024FA41EC100BF0
S3150800E2F051EC180B53EC102B00F0D0FA41EC190B2B
S3150800E300284600F061FC41EC1B0B53EC192B51EC31
S3150800E310190B00F0E9FC41EC1A0B714853EC1A2B67
S3150800E320261851EC1A0B00F0DFFC41EC1F0B6D4868
S3150800E330C4F1510404F5D724B0EE4F0AF0EE6F0A83
S3150800E3400321784400F0D2F853EC1F2B51EC100B44
S3150800E35000F0CAFC41EC1C0B6348B0EE4F0AF0EE25
S3150800E3606F0A0421784400F0C1F853EC1A2B51ECDB
S3150800E370100B00F0B9FC344353EC1C2B00F0DAF90F
S3150800E38041EC1C0B002C4CDD9FED510B51EC180B8E
S3150800E39053EC102B00F0A8FC53EC182B00F0A4FC4F
S3150800E3A041EC1A0B55B353EC1D2B51EC1B0B00F02B
S3150800E3B09BFC41EC1D0B53EC1C2B51EC1A0B00F08B
S3150800E3C0B9F953EC192B00F08FFC53EC1D2B00F018
S3150800E3D0B1F953EC1A2B00F085FD53EC182B00F01D
S3150800E3E08DFD41EC180B53EC1E2B51EC1B0B00F06A
S3150800E3F07BFC53EC182B00F081FD69E753EC1C2BD2
S3150800E40051EC1A0B00F096F953EC192B00F06CFC42
S3150800E41053EC1A2B00F066FD53EC182B00F062FD46
S3150800E42056E735B353EC1D2B51EC1B0B00F05CFC87
S3150800E43041EC1A0B53EC1C2B51EC180B00F05EFD4B
S3150800E44053EC192B00F050FC53EC1A2B00F056FD38
S3150800E45053EC182B00F052FD41EC180B53EC1E2B15
S3150800E46051EC1B0B00F040FC53EC182B00F046FD5A
S3150800E4702EE753EC1C2B51EC180B00F03FFD53EC28
S3150800E480192B00F031FC53EC182B00F02BFD1FE77D
S3150800E4900000F07F0000000000000000000050436C
S3150800E4A0645F090000000000000000000000F03F63
S3150800E4B0763C7935EF39EA3D0000E0FE422EE63F2C
S3150800E4C0C010000000000000555555555555D53F5C
S3150800E4D0000000000000E03F0000000000000040CF
S3150800E4E086EBF9FFFA0E0000F00E000070B5044640
S3150800E4F02DED028B4D1E00EBC500B0EE408AF0EE06
S3150800E500608A90ED000B35F0060017D053EC182BF7
S3150800E51051EC100B00F0E8FB41EC100B6D1E04EB00
S3150800E520C50090ED001B51EC100B53EC112B00F0BD
S3150800E53001F941EC100B35F00600E7D1022D36D073
S3150800E540042D1CD0062D1CBFBDEC028B70BD53ECF0
S3150800E550182B51EC100B00F0C7FB94ED0A1B53EC7B
S3150800E560112B00F0E7F853EC182B00F0BDFB94EDE7
S3150800E570081B53EC112B00F0DDF841EC100B53ECA3
S3150800E580182B51EC100B00F0AFFB94ED061B53EC67
S3150800E590112B00F0CFF853EC182B00F0A5FB94EDE7
S3150800E5A0040B53EC102B00F0C5F841EC100B53ECA0
S3150800E5B0182B51EC100B00F097FB94ED021B53EC53
S3150800E5C0112B00F0B7F853EC182B00F08DFB94EDE7
S3150800E5D0001B53EC112B00F0ADF8BDEC028B41EC9F
S3150800E5E0100B70BD000000009FED070B10B553EC33
S3150800E5F0102B9FED070B51EC100B00F04FF941EC77
S3150800E600100B10BD00000000000000000000000014
S3150800E610000000000000F03F10B553EC102B51EC41
S3150800E620100B00F087F841EC100B10BD000000003D
S3150800E6309FED050B10B553EC102B51EC100B00F0A9
S3150800E6402DF941EC100B10BD000000000000000081
S3150800E65030380A2801D20120704700207047000090
S3150800E66010B500290AD00878002807D0054878444C
S3150800E670F1F7A2FF002801D0002010BD0248784417
S3150800E68010BD0000121A00000A1A000010B5002971
S3150800E6900AD00878002807D005487844F1F78CFF97
S3150800E6A0002801D0002010BD0248784410BD0000A3
S3150800E6B0021A0000FA19000081F00041704780F044
S3150800E6C00040704721F00041704720F00040704735
S3150800E6D021F0004201F00043A2F16052B2F5801F1A
S3150800E6E028BFD2F17F6C0BD95FEA001C43EAC2024D
S3150800E6F042EB507018BF704728BF20F001007047E2
S3150800E700B2F5801FBCBF184670474FEA410C1CF58E
S3150800E710001F02D2084600F087BD70B500F08EFBD8
S3150800E72000000089FFF7F6BF4FF00040A0F5800013
S3150800E7307047000010B591EA030F48BF83F0004305
S3150800E74000F1E483841A71EB030C05D2121943EB2A
S3150800E7500C03001B61EB0C014FEA1154A4EB135C8C
S3150800E760DFF81CE11EEA430F18BF9EEA445F00F07B
S3150800E770748021EA045123EA0E0343F48013DCF182
S3150800E780200E32D322FA0CFE10EB0E0023FA0CFEF2
S3150800E79041EB0E01CCF1200E03FA0EFE10EB0E0033
S3150800E7A0CCF1200E51F10001B1F5801F32D201EBF8
S3150800E7B0045112FA0EF2BDE8104058BF7047401CCB
S3150800E7C038BF5FEA420218BF7047002814BF20F01E
S3150800E7D0010041F100014FEA410313F5001F38BF5C
S3150800E7E07047A1F1C04100F077BB012A43EB030251
S3150800E7F0ACF1200CDCF11F0E32BF4FF0000E23FAED
S3150800E8000CF310EB030041EB0451B4EB115FD0D0CD
S3150800E810A1EB045101F58011490801EB04515FEAA7
S3150800E82030000ED350F1000038BF12FA0EFE08D1A0
S3150800E830BDE81040C9E7401C38BF5FEA4202CAD1AA
S3150800E840C3E7BDE810404FEA410313F5001F38BF80
S3150800E8507047A1F1C04100F03FBB9EEA445F08D073
S3150800E86011EA5E0FBDE8104004BF01F00041002028
S3150800E8707047BDE8104070B500F0E0FA64FBBE3E94
S3150800E8800000E0FF491058BFC1F140415B1058BF76
S3150800E890C3F140438B42EFF3008070472DE9C04136
S3150800E8A030B4DFF8A4C23CEA111418BF3CEA1314CA
S3150800E8B000F0ED801CEA111481EA030544EAD574D8
S3150800E8C018BF1CEA131500F0C880A4EB050404F170
S3150800E8D07F7404F500344FF0004545EAC12145EA46
S3150800E8E0C32341EA505143EA52534FEAC0204FEA44
S3150800E8F0C222994208BF904200F09D804FEA1365F4
S3150800E9000FF24416765D4FEA134506FB05F7C7F185
S3150800E910807706FB07F74FEAD737A7FB03687642E7
S3150800E920A7FB06CEC8F5803838BFA8F1010807FB53
S3150800E93008E6A6FB028C4FF0000EE6FB03CEDCF1E0
S3150800E940000CCEF1004E38BFAEF1010EA6FB0C58F6
S3150800E9504FF00007E6FB0E87A1FB08C6A0FB07CE13
S3150800E96016EB0E064FF0000545F10005E1FB0765BD
S3150800E97015F1E04E7EBFA4F580345FEA46066D4188
S3150800E98016F1800745F100054FEA172747EA05679C
S3150800E9904FEA15254FEA0666A6F1DE46B6F1805F10
S3150800E9A020D9384605EBC47124F0010C01EB0C1193
S3150800E9B0BCF1FE6F02D8F0BCBDE8008124425CBF02
S3150800E9C001F5801E9EEAC47F02D4F0BCBDE8008132
S3150800E9D0244200F13980A1F1C041F0BCBDE80041F4
S3150800E9E000F07ABA4FEAD02040EA41504FEAD121E6
S3150800E9F04FEAD22242EA43524FEAD323A7FB0286C2
S3150800EA0007FB036605FB02661EEA0E0F58BFA6EB58
S3150800EA100056B6EB00564FEA520E4EEAC37E18EB86
S3150800EA200E0E56EB530EBCD518EB02085E417F1C42
S3150800EA3055F10005B5E74FF480154FF000074FF084
S3150800EA4000064FF00008ACE701F1C04101F00041B3
S3150800EA504FF00000F0BCBDE800810CEA131511EA7E
S3150800EA600C1F00D00CE013EA0C1F00F026804FF0B4
S3150800EA70000081EA030101F00041F0BCBDE8008115
S3150800EA80F0BCBDE8004181EA030100F025BAF0BCFC
S3150800EA90BDE8004170B500F0D1F900BF097EFC3E23
S3150800EAA000F007B84FF0000081EA030101F00041C9
S3150800EAB0704781EA030100F00FBAF0BCBDE80041D7
S3150800EAC022494FF000007047FFFDFBF9F7F5F4F215
S3150800EAD0F0EEEDEBE9E8E6E4E3E1E0DEDDDBDAD8EB
S3150800EAE0D7D5D4D3D1D0CFCDCCCBCAC8C7C6C5C449
S3150800EAF0C2C1C0BFBEBDBCBBBAB9B8B7B6B5B4B360
S3150800EB00B2B1B0AFAEADACABAAA9A8A8A7A6A5A44A
S3150800EB10A3A3A2A1A09F9F9E9D9C9C9B9A9999980E
S3150800EB209797969595949393929191908F8F8E8EB1
S3150800EB308D8C8C8B8B8A898988888787868585843E
S3150800EB4084838382828181800000FF070000F87F2A
S3150800EB5051EA030C17D41CF5801F58BFBCF5801F5B
S3150800EB6000F10680994218BF704708BF9042704767
S3150800EB7007D711F5801F58BF13F5801F19D499427E
S3150800EB807047894270471CF5801F08D5BCF5801F61
S3150800EB90F7D58B4218BF704708BF824270474FF4BB
S3150800EBA0001C1CEB410F38BF1CEB430F01D28B42F4
S3150800EBB0704770B500F042F9922449004FF00051B1
S3150800EBC04FF08053FFF75EBE10F0004248BF404248
S3150800EBD0B0FA80F310FA03F10AD0C3F11D0303F566
S3150800EBE0806302EB03524FEA415002EBD121704792
S3150800EBF04FF000007047000051EA030C17D41CF5CB
S3150800EC00801F58BFBCF5801F00F10680994218BFC7
S3150800EC10704708BF9042704707D711F5801F58BF45
S3150800EC2013F5801F19D499427047894270471CF51D
S3150800EC30801F08D5BCF5801FF7D58B4218BF7047D3
S3150800EC4008BF824270474FF4001C1CEB410F38BFC7
S3150800EC501CEB430F01D28B42704770B500F0EEF8FB
S3150800EC60922449004FF080514FF00053FFF70ABE37
S3150800EC7051EA030C17D41CF5801F58BFBCF5801F3A
S3150800EC8000F10680994218BF704708BF9042704746
S3150800EC9007D711F5801F58BF13F5801F19D499425D
S3150800ECA07047894270471CF5801F08D5BCF5801F40
S3150800ECB0F7D58B4218BF704708BF824270474FF49A
S3150800ECC0001C1CEB410F38BF1CEB430F01D28B42D3
S3150800ECD0704770B500F0B2F8922449004FF0005121
S3150800ECE04FF08053FFF7CEBD70B5DFF848C11CEA78
S3150800ECF0111E1EBF1CEA13159EEA0C0F95EA0C0F8F
S3150800ED0000F06F8081EA03044EEAD47EAE4421EA1D
S3150800ED104C1123EA4C1341F4801143F48013AEF1ED
S3150800ED207F7EA1FB024CA0FB0365361955EB0C054B
S3150800ED30A1FB034C4CF10003A0FB021C16EB0C06CE
S3150800ED40654153F10003094218BF46F0010613F462
S3150800ED50007F0BD14FEA03314FEA053041EA1551DE
S3150800ED6040EA165034036FF003020AE04FEAC32163
S3150800ED704FEAC52041EA555140EA5650F4026FF071
S3150800ED80020202EB2E4201EB025585EACE710AD049
S3150800ED905FEA440C18BF24F0004450F1000041F12A
S3150800EDA0000120EAD47040F2FE7C624500D270BDB4
S3150800EDB0A84214BF4FF080444FF04044002E08BFCD
S3150800EDC00024BEF1806FA8BFA1F1C041BDE8704024
S3150800EDD080F2828001F1C04101F000414FF000004D
S3150800EDE070470CEA13159EEA0C0F18BF95EA0C0F2C
S3150800EDF006D081EA030E4FF000000EF0004170BD08
S3150800EE0000F01CF88900013E00F007B800F009B8C8
S3150800EE104FEA430C5FEA5C5C08D081EA030100F024
S3150800EE205BB84FEA410C5FEA5C5CF6D102494FF0E9
S3150800EE30000070470000FF070000F87F0EF1020E81
S3150800EE402EF0030E5EF8046B364205D4012A43EB16
S3150800EE50030515F5001F12D8012841EB010C1CF516
S3150800EE60001F0CD80ED14FEAD17C0CEB4C0C0CF1E0
S3150800EE70020C15F5001F08BF4CEBD37C04E04FF0DD
S3150800EE80080C01E04FEAD37C0CEB4C0526FA05F694
S3150800EE9006F00706B6F1040C06D20EEB860CBDE8A2
S3150800EEA070404CF0010C6047DFE80CF0090B0202D9
S3150800EEB04FF00041A1F500214FF0000070BD194642
S3150800EEC01046012851EB010418BFD4F5001484BF7D
S3150800EED0002001F0004170BD0808A0F500114FEAB6
S3150800EEE03101704710B591EA030F81F000413FF5F3
S3150800EEF029AC83F0004300F009B8000010B591EA88
S3150800EF00030F48BF83F000433FF51CAC841A71EB2E
S3150800EF10030C07D28CF0004C121943EB0C03001BB0
S3150800EF2061EB0C014FEA1154A4EB135CDFF8A4E182
S3150800EF301EEA430F18BF9EEA445F00F0B48021EA38
S3150800EF40045123EA6E035242C3EB6E0338BF5B1EBD
S3150800EF50DCF1200E25D322FA0CFE10EB0E0043FA44
S3150800EF600CFE41EB0E01CCF1200E03FA0EFE10EB5F
S3150800EF700E00CCF1200E51F1000129D401EB045109
S3150800EF8012FA0EF2BDE8104058BF7047401C1CBF6D
S3150800EF90B2F1004F704700280CBF491C20F0010051
S3150800EFA0704712EB020E43EB030218BF4FF0010E37
S3150800EFB04EEA4202ACF1200CDCF11E0E56D943FA99
S3150800EFC00CFE10EB0E00CCF11E0E51F1FF31D5D51B
S3150800EFD00EF1010E12FA0EFE404141EB010101EB62
S3150800EFE0445C5FEA5C5C10D901EB045110EBDE70FF
S3150800EFF038BFBEF1004FBDE8104018BF7047002863
S3150800F0000CBF491C20F00100704734D24FEAD42CBB
S3150800F01024F4006411F500111BD0B1FA81F20B3A01
S3150800F020A41AA41ED2F12003914030FA03F319431F
S3150800F030904001EBCC7101EB0451002CBDE8104067
S3150800F040A8BF704701F1C04101F000414FF0000030
S3150800F0507047B0FA80F310FA03F102D1BDE8104008
S3150800F0607047E41A173C4805C90AE2E701EB045160
S3150800F070BDE81040704749104FEA300001EB0451D3
S3150800F080BDE8104002E04FF0000170474A0008BF93
S3150800F0900042F8D0B2F5001F28BF704701F00041C2
S3150800F0A04FF0000070479EEA445F07D011EA5E0FF2
S3150800F0B0BDE8104004BF002100207047BDE810409D
S3150800F0C070B5FFF7BBFE00BF40DFF63E104683F083
S3150800F0D0004170470000E0FF43004FEAD30C4FEAB7
S3150800F0E03C0C43401FBF40070CF1605113F0FE4F24
S3150800F0F070471CF0006F03D10CF0004100207047E8
S3150800F1000CF0004343EA507040EACC0010B500F01A
S3150800F11038F800BF000000924FEA0001FFF7DCBE96
S3150800F1204FF00041A1F500214FF00000704710B5DF
S3150800F130FFF70EFD0CBF0120002010BD10B5FFF72C
S3150800F14007FD14BF0120002010BD10B5FFF754FDC0
S3150800F1508CBF0120002010BD10B5FFF74DFD2CBF58
S3150800F1600120002010BD10B5FFF782FD94BF0120D5
S3150800F170002010BD10B5FFF77BFD34BF012000202D
S3150800F18010BD0EF1020E2EF0030E5EF8044B24425B
S3150800F19004D44FEA4102B2F17F4F11D84FEA400337
S3150800F1A0B3F17F4F0CD80ED14FEAD07C0CEB4C0C48
S3150800F1B00CF1020CB2F17F4F08BF4CEBD17C04E096
S3150800F1C04FF0080C01E04FEAD17C0CEB4C0324FA13
S3150800F1D003F404F00704B4F1040C06D20EEB840C15
S3150800F1E0BDE810404CF0010C6047DFE80CF007085A
S3150800F1F002024FF00040A0F5800010BD084642000C
S3150800F20018BFD2F1807288BF00F0004010BDF1EE41
S3150800F210100A4FF6FF71C0F2C03120EA010040F033
S3150800F2204070E1EE100A7047FF2141EAD050C00550
S3150800F2307047F1F773BEF1F7A7BF000000000000A2
S3150800F24004FA97999999D93FAF788E1DC571CC3F25
S3150800F2509FC678D0099AC33F935555555555E53FEE
S3150800F260599322942449D23FDE03CB966446C73F7E
S3150800F27044523EDF12F1C23F0000000000000000C9
S3150800F28030313233343536373839414243444546CE
S3150800F29040305800303132333435363738396162C8
S3150800F2A063646566403078000400000800000000CA
S3150800F2B0000000020001000010000000000000002D
S3150800F2C00000000000000000303132333435363794
S3150800F2D03839616263646566787000303132333478
S3150800F2E035363738394142434445465850000000C0
S3150800F2F002400000000000A00000000005400000D9
S3150800F300000000C8000000000C4000000000409CFF
S3150800F31000000000194000000020BCBE00000000EC
S3150800F32034400000BFC91B8E00000004B540000031
S3150800F330504BCFD06607E2CF010000006C410000B9
S3150800F3403E8251AADFEEA73401000000D942000030
S3150800F350DCB5A0E23A301F97FFFFFFFFB445000077
S3150800F360FD25A0C8E9A3C14FFFFFFFFFFF3F00002F
S3150800F3700000008000000000FF3F00000000008041
S3150800F3800000000002000000040000000800000061
S3150800F39010000000200000004000000001000000EE
S3150800F3A00000000000000000010203040607080927
S3150800F3B00000000001020304E794B5000000F88885
S3150800F3C0888888FF88888888F800000000001F0859
S3150800F3D00808087F888888889F80F000E58E8B005B
S3150800F3E00000FE0282828282FA8282828282020081
S3150800F3F080601F40404040407F40404458404000A5
S3150800F400E6B581001060028C004464544D464454AD
S3150800F41064C4040004047E0180403E0000FE00002F
S3150800F4207E80E000E8AEBE00404042CC0040A09E90
S3150800F4308282829EA02020000000003F90884043E0
S3150800F4402C10284641808000E7BDAE00001715D570
S3150800F4505557557D555755D5151700004040407FDF
S3150800F460555555555555557F40404000E6B8A900B5
S3150800F4701060028C0000FE9292929292FE000000AA
S3150800F48004047E01407E42427E427E42427E400025
S3150800F490E5BAA6000000FC242424FC252624FC2426
S3150800F4A02424040040308F80844C55252525554C4E
S3150800F4B080808000E4B8BB0000080808080809FA3C
S3150800F4C00808080808080000404041414141417FBA
S3150800F4D04141414141404000E69DBF001010D0FF28
S3150800F4E0901000FC24E4242223E20000040300FF19
S3150800F4F00083601F8041261826418000E8BE9300DD
S3150800F50088681FC80810C85452D1129408D0100031
S3150800F510091909FF0500FF1292FF005F807F0000AE
S3150800F520E585A500000000000001E21CE0000000DF
S3150800F53000000000804020100C03000000030C307F
S3150800F54040808000E587BA0000007C40404040FFCC
S3150800F55040404040FC000000007C40404040407F66
S3150800F5604040404040FC0000E8BF8700404042CC95
S3150800F57000084888080808FF080808000040201FF7
S3150800F580204040414048504F40404000E6ACA00073
S3150800F590008040300F0808E80808084828180000C6
S3150800F5A08080402010080601060810204080800050
S3150800F5B0E79FAD00908887FC84848002F2121212BD
S3150800F5C012F2020080601807083000404559414190
S3150800F5D0514D4000E8B7AF00003E22E2223E00103F
S3150800F5E0885724548C000000407E403F22220001A8
S3150800F5F0FE424242FE010100E8BDAC00C8B88FE8F1
S3150800F6008888404848E85F4848484000081808FF86
S3150800F610040400020B1222D20A060000E68DA2009C
S3150800F620101010FF902010E82724E4342CE0000086
S3150800F6300242817F00848447241C071C24478400D7
S3150800F640E6958800884828090A28488880708F081F
S3150800F65008F808004020110A040B30804020130CDB
S3150800F66033408000E78E87000014A4442434AD6636
S3150800F67024940444A414000008090808090909FD8B
S3150800F68009090B0808090800E9AB980004040404F2
S3150800F690F49495969494F4040404040000FE02027B
S3150800F6A07A4A4A4A4A4A7A0282FE0000E590AF0040
S3150800F6B0000000FC4444444546444444447C00005D
S3150800F6C04020180700FC44444444444444FC0000D9
S3150800F6D0E58AA8004044C4444444401010FF101072
S3150800F6E010F00000103C131014B840300E01408092
S3150800F6F0403F0000E4B8AD000000F010101010FF05
S3150800F70010101010F000000000000F04040404FF9D
S3150800F710040404040F000000E4BF9D00008060F8A4
S3150800F72007003E2222E222223E000000010000FFDE
S3150800F7302011090503FF030509112000E68AA40024
S3150800F740101010FF109000F888898E888888F800B5
S3150800F7500444827F8140300F000000000000010051
S3150800F760E2848300000C120C00C070100808080818
S3150800F7701030000000000000000F18302020202064
S3150800F780301C000020000000FF01010131090909B1
S3150800F79009897101010101FFFF80808080808096C0
S3150800F7A081808080808080FF0000000000000000CB
S3150800F7B0002F000000000700070000147F147F14C4
S3150800F7C000242A7F2A12002313086462003649554A
S3150800F7D0225000000007000000001C224100000023
S3150800F7E041221C000014083E08140008083E0808B8
S3150800F7F0000000A060000008080808080000606013
S3150800F8000000002010080402003E5149453E000051
S3150800F810427F4000004261514946002141454B3133
S3150800F820001814127F10002745454539003C4A49FF
S3150800F8304930000171090503003649494936000671
S3150800F8404949291E000036360000000056360000D9
S3150800F8500008142241000014141414140000412254
S3150800F8601408000201510906003E4955592E007C2C
S3150800F8701211127C007F49494936003E4141412216
S3150800F880007F4141221C007F49494941007F0909FF
S3150800F8900901003E4149497A007F0808087F0000AF
S3150800F8A0417F4100002040413F01007F081422416A
S3150800F8B0007F40404040007F020C027F007F040822
S3150800F8C0107F003E4141413E007F09090906003E7E
S3150800F8D04151215E007F09192946004649494931A7
S3150800F8E00001017F0101003F4040403F001F2040CA
S3150800F8F0201F003F4038403F006314081463000788
S3150800F9000870080700615149454300007F414100DE
S3150800F910000204081020000041417F000004020193
S3150800F920020400404040404000000102040000205C
S3150800F93054545478007F484444380038444444209A
S3150800F94000384444487F00385454541800087E0947
S3150800F95001020018A4A4A47C007F0804047800000F
S3150800F960447D4000004080847D00007F10284400CC
S3150800F9700000417F4000007C04180478007C0804DD
S3150800F980047800384444443800FC24242418001819
S3150800F990242418FC007C0804040800485454542005
S3150800F9A000043F444020003C4040207C001C20408E
S3150800F9B0201C003C4030403C004428102844001CD1
S3150800F9C0A0A0A07C004464544C440000087F410079
S3150800F9D00000007F00000000417F080000080408BE
S3150800F9E010080000000000000000000000000000F1
S3150800F9F00000000000F8000000000000003330009E
S3150800FA00000000160E00160E0000000000000000A0
S3150800FA10000040C07840C0784000043F04043F041A
S3150800FA200400007088FC08300000001820FF211E22
S3150800FA300000F008F000E018000000211C031E2159
S3150800FA401E0000F00888700000001E2123241927D4
S3150800FA502110000000160E00000000000000000043
S3150800FA600000000000E0180402000000000718204B
S3150800FA70400000020418E0000000004020180700BB
S3150800FA800000404080F0804040000202010F010261
S3150800FA900200000000F0000000000101011F010142
S3150800FAA00100000000000000000000B07000000027
S3150800FAB00000000000000000000000010101010133
S3150800FAC001010000000000000000003030000000C6
S3150800FAD0000000000000806018040060180601009D
S3150800FAE0000000E010080810E000000F10202010A9
S3150800FAF00F00001010F8000000000020203F202012
S3150800FB0000000070080808887000003028242221A8
S3150800FB10300000300888884830000018202020115E
S3150800FB200E000000C02010F8000000070424243F3F
S3150800FB30240000F8088888080800001921202011E8
S3150800FB400E0000E0108888180000000F1120201110
S3150800FB500E0000380808C83808000000003F0000FA
S3150800FB6000000070880808887000001C22212122E5
S3150800FB701C0000E010080810E000000031222211E5
S3150800FB800F00000000C0C000000000000030300078
S3150800FB900000000000C0C0000000000080B0700037
S3150800FBA00000000080402010080000010204081030
S3150800FBB0200040404040404040000404040404043F
S3150800FBC004000008102040800000002010080402ED
S3150800FBD00100007048080808F000000000303601EF
S3150800FBE00000C030C828E810E000071827242314AE
S3150800FBF00B000000C038E0000000203C230202276A
S3150800FC00382008F8888888700000203F20202011B6
S3150800FC100E00C030080808083800071820202010F1
S3150800FC20080008F808080810E000203F20202010E7
S3150800FC300F0008F88888E8081000203F20202320B5
S3150800FC40180008F88888E8081000203F20000300FC
S3150800FC500000C03008080838000007182020221EB7
S3150800FC60020008F808000008F808203F21010121D1
S3150800FC703F20000808F8080800000020203F202040
S3150800FC80000000000808F8080800C08080807F008F
S3150800FC90000008F888C028180800203F20012638E8
S3150800FCA0200008F8080000000000203F202020203F
S3150800FCB0300008F8F800F8F80800203F003F003F39
S3150800FCC0200008F830C00008F808203F2000071870
S3150800FCD03F00E01008080810E0000F102020201050
S3150800FCE00F0008F808080808F000203F2101010164
S3150800FCF00000E01008080810E0000F182424385007
S3150800FD004F0008F8888888887000203F2000030C78
S3150800FD103020007088080808380000382021212281
S3150800FD201C00180808F8080818000000203F2000E2
S3150800FD30000008F808000008F808001F2020202006
S3150800FD401F000878880000C83808000007380E0128
S3150800FD500000F80800F80008F800033C0700073C14
S3150800FD600300081868808068180820302C03032CC4
S3150800FD7030200838C800C83808000000203F200096
S3150800FD80000010080808C838080020382621202056
S3150800FD901800000000FE020202000000007F40403A
S3150800FDA04000000C30C000000000000000010638CA
S3150800FDB0C00000020202FE000000004040407F0032
S3150800FDC000000020100804081020000000000000B1
S3150800FDD00000000000000000000080808080808015
S3150800FDE080800002040800000000000000000000F7
S3150800FDF00000000080808080000000192422222252
S3150800FE003F2008F8008080000000003F11202011E4
S3150800FE100E000000008080800000000E11202020C7
S3150800FE201100000000808088F800000E11202010C4
S3150800FE303F200000808080800000001F22222222AE
S3150800FE401300008080F0888888180020203F202032
S3150800FE5000000000808080808000006B949494935A
S3150800FE60600008F8008080800000203F2100002004
S3150800FE703F2000809898000000000020203F2020A6
S3150800FE800000000000809898000000C08080807FF5
S3150800FE90000008F8000080808000203F24022D30F2
S3150800FEA02000000808F8000000000020203F20205D
S3150800FEB000008080808080808000203F20003F20D6
S3150800FEC0003F008080008080000000203F21002045
S3150800FED03F200000808080800000001F2020202016
S3150800FEE01F00808000808000000080FFA120201174
S3150800FEF00E000000008080808000000E112020A0E7
S3150800FF00FF80808080008080800020203F212000A4
S3150800FF10010000008080808080000033242424248F
S3150800FF201900008080E0808000000000001F20206B
S3150800FF3000008080000000808000001F2020201024
S3150800FF403F20808080000080808000010E300806F7
S3150800FF50010080800080008080800F300C030C3008
S3150800FF600F0000808000808080000020312E0E3136
S3150800FF702000808080000080808080818E70180636
S3150800FF80010000808080808080000021302C2221A2
S3150800FF90300000000000807C020200000000003FE4
S3150800FFA0404000000000FF00000000000000FF00C5
S3150800FFB000000002027C800000000040403F000074
S3150800FFC00000008040408000008000000000000122
S3150800FFD00100010002000400060008000A000C00E7
S3150800FFE01000200040008000000100000000000012
S3150800FFF004000000020000000800000001010103DF
S31508010000070100000804020408010101E8BE93E59E
S3150801001087BAE8BF87E6B58100E8BE93E587BAE700
S3150801002094B5E6B58100E2848300E8BE93E587BA14
S31508010030E8BF87E58E8B00E8BE93E587BAE794B5F6
S31508010040E58E8B00E6B8A9E5BAA6E8BF87E9AB98BD
S3150801005000E8BE93E587BAE79FADE8B7AF000000B1
S31508010060B001010800000020380000003C02000829
S31508010070E801010838000020001C00005C020008A5
S315080100801C00000043000000F8FFFFFF0C00000001
S315080100900E0000000F0000002E00000010010000F5
S315080100A043000000F8FFFFFF004040404040404049
S315080100B0404041414141414040404040404040402C
S315080100C040404040404040404005020202020202D0
S315080100D0020202020202020202202020202020201F
S315080100E02020200202020202020290909090909033
S315080100F010101010101010101010101010101010F1
S315080101001010101002020202020288888888888864
S315080101100808080808080808080808080808080850
S315080101200808080802020202400000000000000058
S3150801013000000000000000000000000000000000B0
S3150801014000000000000000000000000000000000A0
S315080101500000000000000000000000000000000090
S315080101600000000000000000000000000000000080
S315080101700000000000000000000000000000000070
S315080101800000000000000000000000000000000060
S315080101900000000000000000000000000000000050
S315080101A00000000000000000000000000000000040
S315080101B0010000000000000000000000000000002F
S315080101C000000000640000000000000000000000BC
S315080101D00000000010000000010000000024F400E7
S30D080101E0010000000000000007
S705080001D918
